{
  "transactions": [
    {
      "hash": "0x085e49249b9123780225ba9f2b2d1df14630af35d93c1b9654470e38a8f20820",
      "transactionType": "CREATE",
      "contractName": "FundingRound",
      "contractAddress": "0x12357F6A9040Aa35d918bc2075fD724CA9Eac367",
      "function": null,
      "arguments": [
        "0x5a562294808c5470873831ff456e86369dc32dcB"
      ],
      "transaction": {
        "type": "0x02",
        "from": "0x5a562294808c5470873831ff456e86369dc32dcb",
        "gas": "0x193e6f",
        "value": "0x0",
        "data": "0x6080604052600060025534801561001557600080fd5b5060405161165a38038061165a8339810160408190526100349161009c565b61003d3361004c565b6100468161004c565b506100cc565b600080546001600160a01b038381166001600160a01b0319831681178455604051919092169283917f8be0079c531659141344cd1fd0a4f28419497f9722a3daafe3b4186f6b6457e09190a35050565b6000602082840312156100ae57600080fd5b81516001600160a01b03811681146100c557600080fd5b9392505050565b61157f806100db6000396000f3fe6080604052600436106100fe5760003560e01c80637b1837de11610095578063c0bc417811610064578063c0bc4178146102bf578063c65579ad146102df578063d05c572c146102ff578063dcc601281461033f578063f2fde38b1461036157600080fd5b80637b1837de146102415780638da5cb5b14610261578063a35ff0761461027f578063b49521c41461029f57600080fd5b806338ba4614116100d157806338ba4614146101cf578063715018a6146101f157806372add81814610206578063769d24751461022e57600080fd5b80630f95c1bd14610103578063107046bd1461013a57806323b311a91461016a57806324212da7146101a2575b600080fd5b34801561010f57600080fd5b5061012761011e366004610f3c565b60009392505050565b6040519081526020015b60405180910390f35b34801561014657600080fd5b5061015a610155366004610f78565b610381565b6040516101319493929190610fd7565b34801561017657600080fd5b5060055461018a906001600160a01b031681565b6040516001600160a01b039091168152602001610131565b3480156101ae57600080fd5b506101c26101bd366004610f78565b610452565b604051610131919061100f565b3480156101db57600080fd5b506101ef6101ea36600461105c565b6104d8565b005b3480156101fd57600080fd5b506101ef6107a6565b34801561021257600080fd5b5061018a73f46d5fa9bfc964e8d06846c8739aec69bc06344d81565b6101ef61023c3660046110db565b6107ba565b34801561024d57600080fd5b506101ef61025c366004611108565b610889565b34801561026d57600080fd5b506000546001600160a01b031661018a565b34801561028b57600080fd5b506101ef61029a366004611132565b610981565b3480156102ab57600080fd5b506101ef6102ba366004611132565b6109ab565b3480156102cb57600080fd5b5061018a6102da366004610f78565b610a86565b3480156102eb57600080fd5b506101ef6102fa36600461114d565b610ab0565b34801561030b57600080fd5b5061032f61031a366004611132565b60036020526000908152604090205460ff1681565b6040519015158152602001610131565b34801561034b57600080fd5b50610354610c0c565b60405161013191906111ce565b34801561036d57600080fd5b506101ef61037c366004611132565b610d83565b6001818154811061039157600080fd5b90600052602060002090600502016000915090508060000154908060010154908060020180546103c0906112ad565b80601f01602080910402602001604051908101604052809291908181526020018280546103ec906112ad565b80156104395780601f1061040e57610100808354040283529160200191610439565b820191906000526020600020905b81548152906001019060200180831161041c57829003601f168201915b505050600390930154919250506001600160a01b031684565b606060018281548110610467576104676112e7565b90600052602060002090600502016004018054806020026020016040519081016040528092919081815260200182805480156104cc57602002820191906000526020600020905b81546001600160a01b031681526001909101906020018083116104ae575b50505050509050919050565b6005546001600160a01b031633146105375760405162461bcd60e51b815260206004820152601f60248201527f6f6e6c792053656372657420476174657761792063616e2066756c66696c6c0060448201526064015b60405180910390fd5b60006001805480602002602001604051908101604052809291908181526020016000905b828210156106a557838290600052602060002090600502016040518060a001604052908160008201548152602001600182015481526020016002820180546105a2906112ad565b80601f01602080910402602001604051908101604052809291908181526020018280546105ce906112ad565b801561061b5780601f106105f05761010080835404028352916020019161061b565b820191906000526020600020905b8154815290600101906020018083116105fe57829003601f168201915b505050918352505060038201546001600160a01b0316602080830191909152600483018054604080518285028101850182528281529401939283018282801561068d57602002820191906000526020600020905b81546001600160a01b0316815260019091019060200180831161066f575b5050505050815250508152602001906001019061055b565b50505050905060005b60045481101561076457600082518585848181106106ce576106ce6112e7565b905060200201356106df91906112fd565b9050600181815481106106f4576106f46112e7565b906000526020600020906005020160040160048381548110610718576107186112e7565b60009182526020808320909101548354600181018555938352912090910180546001600160a01b0319166001600160a01b039092169190911790555061075d81611335565b90506106ae565b507fe7ecfe6928c754cbd5282724cb865166ac3a20565babb867db6047900d7237238484846040516107989392919061134e565b60405180910390a150505050565b6107ae610dfc565b6107b86000610e56565b565b6107c2610dfc565b6005546001546040516361bf619360e01b815263ffffffff918216600482015290831660248201526001600160a01b039091169060009082906361bf619390349060440160206040518083038185885af1158015610824573d6000803e3d6000fd5b50505050506040513d601f19601f82011682018060405250810190610849919061138f565b90507f9ef465a513d3907321fbc06db999b22497925c91f2cc1ee6b0a52b141d3263b28160405161087c91815260200190565b60405180910390a1505050565b6001600160a01b03821660009081526003602052604090205460ff166108c25760405163fa50582160e01b815260040160405180910390fd5b6040516323b872dd60e01b8152336004820152306024820152604481018290526001600160a01b038316906323b872dd906064016020604051808303816000875af1158015610915573d6000803e3d6000fd5b505050506040513d601f19601f8201168201806040525081019061093991906113a8565b50816001600160a01b03167f5af8184bef8e4b45eb9f6ed7734d04da38ced226495548f46e0c8ff8d7d9a5248260405161097591815260200190565b60405180910390a25050565b610989610dfc565b600580546001600160a01b0319166001600160a01b0392909216919091179055565b6109b3610dfc565b6001600160a01b03811660009081526003602052604090205460ff16156109ec5760405162a679fd60e01b815260040160405180910390fd5b6004805460018082019092557f8a35acfbc15ff81a39ae7d344fd709f28e8600b4aa8c65c6b64bfe7fe36bd19b0180546001600160a01b0319166001600160a01b038416908117909155600081815260036020908152604091829020805460ff1916909417909355519081527f2587a8aae32052dc3489cced391a070648eedad0b8670a76ce103ee5df587e4a910160405180910390a150565b60048181548110610a9657600080fd5b6000918252602090912001546001600160a01b0316905081565b60016040518060a0016040528060026000815480929190610ad090611335565b9190505581526020016000815260200185858080601f01602080910402602001604051908101604052809392919081815260200183838082843760009201829052509385525050506001600160a01b03851660208084019190915260408051838152808301825293810193909352845460018082018755958352918190208451600590930201918255830151938101939093558101519091906002820190610b78908261142f565b5060608201516003820180546001600160a01b0319166001600160a01b0390921691909117905560808201518051610bba916004840191602090910190610ea6565b5050506001600254610bcc91906114ef565b7fc0c54fed07481d0998e1446b2c13759606bf4f26b78306307413ac4c4309aa82848484604051610bff93929190611508565b60405180910390a2505050565b60606001805480602002602001604051908101604052809291908181526020016000905b82821015610d7a57838290600052602060002090600502016040518060a00160405290816000820154815260200160018201548152602001600282018054610c77906112ad565b80601f0160208091040260200160405190810160405280929190818152602001828054610ca3906112ad565b8015610cf05780601f10610cc557610100808354040283529160200191610cf0565b820191906000526020600020905b815481529060010190602001808311610cd357829003601f168201915b505050918352505060038201546001600160a01b03166020808301919091526004830180546040805182850281018501825282815294019392830182828015610d6257602002820191906000526020600020905b81546001600160a01b03168152600190910190602001808311610d44575b50505050508152505081526020019060010190610c30565b50505050905090565b610d8b610dfc565b6001600160a01b038116610df05760405162461bcd60e51b815260206004820152602660248201527f4f776e61626c653a206e6577206f776e657220697320746865207a65726f206160448201526564647265737360d01b606482015260840161052e565b610df981610e56565b50565b6000546001600160a01b031633146107b85760405162461bcd60e51b815260206004820181905260248201527f4f776e61626c653a2063616c6c6572206973206e6f7420746865206f776e6572604482015260640161052e565b600080546001600160a01b038381166001600160a01b0319831681178455604051919092169283917f8be0079c531659141344cd1fd0a4f28419497f9722a3daafe3b4186f6b6457e09190a35050565b828054828255906000526020600020908101928215610efb579160200282015b82811115610efb57825182546001600160a01b0319166001600160a01b03909116178255602090920191600190910190610ec6565b50610f07929150610f0b565b5090565b5b80821115610f075760008155600101610f0c565b80356001600160a01b0381168114610f3757600080fd5b919050565b600080600060608486031215610f5157600080fd5b610f5a84610f20565b9250610f6860208501610f20565b9150604084013590509250925092565b600060208284031215610f8a57600080fd5b5035919050565b6000815180845260005b81811015610fb757602081850181015186830182015201610f9b565b506000602082860101526020601f19601f83011685010191505092915050565b848152836020820152608060408201526000610ff66080830185610f91565b905060018060a01b038316606083015295945050505050565b6020808252825182820181905260009190848201906040850190845b818110156110505783516001600160a01b03168352928401929184019160010161102b565b50909695505050505050565b60008060006040848603121561107157600080fd5b83359250602084013567ffffffffffffffff8082111561109057600080fd5b818601915086601f8301126110a457600080fd5b8135818111156110b357600080fd5b8760208260051b85010111156110c857600080fd5b6020830194508093505050509250925092565b6000602082840312156110ed57600080fd5b813563ffffffff8116811461110157600080fd5b9392505050565b6000806040838503121561111b57600080fd5b61112483610f20565b946020939093013593505050565b60006020828403121561114457600080fd5b61110182610f20565b60008060006040848603121561116257600080fd5b833567ffffffffffffffff8082111561117a57600080fd5b818601915086601f83011261118e57600080fd5b81358181111561119d57600080fd5b8760208285010111156111af57600080fd5b6020928301955093506111c59186019050610f20565b90509250925092565b60006020808301818452808551808352604092508286019150828160051b8701018488016000805b8481101561129e57603f198a8503018652825160a081518652898201518a87015288820151818a88015261122c82880182610f91565b6060848101516001600160a01b03908116918a0191909152608094850151898303958a01959095528451808352948d0194879450918d0192505b8184101561128857845181168352938c019360019390930192918c0191611266565b5050978a019795505050918701916001016111f6565b50919998505050505050505050565b600181811c908216806112c157607f821691505b6020821081036112e157634e487b7160e01b600052602260045260246000fd5b50919050565b634e487b7160e01b600052603260045260246000fd5b60008261131a57634e487b7160e01b600052601260045260246000fd5b500690565b634e487b7160e01b600052601160045260246000fd5b6000600182016113475761134761131f565b5060010190565b838152604060208201819052810182905260006001600160fb1b0383111561137557600080fd5b8260051b8085606085013791909101606001949350505050565b6000602082840312156113a157600080fd5b5051919050565b6000602082840312156113ba57600080fd5b8151801515811461110157600080fd5b634e487b7160e01b600052604160045260246000fd5b601f82111561142a57600081815260208120601f850160051c810160208610156114075750805b601f850160051c820191505b8181101561142657828155600101611413565b5050505b505050565b815167ffffffffffffffff811115611449576114496113ca565b61145d8161145784546112ad565b846113e0565b602080601f831160018114611492576000841561147a5750858301515b600019600386901b1c1916600185901b178555611426565b600085815260208120601f198616915b828110156114c1578886015182559484019460019091019084016114a2565b50858210156114df5787850151600019600388901b60f8161c191681555b5050505050600190811b01905550565b818103818111156115025761150261131f565b92915050565b6040815282604082015282846060830137600060608483018101919091526001600160a01b03929092166020820152601f909201601f19169091010191905056fea26469706673582212202fbd40067874bf7ef0ef93ffef43f0c9c390ac907fc36d9212b0360358f94a3664736f6c634300081300330000000000000000000000005a562294808c5470873831ff456e86369dc32dcb",
        "nonce": "0x6e",
        "accessList": []
      },
      "additionalContracts": [],
      "isFixedGasLimit": false
    },
    {
      "hash": "0x91d49dfd0dfe9835d752544645111db40decd16bc9544fe31cf313da57a32d58",
      "transactionType": "CALL",
      "contractName": "contracts/FundingRound.sol:FundingRound",
      "contractAddress": "0x12357F6A9040Aa35d918bc2075fD724CA9Eac367",
      "function": "createProject(string,address)",
      "arguments": [
        "\"Project 1\"",
        "0x5a562294808c5470873831ff456e86369dc32dcB"
      ],
      "transaction": {
        "type": "0x02",
        "from": "0x5a562294808c5470873831ff456e86369dc32dcb",
        "to": "0x12357f6a9040aa35d918bc2075fd724ca9eac367",
        "gas": "0x28ed3",
        "value": "0x0",
        "data": "0xc65579ad00000000000000000000000000000000000000000000000000000000000000400000000000000000000000005a562294808c5470873831ff456e86369dc32dcb000000000000000000000000000000000000000000000000000000000000000950726f6a65637420310000000000000000000000000000000000000000000000",
        "nonce": "0x6f",
        "accessList": []
      },
      "additionalContracts": [],
      "isFixedGasLimit": false
    },
    {
      "hash": "0xa15a1d63458125ce555f94d36cbee96f36080329dc88090b871cab661c2c193d",
      "transactionType": "CALL",
      "contractName": "contracts/FundingRound.sol:FundingRound",
      "contractAddress": "0x12357F6A9040Aa35d918bc2075fD724CA9Eac367",
      "function": "createProject(string,address)",
      "arguments": [
        "\"Project 2\"",
        "0x5a562294808c5470873831ff456e86369dc32dcB"
      ],
      "transaction": {
        "type": "0x02",
        "from": "0x5a562294808c5470873831ff456e86369dc32dcb",
        "to": "0x12357f6a9040aa35d918bc2075fd724ca9eac367",
        "gas": "0x263a6",
        "value": "0x0",
        "data": "0xc65579ad00000000000000000000000000000000000000000000000000000000000000400000000000000000000000005a562294808c5470873831ff456e86369dc32dcb000000000000000000000000000000000000000000000000000000000000000950726f6a65637420320000000000000000000000000000000000000000000000",
        "nonce": "0x70",
        "accessList": []
      },
      "additionalContracts": [],
      "isFixedGasLimit": false
    },
    {
      "hash": "0x478b7cc79198f8d51e860388100b672f92260ab565398c41e86932dd0a51c658",
      "transactionType": "CALL",
      "contractName": "contracts/FundingRound.sol:FundingRound",
      "contractAddress": "0x12357F6A9040Aa35d918bc2075fD724CA9Eac367",
      "function": "createProject(string,address)",
      "arguments": [
        "\"Project 3\"",
        "0x5a562294808c5470873831ff456e86369dc32dcB"
      ],
      "transaction": {
        "type": "0x02",
        "from": "0x5a562294808c5470873831ff456e86369dc32dcb",
        "to": "0x12357f6a9040aa35d918bc2075fd724ca9eac367",
        "gas": "0x263a6",
        "value": "0x0",
        "data": "0xc65579ad00000000000000000000000000000000000000000000000000000000000000400000000000000000000000005a562294808c5470873831ff456e86369dc32dcb000000000000000000000000000000000000000000000000000000000000000950726f6a65637420330000000000000000000000000000000000000000000000",
        "nonce": "0x71",
        "accessList": []
      },
      "additionalContracts": [],
      "isFixedGasLimit": false
    }
  ],
  "receipts": [
    {
      "transactionHash": "0x085e49249b9123780225ba9f2b2d1df14630af35d93c1b9654470e38a8f20820",
      "transactionIndex": "0x1",
      "blockHash": "0x15fc118034672c6e49e519689c2f0a158a639827bd96b3b3109beb3ad9173149",
      "blockNumber": "0x7a0baf",
      "from": "0x5a562294808c5470873831ff456e86369dc32dcB",
      "to": null,
      "cumulativeGasUsed": "0x1417c2",
      "gasUsed": "0x136c83",
      "contractAddress": "0x12357F6A9040Aa35d918bc2075fD724CA9Eac367",
      "logs": [
        {
          "address": "0x12357F6A9040Aa35d918bc2075fD724CA9Eac367",
          "topics": [
            "0x8be0079c531659141344cd1fd0a4f28419497f9722a3daafe3b4186f6b6457e0",
            "0x0000000000000000000000000000000000000000000000000000000000000000",
            "0x0000000000000000000000005a562294808c5470873831ff456e86369dc32dcb"
          ],
          "data": "0x",
          "blockHash": "0x15fc118034672c6e49e519689c2f0a158a639827bd96b3b3109beb3ad9173149",
          "blockNumber": "0x7a0baf",
          "transactionHash": "0x085e49249b9123780225ba9f2b2d1df14630af35d93c1b9654470e38a8f20820",
          "transactionIndex": "0x1",
          "logIndex": "0x0",
          "removed": false
        },
        {
          "address": "0x12357F6A9040Aa35d918bc2075fD724CA9Eac367",
          "topics": [
            "0x8be0079c531659141344cd1fd0a4f28419497f9722a3daafe3b4186f6b6457e0",
            "0x0000000000000000000000005a562294808c5470873831ff456e86369dc32dcb",
            "0x0000000000000000000000005a562294808c5470873831ff456e86369dc32dcb"
          ],
          "data": "0x",
          "blockHash": "0x15fc118034672c6e49e519689c2f0a158a639827bd96b3b3109beb3ad9173149",
          "blockNumber": "0x7a0baf",
          "transactionHash": "0x085e49249b9123780225ba9f2b2d1df14630af35d93c1b9654470e38a8f20820",
          "transactionIndex": "0x1",
          "logIndex": "0x1",
          "removed": false
        }
      ],
      "status": "0x1",
      "logsBloom": "0x00000000000000000000000000000000000000000000000000800000000000000000000000000000000000000000000000000000000000000000000000000000000000000000000000000000000000000001000000000004000000000220000000000000020000000000000000000800000000000000000000000000000000400000000000000000000000000000000000000000000000000000000000000000000000000000000000000000002000000000000000000000000000000000000040000000000000000000000000000000000000000000008000000000000020000000000000000000000000000000000000000000000000000000000000000000",
      "type": "0x2",
      "effectiveGasPrice": "0xb2d0749d"
    },
    {
      "transactionHash": "0x91d49dfd0dfe9835d752544645111db40decd16bc9544fe31cf313da57a32d58",
      "transactionIndex": "0x2",
      "blockHash": "0x15fc118034672c6e49e519689c2f0a158a639827bd96b3b3109beb3ad9173149",
      "blockNumber": "0x7a0baf",
      "from": "0x5a562294808c5470873831ff456e86369dc32dcB",
      "to": "0x12357F6A9040Aa35d918bc2075fD724CA9Eac367",
      "cumulativeGasUsed": "0x15f1d7",
      "gasUsed": "0x1da15",
      "contractAddress": null,
      "logs": [
        {
          "address": "0x12357F6A9040Aa35d918bc2075fD724CA9Eac367",
          "topics": [
            "0xc0c54fed07481d0998e1446b2c13759606bf4f26b78306307413ac4c4309aa82",
            "0x0000000000000000000000000000000000000000000000000000000000000000"
          ],
          "data": "0x00000000000000000000000000000000000000000000000000000000000000400000000000000000000000005a562294808c5470873831ff456e86369dc32dcb000000000000000000000000000000000000000000000000000000000000000950726f6a65637420310000000000000000000000000000000000000000000000",
          "blockHash": "0x15fc118034672c6e49e519689c2f0a158a639827bd96b3b3109beb3ad9173149",
          "blockNumber": "0x7a0baf",
          "transactionHash": "0x91d49dfd0dfe9835d752544645111db40decd16bc9544fe31cf313da57a32d58",
          "transactionIndex": "0x2",
          "logIndex": "0x2",
          "removed": false
        }
      ],
      "status": "0x1",
      "logsBloom": "0x00000000000000000000000000000000000000000000000000000000000000000000000000000000000000000000000000000000000000000000000000000000000000000000000000001000000000000000000000000000008000000000000000000000020000000000000000000800000000000000000000000000000000000000000000000000000000000000000000000000000000000000000000000000008000000000000000000000002000000000000000000000000000000000000040000000000000000000000000000000000000000000008000000000000020000000000000000000000000000000000000000000000000000000000000000000",
      "type": "0x2",
      "effectiveGasPrice": "0xb2d0749d"
    },
    {
      "transactionHash": "0xa15a1d63458125ce555f94d36cbee96f36080329dc88090b871cab661c2c193d",
      "transactionIndex": "0x3",
      "blockHash": "0x15fc118034672c6e49e519689c2f0a158a639827bd96b3b3109beb3ad9173149",
      "blockNumber": "0x7a0baf",
      "from": "0x5a562294808c5470873831ff456e86369dc32dcB",
      "to": "0x12357F6A9040Aa35d918bc2075fD724CA9Eac367",
      "cumulativeGasUsed": "0x179410",
      "gasUsed": "0x1a239",
      "contractAddress": null,
      "logs": [
        {
          "address": "0x12357F6A9040Aa35d918bc2075fD724CA9Eac367",
          "topics": [
            "0xc0c54fed07481d0998e1446b2c13759606bf4f26b78306307413ac4c4309aa82",
            "0x0000000000000000000000000000000000000000000000000000000000000001"
          ],
          "data": "0x00000000000000000000000000000000000000000000000000000000000000400000000000000000000000005a562294808c5470873831ff456e86369dc32dcb000000000000000000000000000000000000000000000000000000000000000950726f6a65637420320000000000000000000000000000000000000000000000",
          "blockHash": "0x15fc118034672c6e49e519689c2f0a158a639827bd96b3b3109beb3ad9173149",
          "blockNumber": "0x7a0baf",
          "transactionHash": "0xa15a1d63458125ce555f94d36cbee96f36080329dc88090b871cab661c2c193d",
          "transactionIndex": "0x3",
          "logIndex": "0x3",
          "removed": false
        }
      ],
      "status": "0x1",
      "logsBloom": "0x00000000000000000000000000000000000000000000000000000000000000000000000000000000000000000000000000000000000000000000000000040000000000000000000000001000000000000000000000040000008000000000000000000000000000000000000000000000000000000000000000000000000000000000000000000000000000000000000000000000000000000000000000000000008000000000000000000000002000000000000000000000000000000000000040000000000000000000000000000000000000000000008000000000000040000000000000000000000000000000000000000000000000000000000000000000",
      "type": "0x2",
      "effectiveGasPrice": "0xb2d0749d"
    },
    {
      "transactionHash": "0x478b7cc79198f8d51e860388100b672f92260ab565398c41e86932dd0a51c658",
      "transactionIndex": "0x4",
      "blockHash": "0x15fc118034672c6e49e519689c2f0a158a639827bd96b3b3109beb3ad9173149",
      "blockNumber": "0x7a0baf",
      "from": "0x5a562294808c5470873831ff456e86369dc32dcB",
      "to": "0x12357F6A9040Aa35d918bc2075fD724CA9Eac367",
      "cumulativeGasUsed": "0x193649",
      "gasUsed": "0x1a239",
      "contractAddress": null,
      "logs": [
        {
          "address": "0x12357F6A9040Aa35d918bc2075fD724CA9Eac367",
          "topics": [
            "0xc0c54fed07481d0998e1446b2c13759606bf4f26b78306307413ac4c4309aa82",
            "0x0000000000000000000000000000000000000000000000000000000000000002"
          ],
          "data": "0x00000000000000000000000000000000000000000000000000000000000000400000000000000000000000005a562294808c5470873831ff456e86369dc32dcb000000000000000000000000000000000000000000000000000000000000000950726f6a65637420330000000000000000000000000000000000000000000000",
          "blockHash": "0x15fc118034672c6e49e519689c2f0a158a639827bd96b3b3109beb3ad9173149",
          "blockNumber": "0x7a0baf",
          "transactionHash": "0x478b7cc79198f8d51e860388100b672f92260ab565398c41e86932dd0a51c658",
          "transactionIndex": "0x4",
          "logIndex": "0x4",
          "removed": false
        }
      ],
      "status": "0x1",
      "logsBloom": "0x04000000000000000000000000000000000000000000000000000000000000000000000000000000000000000000000000000000000000000000000000000000000000000000000000001000000000000000000000000000008000000000000000000000000000000000000000000000000000000000000000000000000000000000000000000000000000000000000000000000000000000000000000000000008000000000000000000100002000000000000000000000000000000000000040000000000000000000000000000000000000000000008000000000000000000000000000000000000000000000000000000000008000000000000000000000",
      "type": "0x2",
      "effectiveGasPrice": "0xb2d0749d"
    }
  ],
  "libraries": [],
  "pending": [],
  "returns": {},
  "timestamp": 1711765059,
  "chain": 84532,
  "multi": false,
  "commit": "255cc20"
}