{
  "transactions": [
    {
      "hash": "0x9e5dcc6c94e3baf11c32ab6801768963a5ed07621d278109ad67ea47cc598274",
      "transactionType": "CREATE",
      "contractName": "FundingRound",
      "contractAddress": "0x9391007194Cf61fc53dd62524eC5c4Fe93844fD6",
      "function": null,
      "arguments": [
        "0x5a562294808c5470873831ff456e86369dc32dcB"
      ],
      "transaction": {
        "type": "0x02",
        "from": "0x5a562294808c5470873831ff456e86369dc32dcb",
        "gas": "0x285c85",
        "value": "0x0",
        "data": "0x608060405260006002553480156200001657600080fd5b5060405162002430380380620024308339810160408190526200003991620000a6565b620000443362000056565b6200004f8162000056565b50620000d8565b600080546001600160a01b038381166001600160a01b0319831681178455604051919092169283917f8be0079c531659141344cd1fd0a4f28419497f9722a3daafe3b4186f6b6457e09190a35050565b600060208284031215620000b957600080fd5b81516001600160a01b0381168114620000d157600080fd5b9392505050565b61234880620000e86000396000f3fe6080604052600436106100fe5760003560e01c80638da5cb5b11610095578063c0bc417811610064578063c0bc4178146102ac578063c65579ad146102cc578063d05c572c146102ec578063dcc601281461032c578063f2fde38b1461034e57600080fd5b80638da5cb5b146102265780639e93e57714610244578063a35ff0761461026c578063b49521c41461028c57600080fd5b8063715018a6116100d1578063715018a6146101b657806372add818146101cb578063769d2475146101f35780637b1837de1461020657600080fd5b80630f95c1bd14610103578063107046bd1461012557806323b311a91461015e57806338ba461414610196575b600080fd5b34801561010f57600080fd5b5061012361011e366004611a21565b61036e565b005b34801561013157600080fd5b50610145610140366004611a5d565b6103cd565b6040516101559493929190611abc565b60405180910390f35b34801561016a57600080fd5b5060055461017e906001600160a01b031681565b6040516001600160a01b039091168152602001610155565b3480156101a257600080fd5b506101236101b1366004611af4565b61049e565b3480156101c257600080fd5b50610123610917565b3480156101d757600080fd5b5061017e73f46d5fa9bfc964e8d06846c8739aec69bc06344d81565b610123610201366004611b73565b61092b565b34801561021257600080fd5b50610123610221366004611ba0565b6109f2565b34801561023257600080fd5b506000546001600160a01b031661017e565b34801561025057600080fd5b5061017e73bd7aaa2984c0a887e93c66baae222749883763d381565b34801561027857600080fd5b50610123610287366004611bca565b610aea565b34801561029857600080fd5b506101236102a7366004611bca565b610b14565b3480156102b857600080fd5b5061017e6102c7366004611a5d565b610be7565b3480156102d857600080fd5b506101236102e7366004611be5565b610c11565b3480156102f857600080fd5b5061031c610307366004611bca565b60036020526000908152604090205460ff1681565b6040519015158152602001610155565b34801561033857600080fd5b50610341610d99565b6040516101559190611ca1565b34801561035a57600080fd5b50610123610369366004611bca565b610f68565b610379600382611db2565b6000036103905761038a8383610fe1565b50505050565b61039b600382611db2565b6001036103ac5761038a8383611255565b6103b7600382611db2565b6002036103c85761038a83836114d6565b505050565b600181815481106103dd57600080fd5b906000526020600020906006020160009150905080600001549080600101549080600201805461040c90611dc6565b80601f016020809104026020016040519081016040528092919081815260200182805461043890611dc6565b80156104855780601f1061045a57610100808354040283529160200191610485565b820191906000526020600020905b81548152906001019060200180831161046857829003601f168201915b505050600390930154919250506001600160a01b031684565b6005546001600160a01b031633146104fd5760405162461bcd60e51b815260206004820152601f60248201527f6f6e6c792053656372657420476174657761792063616e2066756c66696c6c0060448201526064015b60405180910390fd5b60006001805480602002602001604051908101604052809291908181526020016000905b828210156106c357838290600052602060002090600602016040518060c0016040529081600082015481526020016001820154815260200160028201805461056890611dc6565b80601f016020809104026020016040519081016040528092919081815260200182805461059490611dc6565b80156105e15780601f106105b6576101008083540402835291602001916105e1565b820191906000526020600020905b8154815290600101906020018083116105c457829003601f168201915b505050918352505060038201546001600160a01b0316602080830191909152600483018054604080518285028101850182528281529401939283018282801561065357602002820191906000526020600020905b81546001600160a01b03168152600190910190602001808311610635575b50505050508152602001600582018054806020026020016040519081016040528092919081815260200182805480156106ab57602002820191906000526020600020905b815481526020019060010190808311610697575b50505050508152505081526020019060010190610521565b50505050905060005b6004548110156108d5576000600482815481106106eb576106eb611e00565b6000918252602090912001546040516370a0823160e01b81523060048201526001600160a01b03909116906370a0823190602401602060405180830381865afa15801561073c573d6000803e3d6000fd5b505050506040513d601f19601f820116820180604052508101906107609190611e16565b905080156108c4576000835186868581811061077e5761077e611e00565b9050602002013561078f9190611db2565b9050600181815481106107a4576107a4611e00565b9060005260206000209060060201600401600484815481106107c8576107c8611e00565b6000918252602080832090910154835460018181018655948452919092200180546001600160a01b0319166001600160a01b0390921691909117905580548290811061081657610816611e00565b60009182526020808320600560069093020191909101805460018181018355918452919092200183905580546108c291908390811061085757610857611e00565b906000526020600020906006020160030160009054906101000a90046001600160a01b03166004858154811061088f5761088f611e00565b6000918252602090912001546001600160a01b03168888878181106108b6576108b6611e00565b9050602002013561036e565b505b506108ce81611e45565b90506106cc565b507fe7ecfe6928c754cbd5282724cb865166ac3a20565babb867db6047900d72372384848460405161090993929190611e5e565b60405180910390a150505050565b61091f6117fe565b6109296000611858565b565b6005546001546040516361bf619360e01b815263ffffffff918216600482015290831660248201526001600160a01b039091169060009082906361bf619390349060440160206040518083038185885af115801561098d573d6000803e3d6000fd5b50505050506040513d601f19601f820116820180604052508101906109b29190611e16565b90507f9ef465a513d3907321fbc06db999b22497925c91f2cc1ee6b0a52b141d3263b2816040516109e591815260200190565b60405180910390a1505050565b6001600160a01b03821660009081526003602052604090205460ff16610a2b5760405163fa50582160e01b815260040160405180910390fd5b6040516323b872dd60e01b8152336004820152306024820152604481018290526001600160a01b038316906323b872dd906064016020604051808303816000875af1158015610a7e573d6000803e3d6000fd5b505050506040513d601f19601f82011682018060405250810190610aa29190611e9f565b50816001600160a01b03167f5af8184bef8e4b45eb9f6ed7734d04da38ced226495548f46e0c8ff8d7d9a52482604051610ade91815260200190565b60405180910390a25050565b610af26117fe565b600580546001600160a01b0319166001600160a01b0392909216919091179055565b6001600160a01b03811660009081526003602052604090205460ff1615610b4d5760405162a679fd60e01b815260040160405180910390fd5b6004805460018082019092557f8a35acfbc15ff81a39ae7d344fd709f28e8600b4aa8c65c6b64bfe7fe36bd19b0180546001600160a01b0319166001600160a01b038416908117909155600081815260036020908152604091829020805460ff1916909417909355519081527f2587a8aae32052dc3489cced391a070648eedad0b8670a76ce103ee5df587e4a910160405180910390a150565b60048181548110610bf757600080fd5b6000918252602090912001546001600160a01b0316905081565b60016040518060c0016040528060026000815480929190610c3190611e45565b9190505581526020016000815260200185858080601f01602080910402602001604051908101604052809392919081815260200183838082843760009201829052509385525050506001600160a01b0385166020808401919091526040805183815280830182528185015280518381528083018252606090940193909352845460018082018755958352918190208451600690930201918255830151938101939093558101519091906002820190610ce99082611f25565b5060608201516003820180546001600160a01b0319166001600160a01b0390921691909117905560808201518051610d2b9160048401916020909101906118a8565b5060a08201518051610d4791600584019160209091019061190d565b5050506001600254610d599190611fe5565b7fc0c54fed07481d0998e1446b2c13759606bf4f26b78306307413ac4c4309aa82848484604051610d8c93929190611ffe565b60405180910390a2505050565b60606001805480602002602001604051908101604052809291908181526020016000905b82821015610f5f57838290600052602060002090600602016040518060c00160405290816000820154815260200160018201548152602001600282018054610e0490611dc6565b80601f0160208091040260200160405190810160405280929190818152602001828054610e3090611dc6565b8015610e7d5780601f10610e5257610100808354040283529160200191610e7d565b820191906000526020600020905b815481529060010190602001808311610e6057829003601f168201915b505050918352505060038201546001600160a01b03166020808301919091526004830180546040805182850281018501825282815294019392830182828015610eef57602002820191906000526020600020905b81546001600160a01b03168152600190910190602001808311610ed1575b5050505050815260200160058201805480602002602001604051908101604052809291908181526020018280548015610f4757602002820191906000526020600020905b815481526020019060010190808311610f33575b50505050508152505081526020019060010190610dbd565b50505050905090565b610f706117fe565b6001600160a01b038116610fd55760405162461bcd60e51b815260206004820152602660248201527f4f776e61626c653a206e6577206f776e657220697320746865207a65726f206160448201526564647265737360d01b60648201526084016104f4565b610fde81611858565b50565b6040516370a0823160e01b815230600482015260009081906001600160a01b038416906370a0823190602401602060405180830381865afa15801561102a573d6000803e3d6000fd5b505050506040513d601f19601f8201168201806040525081019061104e9190611e16565b60405163095ea7b360e01b815273bd7aaa2984c0a887e93c66baae222749883763d36004820152602481018290529091506001600160a01b0384169063095ea7b3906044016020604051808303816000875af11580156110b2573d6000803e3d6000fd5b505050506040513d601f19601f820116820180604052508101906110d69190611e9f565b50611139604080516101008101825260008082526020808301829052828401829052606083018290526080830182905260a083018290528351808501855282815280820183905260c084015283518085019094528184528301529060e082015290565b3081526001600160a01b038581166020808401919091526001600160801b038416604080850191909152918616606084015260016080840152815180830183526014815260509181019190915260c083015251632ac59f3360e21b815273bd7aaa2984c0a887e93c66baae222749883763d39063ab167ccc906111c090849060040161203f565b6020604051808303816000875af11580156111df573d6000803e3d6000fd5b505050506040513d601f19601f820116820180604052508101906112039190611e16565b604080518481526001600160a01b038881166020830152929550918616917f8a6e6d2f30b3ecf08f8659167a601ef4236b6810b5e93ef2ba1138662343a42d91015b60405180910390a2505092915050565b6040516370a0823160e01b815230600482015260009081906001600160a01b038416906370a0823190602401602060405180830381865afa15801561129e573d6000803e3d6000fd5b505050506040513d601f19601f820116820180604052508101906112c29190611e16565b60405163095ea7b360e01b815273f46d5fa9bfc964e8d06846c8739aec69bc06344d6004820152602481018290529091506001600160a01b0384169063095ea7b3906044016020604051808303816000875af1158015611326573d6000803e3d6000fd5b505050506040513d601f19601f8201168201806040525081019061134a9190611e9f565b50611353611948565b3081526001600160a01b0385811660608301526001600160801b0383166080830152841660a08201526001602082018190526040805182815280820190915290816020015b604080516060810182526000808252602080830182905292820152825260001990920191018161139857505060e08201908152604080516060810182526001600160801b03851681526753444835ec58000060208201526014918101919091529051805160009061140b5761140b611e00565b6020908102919091010152604051630b42222b60e11b815273f46d5fa9bfc964e8d06846c8739aec69bc06344d9063168444569061144d908490600401612155565b6020604051808303816000875af115801561146c573d6000803e3d6000fd5b505050506040513d601f19601f820116820180604052508101906114909190611e16565b604080518481526001600160a01b038881166020830152929550918616917f3d9d2ef7ae14794c94822da9407acbc434e44b8b2d1a74bd1b9323ebc063a57f9101611245565b6040516370a0823160e01b815230600482015260009081906001600160a01b038416906370a0823190602401602060405180830381865afa15801561151f573d6000803e3d6000fd5b505050506040513d601f19601f820116820180604052508101906115439190611e16565b60405163095ea7b360e01b815273f46d5fa9bfc964e8d06846c8739aec69bc06344d6004820152602481018290529091506001600160a01b0384169063095ea7b3906044016020604051808303816000875af11580156115a7573d6000803e3d6000fd5b505050506040513d601f19601f820116820180604052508101906115cb9190611e9f565b506115d461199d565b3081526001600160a01b0385811660808301526001600160801b03831660a0830152841660c08201526001604082015261160f42601e612208565b64ffffffffff1660208201526040805160028082526060820190925290816020015b604080516060810182526000808252602080830182905292820152825260001990920191018161163157505061010082015260408051606081019091528061167a60028561221b565b6001600160801b03168152670de0b6b3a764000060208201526040016116a142600a612208565b64ffffffffff168152508161010001516000815181106116c3576116c3611e00565b60200260200101819052506040518060600160405280836001600160801b031681526020016116f7672b93855d12ba000090565b67ffffffffffffffff168152602001611711426078612208565b64ffffffffff1681525081610100015160018151811061173357611733611e00565b602090810291909101015260405163619e69af60e11b815273f46d5fa9bfc964e8d06846c8739aec69bc06344d9063c33cd35e90611775908490600401612241565b6020604051808303816000875af1158015611794573d6000803e3d6000fd5b505050506040513d601f19601f820116820180604052508101906117b89190611e16565b604080518481526001600160a01b038881166020830152929550918616917fbe09a44412e01f231b75059b9d4b1d1ef6b9abe3db88e6afe794e0bf5fb49f8b9101611245565b6000546001600160a01b031633146109295760405162461bcd60e51b815260206004820181905260248201527f4f776e61626c653a2063616c6c6572206973206e6f7420746865206f776e657260448201526064016104f4565b600080546001600160a01b038381166001600160a01b0319831681178455604051919092169283917f8be0079c531659141344cd1fd0a4f28419497f9722a3daafe3b4186f6b6457e09190a35050565b8280548282559060005260206000209081019282156118fd579160200282015b828111156118fd57825182546001600160a01b0319166001600160a01b039091161782556020909201916001909101906118c8565b506119099291506119f0565b5090565b8280548282559060005260206000209081019282156118fd579160200282015b828111156118fd57825182559160200191906001019061192d565b604080516101008101825260008082526020808301829052828401829052606083018290526080830182905260a0830182905283518085019094528184528301529060c08201905b8152602001606081525090565b604080516101208101825260008082526020808301829052828401829052606083018290526080830182905260a0830182905260c0830182905283518085019094528184528301529060e0820190611990565b5b8082111561190957600081556001016119f1565b80356001600160a01b0381168114611a1c57600080fd5b919050565b600080600060608486031215611a3657600080fd5b611a3f84611a05565b9250611a4d60208501611a05565b9150604084013590509250925092565b600060208284031215611a6f57600080fd5b5035919050565b6000815180845260005b81811015611a9c57602081850181015186830182015201611a80565b506000602082860101526020601f19601f83011685010191505092915050565b848152836020820152608060408201526000611adb6080830185611a76565b905060018060a01b038316606083015295945050505050565b600080600060408486031215611b0957600080fd5b83359250602084013567ffffffffffffffff80821115611b2857600080fd5b818601915086601f830112611b3c57600080fd5b813581811115611b4b57600080fd5b8760208260051b8501011115611b6057600080fd5b6020830194508093505050509250925092565b600060208284031215611b8557600080fd5b813563ffffffff81168114611b9957600080fd5b9392505050565b60008060408385031215611bb357600080fd5b611bbc83611a05565b946020939093013593505050565b600060208284031215611bdc57600080fd5b611b9982611a05565b600080600060408486031215611bfa57600080fd5b833567ffffffffffffffff80821115611c1257600080fd5b818601915086601f830112611c2657600080fd5b813581811115611c3557600080fd5b876020828501011115611c4757600080fd5b602092830195509350611c5d9186019050611a05565b90509250925092565b600081518084526020808501945080840160005b83811015611c9657815187529582019590820190600101611c7a565b509495945050505050565b60006020808301818452808551808352604092508286019150828160051b8701018488016000805b84811015611d8d57603f198a8503018652825160c081518652898201518a87015288820151818a880152611cff82880182611a76565b6060848101516001600160a01b03908116918a01919091526080808601518a8403918b01919091528051808452908e019450918d01925086915b80831015611d5b57845182168452938d0193928d019260019290920191611d39565b50505060a09283015187820388850152929150611d788184611c66565b988b0198965050509288019250600101611cc9565b50919998505050505050505050565b634e487b7160e01b600052601260045260246000fd5b600082611dc157611dc1611d9c565b500690565b600181811c90821680611dda57607f821691505b602082108103611dfa57634e487b7160e01b600052602260045260246000fd5b50919050565b634e487b7160e01b600052603260045260246000fd5b600060208284031215611e2857600080fd5b5051919050565b634e487b7160e01b600052601160045260246000fd5b600060018201611e5757611e57611e2f565b5060010190565b838152604060208201819052810182905260006001600160fb1b03831115611e8557600080fd5b8260051b8085606085013791909101606001949350505050565b600060208284031215611eb157600080fd5b81518015158114611b9957600080fd5b634e487b7160e01b600052604160045260246000fd5b601f8211156103c857600081815260208120601f850160051c81016020861015611efe5750805b601f850160051c820191505b81811015611f1d57828155600101611f0a565b505050505050565b815167ffffffffffffffff811115611f3f57611f3f611ec1565b611f5381611f4d8454611dc6565b84611ed7565b602080601f831160018114611f885760008415611f705750858301515b600019600386901b1c1916600185901b178555611f1d565b600085815260208120601f198616915b82811015611fb757888601518255948401946001909101908401611f98565b5085821015611fd55787850151600019600388901b60f8161c191681555b5050505050600190811b01905550565b81810381811115611ff857611ff8611e2f565b92915050565b6040815282604082015282846060830137600060608483018101919091526001600160a01b03929092166020820152601f909201601f191690910101919050565b81516001600160a01b0390811682526020808401518216908301526040808401516001600160801b031690830152606080840151909116908201526080808301516101408301916120939084018215159052565b5060a08301516120a760a084018215159052565b5060c08301516120ce60c0840182805164ffffffffff908116835260209182015116910152565b5060e0929092015180516001600160a01b0316610100830152602001516101209091015290565b600081518084526020808501945080840160005b83811015611c9657815180516001600160801b031688528381015167ffffffffffffffff168489015260409081015164ffffffffff169088015260609096019590820190600101612109565b602080825282516001600160a01b031682820152820151151560408083019190915282015180151560608301526000905060608301516001600160a01b03811660808401525060808301516001600160801b03811660a08401525060a08301516001600160a01b03811660c08401525060c083015180516001600160a01b031660e084015260208101516101008401525060e0830151610120838101526122006101408401826120f5565b949350505050565b80820180821115611ff857611ff8611e2f565b60006001600160801b038084168061223557612235611d9c565b92169190910492915050565b6020815261225b6020820183516001600160a01b03169052565b60006020830151612275604084018264ffffffffff169052565b506040830151801515606084015250606083015180151560808401525060808301516001600160a01b03811660a08401525060a08301516001600160801b03811660c08401525060c08301516001600160a01b03811660e08401525060e08301516101006122f88185018380516001600160a01b03168252602090810151910152565b8401516101408481015290506122006101608401826120f556fea2646970667358221220de7d18f2d137cbc6ba099a43d42c5a2a8eadb8ca1bfbf7be2b82ae55d2196d4864736f6c634300081300330000000000000000000000005a562294808c5470873831ff456e86369dc32dcb",
        "nonce": "0x119",
        "accessList": []
      },
      "additionalContracts": [],
      "isFixedGasLimit": false
    },
    {
      "hash": "0x56b713448ca58b6bdbb587d10db989b9ce9d41eb50fead261137a85ddee02e01",
      "transactionType": "CALL",
      "contractName": "contracts/FundingRound.sol:FundingRound",
      "contractAddress": "0x9391007194Cf61fc53dd62524eC5c4Fe93844fD6",
      "function": "createProject(string,address)",
      "arguments": [
        "\"Project 1\"",
        "0x5a562294808c5470873831ff456e86369dc32dcB"
      ],
      "transaction": {
        "type": "0x02",
        "from": "0x5a562294808c5470873831ff456e86369dc32dcb",
        "to": "0x9391007194cf61fc53dd62524ec5c4fe93844fd6",
        "gas": "0x29c41",
        "value": "0x0",
        "data": "0xc65579ad00000000000000000000000000000000000000000000000000000000000000400000000000000000000000005a562294808c5470873831ff456e86369dc32dcb000000000000000000000000000000000000000000000000000000000000000950726f6a65637420310000000000000000000000000000000000000000000000",
        "nonce": "0x11a",
        "accessList": []
      },
      "additionalContracts": [],
      "isFixedGasLimit": false
    },
    {
      "hash": "0x7aad19724220f78fee7c0e9ba9cb3445dfce515015952a2c021714db652c5457",
      "transactionType": "CALL",
      "contractName": "contracts/FundingRound.sol:FundingRound",
      "contractAddress": "0x9391007194Cf61fc53dd62524eC5c4Fe93844fD6",
      "function": "createProject(string,address)",
      "arguments": [
        "\"Project 2\"",
        "0x5a562294808c5470873831ff456e86369dc32dcB"
      ],
      "transaction": {
        "type": "0x02",
        "from": "0x5a562294808c5470873831ff456e86369dc32dcb",
        "to": "0x9391007194cf61fc53dd62524ec5c4fe93844fd6",
        "gas": "0x271df",
        "value": "0x0",
        "data": "0xc65579ad00000000000000000000000000000000000000000000000000000000000000400000000000000000000000005a562294808c5470873831ff456e86369dc32dcb000000000000000000000000000000000000000000000000000000000000000950726f6a65637420320000000000000000000000000000000000000000000000",
        "nonce": "0x11b",
        "accessList": []
      },
      "additionalContracts": [],
      "isFixedGasLimit": false
    },
    {
      "hash": "0xcbe76ea9d2ea892b581d100fdf2300a01371953274ecc6665d3717b16d59cc54",
      "transactionType": "CALL",
      "contractName": "contracts/FundingRound.sol:FundingRound",
      "contractAddress": "0x9391007194Cf61fc53dd62524eC5c4Fe93844fD6",
      "function": "createProject(string,address)",
      "arguments": [
        "\"Project 3\"",
        "0x5a562294808c5470873831ff456e86369dc32dcB"
      ],
      "transaction": {
        "type": "0x02",
        "from": "0x5a562294808c5470873831ff456e86369dc32dcb",
        "to": "0x9391007194cf61fc53dd62524ec5c4fe93844fd6",
        "gas": "0x271df",
        "value": "0x0",
        "data": "0xc65579ad00000000000000000000000000000000000000000000000000000000000000400000000000000000000000005a562294808c5470873831ff456e86369dc32dcb000000000000000000000000000000000000000000000000000000000000000950726f6a65637420330000000000000000000000000000000000000000000000",
        "nonce": "0x11c",
        "accessList": []
      },
      "additionalContracts": [],
      "isFixedGasLimit": false
    },
    {
      "hash": "0xbc7780953ccd39bd9b6de87562284475c92ff553e7be906525374c2accb23cd4",
      "transactionType": "CALL",
      "contractName": "contracts/FundingRound.sol:FundingRound",
      "contractAddress": "0x9391007194Cf61fc53dd62524eC5c4Fe93844fD6",
      "function": "setShitCoin(address)",
      "arguments": [
        "0x07B8FF46Cc6e366Fe12e4d3D47825000d9948eCD"
      ],
      "transaction": {
        "type": "0x02",
        "from": "0x5a562294808c5470873831ff456e86369dc32dcb",
        "to": "0x9391007194cf61fc53dd62524ec5c4fe93844fd6",
        "gas": "0x1e34c",
        "value": "0x0",
        "data": "0xb49521c400000000000000000000000007b8ff46cc6e366fe12e4d3d47825000d9948ecd",
        "nonce": "0x11d",
        "accessList": []
      },
      "additionalContracts": [],
      "isFixedGasLimit": false
    },
    {
      "hash": "0x59e7c4f60e9145b54519f9fec1c0b127887c4a7c86fc03494bf0b3c3dd15456c",
      "transactionType": "CALL",
      "contractName": "contracts/FundingRound.sol:FundingRound",
      "contractAddress": "0x9391007194Cf61fc53dd62524eC5c4Fe93844fD6",
      "function": "setShitCoin(address)",
      "arguments": [
        "0x030996ec60617Fe293B4A51c97bE0973C9ECDF33"
      ],
      "transaction": {
        "type": "0x02",
        "from": "0x5a562294808c5470873831ff456e86369dc32dcb",
        "to": "0x9391007194cf61fc53dd62524ec5c4fe93844fd6",
        "gas": "0x1871a",
        "value": "0x0",
        "data": "0xb49521c4000000000000000000000000030996ec60617fe293b4a51c97be0973c9ecdf33",
        "nonce": "0x11e",
        "accessList": []
      },
      "additionalContracts": [],
      "isFixedGasLimit": false
    },
    {
      "hash": "0xf3073dd621e87107a3eddd8be62fc32cb427e1b3d4208ca73b9ad81960cc7eb0",
      "transactionType": "CALL",
      "contractName": "contracts/FundingRound.sol:FundingRound",
      "contractAddress": "0x9391007194Cf61fc53dd62524eC5c4Fe93844fD6",
      "function": "setGatewayAddress(address)",
      "arguments": [
        "0xfaFCfceC4e29e9b4ECc8C0a3f7df1011580EEEf2"
      ],
      "transaction": {
        "type": "0x02",
        "from": "0x5a562294808c5470873831ff456e86369dc32dcb",
        "to": "0x9391007194cf61fc53dd62524ec5c4fe93844fd6",
        "gas": "0xf8ea",
        "value": "0x0",
        "data": "0xa35ff076000000000000000000000000fafcfcec4e29e9b4ecc8c0a3f7df1011580eeef2",
        "nonce": "0x11f",
        "accessList": []
      },
      "additionalContracts": [],
      "isFixedGasLimit": false
    }
  ],
  "receipts": [
    {
      "transactionHash": "0x9e5dcc6c94e3baf11c32ab6801768963a5ed07621d278109ad67ea47cc598274",
      "transactionIndex": "0x1",
      "blockHash": "0x9dc4a293b0470bf597e29fecd44a672551bb138494a9dc2be28fbfbdcc674384",
      "blockNumber": "0x7a2020",
      "from": "0x5a562294808c5470873831ff456e86369dc32dcB",
      "to": null,
      "cumulativeGasUsed": "0x1fb9b5",
      "gasUsed": "0x1f0e5e",
      "contractAddress": "0x9391007194Cf61fc53dd62524eC5c4Fe93844fD6",
      "logs": [
        {
          "address": "0x9391007194Cf61fc53dd62524eC5c4Fe93844fD6",
          "topics": [
            "0x8be0079c531659141344cd1fd0a4f28419497f9722a3daafe3b4186f6b6457e0",
            "0x0000000000000000000000000000000000000000000000000000000000000000",
            "0x0000000000000000000000005a562294808c5470873831ff456e86369dc32dcb"
          ],
          "data": "0x",
          "blockHash": "0x9dc4a293b0470bf597e29fecd44a672551bb138494a9dc2be28fbfbdcc674384",
          "blockNumber": "0x7a2020",
          "transactionHash": "0x9e5dcc6c94e3baf11c32ab6801768963a5ed07621d278109ad67ea47cc598274",
          "transactionIndex": "0x1",
          "logIndex": "0x0",
          "removed": false
        },
        {
          "address": "0x9391007194Cf61fc53dd62524eC5c4Fe93844fD6",
          "topics": [
            "0x8be0079c531659141344cd1fd0a4f28419497f9722a3daafe3b4186f6b6457e0",
            "0x0000000000000000000000005a562294808c5470873831ff456e86369dc32dcb",
            "0x0000000000000000000000005a562294808c5470873831ff456e86369dc32dcb"
          ],
          "data": "0x",
          "blockHash": "0x9dc4a293b0470bf597e29fecd44a672551bb138494a9dc2be28fbfbdcc674384",
          "blockNumber": "0x7a2020",
          "transactionHash": "0x9e5dcc6c94e3baf11c32ab6801768963a5ed07621d278109ad67ea47cc598274",
          "transactionIndex": "0x1",
          "logIndex": "0x1",
          "removed": false
        }
      ],
      "status": "0x1",
      "logsBloom": "0x00000000000000000000000000000000000000000000000000800000000000000000000000000000000000000000000000000000000000000000000000000000000000000000000000000000000000000001000000000004000000000220000000000000020000000000000000000800000000000000000000000000001000400000000000000000000000000000000000000000000000000000000000000000000002000000000000000000000000000000000000000000000000000000000000000000000000000000000000000000000000000000000000000000000020000000000000000000000000000000000000000000000040000000000000000000",
      "type": "0x2",
      "effectiveGasPrice": "0xb2d06fdc"
    },
    {
      "transactionHash": "0x56b713448ca58b6bdbb587d10db989b9ce9d41eb50fead261137a85ddee02e01",
      "transactionIndex": "0x2",
      "blockHash": "0x9dc4a293b0470bf597e29fecd44a672551bb138494a9dc2be28fbfbdcc674384",
      "blockNumber": "0x7a2020",
      "from": "0x5a562294808c5470873831ff456e86369dc32dcB",
      "to": "0x9391007194Cf61fc53dd62524eC5c4Fe93844fD6",
      "cumulativeGasUsed": "0x219d84",
      "gasUsed": "0x1e3cf",
      "contractAddress": null,
      "logs": [
        {
          "address": "0x9391007194Cf61fc53dd62524eC5c4Fe93844fD6",
          "topics": [
            "0xc0c54fed07481d0998e1446b2c13759606bf4f26b78306307413ac4c4309aa82",
            "0x0000000000000000000000000000000000000000000000000000000000000000"
          ],
          "data": "0x00000000000000000000000000000000000000000000000000000000000000400000000000000000000000005a562294808c5470873831ff456e86369dc32dcb000000000000000000000000000000000000000000000000000000000000000950726f6a65637420310000000000000000000000000000000000000000000000",
          "blockHash": "0x9dc4a293b0470bf597e29fecd44a672551bb138494a9dc2be28fbfbdcc674384",
          "blockNumber": "0x7a2020",
          "transactionHash": "0x56b713448ca58b6bdbb587d10db989b9ce9d41eb50fead261137a85ddee02e01",
          "transactionIndex": "0x2",
          "logIndex": "0x2",
          "removed": false
        }
      ],
      "status": "0x1",
      "logsBloom": "0x00000000000000000000000000000000000000000000000000000000000000000000000000000000000000000000000000000000000000000000000000000000000000000000000000001000000000000000000000000000008000000000000000000000020000000000000000000800000000000000000000000000001000000000000000000000000000000000000000000000000000000000000000000000008002000000000000000000000000000000000000000000000000000000000000000000000000000000000000000000000000000000000000000000000020000000000000000000000000000000000000000000000040000000000000000000",
      "type": "0x2",
      "effectiveGasPrice": "0xb2d06fdc"
    },
    {
      "transactionHash": "0x7aad19724220f78fee7c0e9ba9cb3445dfce515015952a2c021714db652c5457",
      "transactionIndex": "0x3",
      "blockHash": "0x9dc4a293b0470bf597e29fecd44a672551bb138494a9dc2be28fbfbdcc674384",
      "blockNumber": "0x7a2020",
      "from": "0x5a562294808c5470873831ff456e86369dc32dcB",
      "to": "0x9391007194Cf61fc53dd62524eC5c4Fe93844fD6",
      "cumulativeGasUsed": "0x234977",
      "gasUsed": "0x1abf3",
      "contractAddress": null,
      "logs": [
        {
          "address": "0x9391007194Cf61fc53dd62524eC5c4Fe93844fD6",
          "topics": [
            "0xc0c54fed07481d0998e1446b2c13759606bf4f26b78306307413ac4c4309aa82",
            "0x0000000000000000000000000000000000000000000000000000000000000001"
          ],
          "data": "0x00000000000000000000000000000000000000000000000000000000000000400000000000000000000000005a562294808c5470873831ff456e86369dc32dcb000000000000000000000000000000000000000000000000000000000000000950726f6a65637420320000000000000000000000000000000000000000000000",
          "blockHash": "0x9dc4a293b0470bf597e29fecd44a672551bb138494a9dc2be28fbfbdcc674384",
          "blockNumber": "0x7a2020",
          "transactionHash": "0x7aad19724220f78fee7c0e9ba9cb3445dfce515015952a2c021714db652c5457",
          "transactionIndex": "0x3",
          "logIndex": "0x3",
          "removed": false
        }
      ],
      "status": "0x1",
      "logsBloom": "0x00000000000000000000000000000000000000000000000000000000000000000000000000000000000000000000000000000000000000000000000000040000000000000000000000001000000000000000000000040000008000000000000000000000000000000000000000000000000000000000000000000000001000000000000000000000000000000000000000000000000000000000000000000000008002000000000000000000000000000000000000000000000000000000000000000000000000000000000000000000000000000000000000000000000040000000000000000000000000000000000000000000000040000000000000000000",
      "type": "0x2",
      "effectiveGasPrice": "0xb2d06fdc"
    },
    {
      "transactionHash": "0xcbe76ea9d2ea892b581d100fdf2300a01371953274ecc6665d3717b16d59cc54",
      "transactionIndex": "0x4",
      "blockHash": "0x9dc4a293b0470bf597e29fecd44a672551bb138494a9dc2be28fbfbdcc674384",
      "blockNumber": "0x7a2020",
      "from": "0x5a562294808c5470873831ff456e86369dc32dcB",
      "to": "0x9391007194Cf61fc53dd62524eC5c4Fe93844fD6",
      "cumulativeGasUsed": "0x24f56a",
      "gasUsed": "0x1abf3",
      "contractAddress": null,
      "logs": [
        {
          "address": "0x9391007194Cf61fc53dd62524eC5c4Fe93844fD6",
          "topics": [
            "0xc0c54fed07481d0998e1446b2c13759606bf4f26b78306307413ac4c4309aa82",
            "0x0000000000000000000000000000000000000000000000000000000000000002"
          ],
          "data": "0x00000000000000000000000000000000000000000000000000000000000000400000000000000000000000005a562294808c5470873831ff456e86369dc32dcb000000000000000000000000000000000000000000000000000000000000000950726f6a65637420330000000000000000000000000000000000000000000000",
          "blockHash": "0x9dc4a293b0470bf597e29fecd44a672551bb138494a9dc2be28fbfbdcc674384",
          "blockNumber": "0x7a2020",
          "transactionHash": "0xcbe76ea9d2ea892b581d100fdf2300a01371953274ecc6665d3717b16d59cc54",
          "transactionIndex": "0x4",
          "logIndex": "0x4",
          "removed": false
        }
      ],
      "status": "0x1",
      "logsBloom": "0x04000000000000000000000000000000000000000000000000000000000000000000000000000000000000000000000000000000000000000000000000000000000000000000000000001000000000000000000000000000008000000000000000000000000000000000000000000000000000000000000000000000001000000000000000000000000000000000000000000000000000000000000000000000008002000000000000000100000000000000000000000000000000000000000000000000000000000000000000000000000000000000000000000000000000000000000000000000000000000000000000000000008040000000000000000000",
      "type": "0x2",
      "effectiveGasPrice": "0xb2d06fdc"
    },
    {
      "transactionHash": "0xbc7780953ccd39bd9b6de87562284475c92ff553e7be906525374c2accb23cd4",
      "transactionIndex": "0x5",
      "blockHash": "0x9dc4a293b0470bf597e29fecd44a672551bb138494a9dc2be28fbfbdcc674384",
      "blockNumber": "0x7a2020",
      "from": "0x5a562294808c5470873831ff456e86369dc32dcB",
      "to": "0x9391007194Cf61fc53dd62524eC5c4Fe93844fD6",
      "cumulativeGasUsed": "0x265351",
      "gasUsed": "0x15de7",
      "contractAddress": null,
      "logs": [
        {
          "address": "0x9391007194Cf61fc53dd62524eC5c4Fe93844fD6",
          "topics": [
            "0x2587a8aae32052dc3489cced391a070648eedad0b8670a76ce103ee5df587e4a"
          ],
          "data": "0x00000000000000000000000007b8ff46cc6e366fe12e4d3d47825000d9948ecd",
          "blockHash": "0x9dc4a293b0470bf597e29fecd44a672551bb138494a9dc2be28fbfbdcc674384",
          "blockNumber": "0x7a2020",
          "transactionHash": "0xbc7780953ccd39bd9b6de87562284475c92ff553e7be906525374c2accb23cd4",
          "transactionIndex": "0x5",
          "logIndex": "0x5",
          "removed": false
        }
      ],
      "status": "0x1",
      "logsBloom": "0x00000000000000000000000000000000000000000000000000000000000000000000000000000000000000000000000000000000000000000000000000000000000000000000000000000001000000000000000000000000000000000000000000000000000000000000000000000000000000000000000000000200001100000000000000000000000000000000000000000000000000000000000000000000000002000000000000000000000000000000000000000000000000000000000000000000000000000000000000000000000000000000000000000000000000000000000000000000000000000000000000000000000040000000000000000000",
      "type": "0x2",
      "effectiveGasPrice": "0xb2d06fdc"
    },
    {
      "transactionHash": "0x59e7c4f60e9145b54519f9fec1c0b127887c4a7c86fc03494bf0b3c3dd15456c",
      "transactionIndex": "0x6",
      "blockHash": "0x9dc4a293b0470bf597e29fecd44a672551bb138494a9dc2be28fbfbdcc674384",
      "blockNumber": "0x7a2020",
      "from": "0x5a562294808c5470873831ff456e86369dc32dcB",
      "to": "0x9391007194Cf61fc53dd62524eC5c4Fe93844fD6",
      "cumulativeGasUsed": "0x276e78",
      "gasUsed": "0x11b27",
      "contractAddress": null,
      "logs": [
        {
          "address": "0x9391007194Cf61fc53dd62524eC5c4Fe93844fD6",
          "topics": [
            "0x2587a8aae32052dc3489cced391a070648eedad0b8670a76ce103ee5df587e4a"
          ],
          "data": "0x000000000000000000000000030996ec60617fe293b4a51c97be0973c9ecdf33",
          "blockHash": "0x9dc4a293b0470bf597e29fecd44a672551bb138494a9dc2be28fbfbdcc674384",
          "blockNumber": "0x7a2020",
          "transactionHash": "0x59e7c4f60e9145b54519f9fec1c0b127887c4a7c86fc03494bf0b3c3dd15456c",
          "transactionIndex": "0x6",
          "logIndex": "0x6",
          "removed": false
        }
      ],
      "status": "0x1",
      "logsBloom": "0x00000000000000000000000000000000000000000000000000000000000000000000000000000000000000000000000000000000000000000000000000000000000000000000000000000001000000000000000000000000000000000000000000000000000000000000000000000000000000000000000000000200001100000000000000000000000000000000000000000000000000000000000000000000000002000000000000000000000000000000000000000000000000000000000000000000000000000000000000000000000000000000000000000000000000000000000000000000000000000000000000000000000040000000000000000000",
      "type": "0x2",
      "effectiveGasPrice": "0xb2d06fdc"
    },
    {
      "transactionHash": "0xf3073dd621e87107a3eddd8be62fc32cb427e1b3d4208ca73b9ad81960cc7eb0",
      "transactionIndex": "0x7",
      "blockHash": "0x9dc4a293b0470bf597e29fecd44a672551bb138494a9dc2be28fbfbdcc674384",
      "blockNumber": "0x7a2020",
      "from": "0x5a562294808c5470873831ff456e86369dc32dcB",
      "to": "0x9391007194Cf61fc53dd62524eC5c4Fe93844fD6",
      "cumulativeGasUsed": "0x2822ae",
      "gasUsed": "0xb436",
      "contractAddress": null,
      "logs": [],
      "status": "0x1",
      "logsBloom": "0x00000000000000000000000000000000000000000000000000000000000000000000000000000000000000000000000000000000000000000000000000000000000000000000000000000000000000000000000000000000000000000000000000000000000000000000000000000000000000000000000000000000000000000000000000000000000000000000000000000000000000000000000000000000000000000000000000000000000000000000000000000000000000000000000000000000000000000000000000000000000000000000000000000000000000000000000000000000000000000000000000000000000000000000000000000000",
      "type": "0x2",
      "effectiveGasPrice": "0xb2d06fdc"
    }
  ],
  "libraries": [],
  "pending": [],
  "returns": {},
  "timestamp": 1711775525,
  "chain": 84532,
  "multi": false,
  "commit": "255cc20"
}