{
  "transactions": [
    {
      "hash": "0x395677f63bcb04706f531f16fe3c7d47be367e19506b73afe3ede5eb3ca0712c",
      "transactionType": "CREATE",
      "contractName": "FundingRound",
      "contractAddress": "0x65d87b5C995d60C5eadc86810F897842035efa04",
      "function": null,
      "arguments": [
        "0x5a562294808c5470873831ff456e86369dc32dcB"
      ],
      "transaction": {
        "type": "0x02",
        "from": "0x5a562294808c5470873831ff456e86369dc32dcb",
        "gas": "0x28193c",
        "value": "0x0",
        "data": "0x608060405260006002553480156200001657600080fd5b50604051620023f2380380620023f28339810160408190526200003991620000a6565b620000443362000056565b6200004f8162000056565b50620000d8565b600080546001600160a01b038381166001600160a01b0319831681178455604051919092169283917f8be0079c531659141344cd1fd0a4f28419497f9722a3daafe3b4186f6b6457e09190a35050565b600060208284031215620000b957600080fd5b81516001600160a01b0381168114620000d157600080fd5b9392505050565b61230a80620000e86000396000f3fe6080604052600436106100fe5760003560e01c80638da5cb5b11610095578063c0bc417811610064578063c0bc4178146102ac578063c65579ad146102cc578063d05c572c146102ec578063dcc601281461032c578063f2fde38b1461034e57600080fd5b80638da5cb5b146102265780639e93e57714610244578063a35ff0761461026c578063b49521c41461028c57600080fd5b8063715018a6116100d1578063715018a6146101b657806372add818146101cb578063769d2475146101f35780637b1837de1461020657600080fd5b80630f95c1bd14610103578063107046bd1461012557806323b311a91461015e57806338ba461414610196575b600080fd5b34801561010f57600080fd5b5061012361011e3660046119e3565b61036e565b005b34801561013157600080fd5b50610145610140366004611a1f565b6103cd565b6040516101559493929190611a7e565b60405180910390f35b34801561016a57600080fd5b5060055461017e906001600160a01b031681565b6040516001600160a01b039091168152602001610155565b3480156101a257600080fd5b506101236101b1366004611ab6565b61049e565b3480156101c257600080fd5b506101236108d2565b3480156101d757600080fd5b5061017e73f46d5fa9bfc964e8d06846c8739aec69bc06344d81565b610123610201366004611b35565b6108e6565b34801561021257600080fd5b50610123610221366004611b62565b6109af565b34801561023257600080fd5b506000546001600160a01b031661017e565b34801561025057600080fd5b5061017e73bd7aaa2984c0a887e93c66baae222749883763d381565b34801561027857600080fd5b50610123610287366004611b8c565b610aa7565b34801561029857600080fd5b506101236102a7366004611b8c565b610ad1565b3480156102b857600080fd5b5061017e6102c7366004611a1f565b610ba4565b3480156102d857600080fd5b506101236102e7366004611ba7565b610bce565b3480156102f857600080fd5b5061031c610307366004611b8c565b60036020526000908152604090205460ff1681565b6040519015158152602001610155565b34801561033857600080fd5b50610341610d56565b6040516101559190611c63565b34801561035a57600080fd5b50610123610369366004611b8c565b610f25565b610379600382611d74565b6000036103905761038a8383610fa3565b50505050565b61039b600382611d74565b6001036103ac5761038a8383611217565b6103b7600382611d74565b6002036103c85761038a8383611498565b505050565b600181815481106103dd57600080fd5b906000526020600020906006020160009150905080600001549080600101549080600201805461040c90611d88565b80601f016020809104026020016040519081016040528092919081815260200182805461043890611d88565b80156104855780601f1061045a57610100808354040283529160200191610485565b820191906000526020600020905b81548152906001019060200180831161046857829003601f168201915b505050600390930154919250506001600160a01b031684565b60006001805480602002602001604051908101604052809291908181526020016000905b8282101561066457838290600052602060002090600602016040518060c0016040529081600082015481526020016001820154815260200160028201805461050990611d88565b80601f016020809104026020016040519081016040528092919081815260200182805461053590611d88565b80156105825780601f1061055757610100808354040283529160200191610582565b820191906000526020600020905b81548152906001019060200180831161056557829003601f168201915b505050918352505060038201546001600160a01b031660208083019190915260048301805460408051828502810185018252828152940193928301828280156105f457602002820191906000526020600020905b81546001600160a01b031681526001909101906020018083116105d6575b505050505081526020016005820180548060200260200160405190810160405280929190818152602001828054801561064c57602002820191906000526020600020905b815481526020019060010190808311610638575b505050505081525050815260200190600101906104c2565b50506004549293506000928511915061067f90505782610683565b6004545b905060005b8181101561088f576000600482815481106106a5576106a5611dc2565b6000918252602090912001546040516370a0823160e01b81523060048201526001600160a01b03909116906370a0823190602401602060405180830381865afa1580156106f6573d6000803e3d6000fd5b505050506040513d601f19601f8201168201806040525081019061071a9190611dd8565b9050801561087e576000845187878581811061073857610738611dc2565b905060200201356107499190611d74565b90506001818154811061075e5761075e611dc2565b90600052602060002090600602016004016004848154811061078257610782611dc2565b6000918252602080832090910154835460018181018655948452919092200180546001600160a01b0319166001600160a01b039092169190911790558054829081106107d0576107d0611dc2565b600091825260208083206005600690930201919091018054600181810183559184529190922001839055805461087c91908390811061081157610811611dc2565b906000526020600020906006020160030160009054906101000a90046001600160a01b03166004858154811061084957610849611dc2565b6000918252602090912001546001600160a01b031689898781811061087057610870611dc2565b9050602002013561036e565b505b5061088881611e07565b9050610688565b507fe7ecfe6928c754cbd5282724cb865166ac3a20565babb867db6047900d7237238585856040516108c393929190611e20565b60405180910390a15050505050565b6108da6117c0565b6108e4600061181a565b565b600554600480546040516361bf619360e01b815263ffffffff91821692810192909252831660248201526001600160a01b039091169060009082906361bf619390349060440160206040518083038185885af115801561094a573d6000803e3d6000fd5b50505050506040513d601f19601f8201168201806040525081019061096f9190611dd8565b90507f9ef465a513d3907321fbc06db999b22497925c91f2cc1ee6b0a52b141d3263b2816040516109a291815260200190565b60405180910390a1505050565b6001600160a01b03821660009081526003602052604090205460ff166109e85760405163fa50582160e01b815260040160405180910390fd5b6040516323b872dd60e01b8152336004820152306024820152604481018290526001600160a01b038316906323b872dd906064016020604051808303816000875af1158015610a3b573d6000803e3d6000fd5b505050506040513d601f19601f82011682018060405250810190610a5f9190611e61565b50816001600160a01b03167f5af8184bef8e4b45eb9f6ed7734d04da38ced226495548f46e0c8ff8d7d9a52482604051610a9b91815260200190565b60405180910390a25050565b610aaf6117c0565b600580546001600160a01b0319166001600160a01b0392909216919091179055565b6001600160a01b03811660009081526003602052604090205460ff1615610b0a5760405162a679fd60e01b815260040160405180910390fd5b6004805460018082019092557f8a35acfbc15ff81a39ae7d344fd709f28e8600b4aa8c65c6b64bfe7fe36bd19b0180546001600160a01b0319166001600160a01b038416908117909155600081815260036020908152604091829020805460ff1916909417909355519081527f2587a8aae32052dc3489cced391a070648eedad0b8670a76ce103ee5df587e4a910160405180910390a150565b60048181548110610bb457600080fd5b6000918252602090912001546001600160a01b0316905081565b60016040518060c0016040528060026000815480929190610bee90611e07565b9190505581526020016000815260200185858080601f01602080910402602001604051908101604052809392919081815260200183838082843760009201829052509385525050506001600160a01b0385166020808401919091526040805183815280830182528185015280518381528083018252606090940193909352845460018082018755958352918190208451600690930201918255830151938101939093558101519091906002820190610ca69082611ee7565b5060608201516003820180546001600160a01b0319166001600160a01b0390921691909117905560808201518051610ce891600484019160209091019061186a565b5060a08201518051610d049160058401916020909101906118cf565b5050506001600254610d169190611fa7565b7fc0c54fed07481d0998e1446b2c13759606bf4f26b78306307413ac4c4309aa82848484604051610d4993929190611fc0565b60405180910390a2505050565b60606001805480602002602001604051908101604052809291908181526020016000905b82821015610f1c57838290600052602060002090600602016040518060c00160405290816000820154815260200160018201548152602001600282018054610dc190611d88565b80601f0160208091040260200160405190810160405280929190818152602001828054610ded90611d88565b8015610e3a5780601f10610e0f57610100808354040283529160200191610e3a565b820191906000526020600020905b815481529060010190602001808311610e1d57829003601f168201915b505050918352505060038201546001600160a01b03166020808301919091526004830180546040805182850281018501825282815294019392830182828015610eac57602002820191906000526020600020905b81546001600160a01b03168152600190910190602001808311610e8e575b5050505050815260200160058201805480602002602001604051908101604052809291908181526020018280548015610f0457602002820191906000526020600020905b815481526020019060010190808311610ef0575b50505050508152505081526020019060010190610d7a565b50505050905090565b610f2d6117c0565b6001600160a01b038116610f975760405162461bcd60e51b815260206004820152602660248201527f4f776e61626c653a206e6577206f776e657220697320746865207a65726f206160448201526564647265737360d01b60648201526084015b60405180910390fd5b610fa08161181a565b50565b6040516370a0823160e01b815230600482015260009081906001600160a01b038416906370a0823190602401602060405180830381865afa158015610fec573d6000803e3d6000fd5b505050506040513d601f19601f820116820180604052508101906110109190611dd8565b60405163095ea7b360e01b815273bd7aaa2984c0a887e93c66baae222749883763d36004820152602481018290529091506001600160a01b0384169063095ea7b3906044016020604051808303816000875af1158015611074573d6000803e3d6000fd5b505050506040513d601f19601f820116820180604052508101906110989190611e61565b506110fb604080516101008101825260008082526020808301829052828401829052606083018290526080830182905260a083018290528351808501855282815280820183905260c084015283518085019094528184528301529060e082015290565b3081526001600160a01b038581166020808401919091526001600160801b038416604080850191909152918616606084015260016080840152815180830183526014815260509181019190915260c083015251632ac59f3360e21b815273bd7aaa2984c0a887e93c66baae222749883763d39063ab167ccc90611182908490600401612001565b6020604051808303816000875af11580156111a1573d6000803e3d6000fd5b505050506040513d601f19601f820116820180604052508101906111c59190611dd8565b604080518481526001600160a01b038881166020830152929550918616917f8a6e6d2f30b3ecf08f8659167a601ef4236b6810b5e93ef2ba1138662343a42d91015b60405180910390a2505092915050565b6040516370a0823160e01b815230600482015260009081906001600160a01b038416906370a0823190602401602060405180830381865afa158015611260573d6000803e3d6000fd5b505050506040513d601f19601f820116820180604052508101906112849190611dd8565b60405163095ea7b360e01b815273f46d5fa9bfc964e8d06846c8739aec69bc06344d6004820152602481018290529091506001600160a01b0384169063095ea7b3906044016020604051808303816000875af11580156112e8573d6000803e3d6000fd5b505050506040513d601f19601f8201168201806040525081019061130c9190611e61565b5061131561190a565b3081526001600160a01b0385811660608301526001600160801b0383166080830152841660a08201526001602082018190526040805182815280820190915290816020015b604080516060810182526000808252602080830182905292820152825260001990920191018161135a57505060e08201908152604080516060810182526001600160801b03851681526753444835ec5800006020820152601491810191909152905180516000906113cd576113cd611dc2565b6020908102919091010152604051630b42222b60e11b815273f46d5fa9bfc964e8d06846c8739aec69bc06344d9063168444569061140f908490600401612117565b6020604051808303816000875af115801561142e573d6000803e3d6000fd5b505050506040513d601f19601f820116820180604052508101906114529190611dd8565b604080518481526001600160a01b038881166020830152929550918616917f3d9d2ef7ae14794c94822da9407acbc434e44b8b2d1a74bd1b9323ebc063a57f9101611207565b6040516370a0823160e01b815230600482015260009081906001600160a01b038416906370a0823190602401602060405180830381865afa1580156114e1573d6000803e3d6000fd5b505050506040513d601f19601f820116820180604052508101906115059190611dd8565b60405163095ea7b360e01b815273f46d5fa9bfc964e8d06846c8739aec69bc06344d6004820152602481018290529091506001600160a01b0384169063095ea7b3906044016020604051808303816000875af1158015611569573d6000803e3d6000fd5b505050506040513d601f19601f8201168201806040525081019061158d9190611e61565b5061159661195f565b3081526001600160a01b0385811660808301526001600160801b03831660a0830152841660c0820152600160408201526115d142601e6121ca565b64ffffffffff1660208201526040805160028082526060820190925290816020015b60408051606081018252600080825260208083018290529282015282526000199092019101816115f357505061010082015260408051606081019091528061163c6002856121dd565b6001600160801b03168152670de0b6b3a7640000602082015260400161166342600a6121ca565b64ffffffffff1681525081610100015160008151811061168557611685611dc2565b60200260200101819052506040518060600160405280836001600160801b031681526020016116b9672b93855d12ba000090565b67ffffffffffffffff1681526020016116d34260786121ca565b64ffffffffff168152508161010001516001815181106116f5576116f5611dc2565b602090810291909101015260405163619e69af60e11b815273f46d5fa9bfc964e8d06846c8739aec69bc06344d9063c33cd35e90611737908490600401612203565b6020604051808303816000875af1158015611756573d6000803e3d6000fd5b505050506040513d601f19601f8201168201806040525081019061177a9190611dd8565b604080518481526001600160a01b038881166020830152929550918616917fbe09a44412e01f231b75059b9d4b1d1ef6b9abe3db88e6afe794e0bf5fb49f8b9101611207565b6000546001600160a01b031633146108e45760405162461bcd60e51b815260206004820181905260248201527f4f776e61626c653a2063616c6c6572206973206e6f7420746865206f776e65726044820152606401610f8e565b600080546001600160a01b038381166001600160a01b0319831681178455604051919092169283917f8be0079c531659141344cd1fd0a4f28419497f9722a3daafe3b4186f6b6457e09190a35050565b8280548282559060005260206000209081019282156118bf579160200282015b828111156118bf57825182546001600160a01b0319166001600160a01b0390911617825560209092019160019091019061188a565b506118cb9291506119b2565b5090565b8280548282559060005260206000209081019282156118bf579160200282015b828111156118bf5782518255916020019190600101906118ef565b604080516101008101825260008082526020808301829052828401829052606083018290526080830182905260a0830182905283518085019094528184528301529060c08201905b8152602001606081525090565b604080516101208101825260008082526020808301829052828401829052606083018290526080830182905260a0830182905260c0830182905283518085019094528184528301529060e0820190611952565b5b808211156118cb57600081556001016119b3565b80356001600160a01b03811681146119de57600080fd5b919050565b6000806000606084860312156119f857600080fd5b611a01846119c7565b9250611a0f602085016119c7565b9150604084013590509250925092565b600060208284031215611a3157600080fd5b5035919050565b6000815180845260005b81811015611a5e57602081850181015186830182015201611a42565b506000602082860101526020601f19601f83011685010191505092915050565b848152836020820152608060408201526000611a9d6080830185611a38565b905060018060a01b038316606083015295945050505050565b600080600060408486031215611acb57600080fd5b83359250602084013567ffffffffffffffff80821115611aea57600080fd5b818601915086601f830112611afe57600080fd5b813581811115611b0d57600080fd5b8760208260051b8501011115611b2257600080fd5b6020830194508093505050509250925092565b600060208284031215611b4757600080fd5b813563ffffffff81168114611b5b57600080fd5b9392505050565b60008060408385031215611b7557600080fd5b611b7e836119c7565b946020939093013593505050565b600060208284031215611b9e57600080fd5b611b5b826119c7565b600080600060408486031215611bbc57600080fd5b833567ffffffffffffffff80821115611bd457600080fd5b818601915086601f830112611be857600080fd5b813581811115611bf757600080fd5b876020828501011115611c0957600080fd5b602092830195509350611c1f91860190506119c7565b90509250925092565b600081518084526020808501945080840160005b83811015611c5857815187529582019590820190600101611c3c565b509495945050505050565b60006020808301818452808551808352604092508286019150828160051b8701018488016000805b84811015611d4f57603f198a8503018652825160c081518652898201518a87015288820151818a880152611cc182880182611a38565b6060848101516001600160a01b03908116918a01919091526080808601518a8403918b01919091528051808452908e019450918d01925086915b80831015611d1d57845182168452938d0193928d019260019290920191611cfb565b50505060a09283015187820388850152929150611d3a8184611c28565b988b0198965050509288019250600101611c8b565b50919998505050505050505050565b634e487b7160e01b600052601260045260246000fd5b600082611d8357611d83611d5e565b500690565b600181811c90821680611d9c57607f821691505b602082108103611dbc57634e487b7160e01b600052602260045260246000fd5b50919050565b634e487b7160e01b600052603260045260246000fd5b600060208284031215611dea57600080fd5b5051919050565b634e487b7160e01b600052601160045260246000fd5b600060018201611e1957611e19611df1565b5060010190565b838152604060208201819052810182905260006001600160fb1b03831115611e4757600080fd5b8260051b8085606085013791909101606001949350505050565b600060208284031215611e7357600080fd5b81518015158114611b5b57600080fd5b634e487b7160e01b600052604160045260246000fd5b601f8211156103c857600081815260208120601f850160051c81016020861015611ec05750805b601f850160051c820191505b81811015611edf57828155600101611ecc565b505050505050565b815167ffffffffffffffff811115611f0157611f01611e83565b611f1581611f0f8454611d88565b84611e99565b602080601f831160018114611f4a5760008415611f325750858301515b600019600386901b1c1916600185901b178555611edf565b600085815260208120601f198616915b82811015611f7957888601518255948401946001909101908401611f5a565b5085821015611f975787850151600019600388901b60f8161c191681555b5050505050600190811b01905550565b81810381811115611fba57611fba611df1565b92915050565b6040815282604082015282846060830137600060608483018101919091526001600160a01b03929092166020820152601f909201601f191690910101919050565b81516001600160a01b0390811682526020808401518216908301526040808401516001600160801b031690830152606080840151909116908201526080808301516101408301916120559084018215159052565b5060a083015161206960a084018215159052565b5060c083015161209060c0840182805164ffffffffff908116835260209182015116910152565b5060e0929092015180516001600160a01b0316610100830152602001516101209091015290565b600081518084526020808501945080840160005b83811015611c5857815180516001600160801b031688528381015167ffffffffffffffff168489015260409081015164ffffffffff1690880152606090960195908201906001016120cb565b602080825282516001600160a01b031682820152820151151560408083019190915282015180151560608301526000905060608301516001600160a01b03811660808401525060808301516001600160801b03811660a08401525060a08301516001600160a01b03811660c08401525060c083015180516001600160a01b031660e084015260208101516101008401525060e0830151610120838101526121c26101408401826120b7565b949350505050565b80820180821115611fba57611fba611df1565b60006001600160801b03808416806121f7576121f7611d5e565b92169190910492915050565b6020815261221d6020820183516001600160a01b03169052565b60006020830151612237604084018264ffffffffff169052565b506040830151801515606084015250606083015180151560808401525060808301516001600160a01b03811660a08401525060a08301516001600160801b03811660c08401525060c08301516001600160a01b03811660e08401525060e08301516101006122ba8185018380516001600160a01b03168252602090810151910152565b8401516101408481015290506121c26101608401826120b756fea26469706673582212203d86890e50df2137447b53b1e70405d69f425796ff5e679644273e03373c3df964736f6c634300081300330000000000000000000000005a562294808c5470873831ff456e86369dc32dcb",
        "nonce": "0x15a",
        "accessList": []
      },
      "additionalContracts": [],
      "isFixedGasLimit": false
    },
    {
      "hash": "0x507aa9625ef8b5783437feb2ad8a3c0e7556e9707ba14505b97e58ddddced7be",
      "transactionType": "CALL",
      "contractName": "contracts/FundingRound.sol:FundingRound",
      "contractAddress": "0x65d87b5C995d60C5eadc86810F897842035efa04",
      "function": "createProject(string,address)",
      "arguments": [
        "\"Project 1\"",
        "0x5a562294808c5470873831ff456e86369dc32dcB"
      ],
      "transaction": {
        "type": "0x02",
        "from": "0x5a562294808c5470873831ff456e86369dc32dcb",
        "to": "0x65d87b5c995d60c5eadc86810f897842035efa04",
        "gas": "0x29c41",
        "value": "0x0",
        "data": "0xc65579ad00000000000000000000000000000000000000000000000000000000000000400000000000000000000000005a562294808c5470873831ff456e86369dc32dcb000000000000000000000000000000000000000000000000000000000000000950726f6a65637420310000000000000000000000000000000000000000000000",
        "nonce": "0x15b",
        "accessList": []
      },
      "additionalContracts": [],
      "isFixedGasLimit": false
    },
    {
      "hash": "0xdb13a70941e76ba6b78a16cf55c0d8ff5cb0178fd0e06d63b6fa21c63a615809",
      "transactionType": "CALL",
      "contractName": "contracts/FundingRound.sol:FundingRound",
      "contractAddress": "0x65d87b5C995d60C5eadc86810F897842035efa04",
      "function": "createProject(string,address)",
      "arguments": [
        "\"Project 2\"",
        "0x5a562294808c5470873831ff456e86369dc32dcB"
      ],
      "transaction": {
        "type": "0x02",
        "from": "0x5a562294808c5470873831ff456e86369dc32dcb",
        "to": "0x65d87b5c995d60c5eadc86810f897842035efa04",
        "gas": "0x271df",
        "value": "0x0",
        "data": "0xc65579ad00000000000000000000000000000000000000000000000000000000000000400000000000000000000000005a562294808c5470873831ff456e86369dc32dcb000000000000000000000000000000000000000000000000000000000000000950726f6a65637420320000000000000000000000000000000000000000000000",
        "nonce": "0x15c",
        "accessList": []
      },
      "additionalContracts": [],
      "isFixedGasLimit": false
    },
    {
      "hash": "0x67df8ab683ed42b65168dee7227e5ee18067ae010f447c9c58d007e2745d1f71",
      "transactionType": "CALL",
      "contractName": "contracts/FundingRound.sol:FundingRound",
      "contractAddress": "0x65d87b5C995d60C5eadc86810F897842035efa04",
      "function": "createProject(string,address)",
      "arguments": [
        "\"Project 3\"",
        "0x5a562294808c5470873831ff456e86369dc32dcB"
      ],
      "transaction": {
        "type": "0x02",
        "from": "0x5a562294808c5470873831ff456e86369dc32dcb",
        "to": "0x65d87b5c995d60c5eadc86810f897842035efa04",
        "gas": "0x271df",
        "value": "0x0",
        "data": "0xc65579ad00000000000000000000000000000000000000000000000000000000000000400000000000000000000000005a562294808c5470873831ff456e86369dc32dcb000000000000000000000000000000000000000000000000000000000000000950726f6a65637420330000000000000000000000000000000000000000000000",
        "nonce": "0x15d",
        "accessList": []
      },
      "additionalContracts": [],
      "isFixedGasLimit": false
    },
    {
      "hash": "0x743ae7d8b91581c516673b4382e91c5a9bab867a3c762faa31279f6f90f42f35",
      "transactionType": "CALL",
      "contractName": "contracts/FundingRound.sol:FundingRound",
      "contractAddress": "0x65d87b5C995d60C5eadc86810F897842035efa04",
      "function": "setShitCoin(address)",
      "arguments": [
        "0x07B8FF46Cc6e366Fe12e4d3D47825000d9948eCD"
      ],
      "transaction": {
        "type": "0x02",
        "from": "0x5a562294808c5470873831ff456e86369dc32dcb",
        "to": "0x65d87b5c995d60c5eadc86810f897842035efa04",
        "gas": "0x1e34c",
        "value": "0x0",
        "data": "0xb49521c400000000000000000000000007b8ff46cc6e366fe12e4d3d47825000d9948ecd",
        "nonce": "0x15e",
        "accessList": []
      },
      "additionalContracts": [],
      "isFixedGasLimit": false
    },
    {
      "hash": "0x63f8adf986805f1c4ab99fc0000c57c62ff46aa7c8c1155a340d6a807cf102a8",
      "transactionType": "CALL",
      "contractName": "contracts/FundingRound.sol:FundingRound",
      "contractAddress": "0x65d87b5C995d60C5eadc86810F897842035efa04",
      "function": "setShitCoin(address)",
      "arguments": [
        "0x030996ec60617Fe293B4A51c97bE0973C9ECDF33"
      ],
      "transaction": {
        "type": "0x02",
        "from": "0x5a562294808c5470873831ff456e86369dc32dcb",
        "to": "0x65d87b5c995d60c5eadc86810f897842035efa04",
        "gas": "0x1871a",
        "value": "0x0",
        "data": "0xb49521c4000000000000000000000000030996ec60617fe293b4a51c97be0973c9ecdf33",
        "nonce": "0x15f",
        "accessList": []
      },
      "additionalContracts": [],
      "isFixedGasLimit": false
    },
    {
      "hash": "0x1f91746a60b4937105e22cc65de07df759ce5fa2d2f84067a3e63a25301cbec6",
      "transactionType": "CALL",
      "contractName": "contracts/FundingRound.sol:FundingRound",
      "contractAddress": "0x65d87b5C995d60C5eadc86810F897842035efa04",
      "function": "setShitCoin(address)",
      "arguments": [
        "0x9080cFe04A99afeBF37EaA40441c4191B46c2cd1"
      ],
      "transaction": {
        "type": "0x02",
        "from": "0x5a562294808c5470873831ff456e86369dc32dcb",
        "to": "0x65d87b5c995d60c5eadc86810f897842035efa04",
        "gas": "0x1871a",
        "value": "0x0",
        "data": "0xb49521c40000000000000000000000009080cfe04a99afebf37eaa40441c4191b46c2cd1",
        "nonce": "0x160",
        "accessList": []
      },
      "additionalContracts": [],
      "isFixedGasLimit": false
    },
    {
      "hash": "0xab81d019df3ceaa8f5d3a3036412402a38c7e6c1a7b6468da6b00916ba0c4192",
      "transactionType": "CALL",
      "contractName": "contracts/FundingRound.sol:FundingRound",
      "contractAddress": "0x65d87b5C995d60C5eadc86810F897842035efa04",
      "function": "setShitCoin(address)",
      "arguments": [
        "0xf45b4dE5C02A7FD2cb137145fb52e7D6d5a9a32e"
      ],
      "transaction": {
        "type": "0x02",
        "from": "0x5a562294808c5470873831ff456e86369dc32dcb",
        "to": "0x65d87b5c995d60c5eadc86810f897842035efa04",
        "gas": "0x1871a",
        "value": "0x0",
        "data": "0xb49521c4000000000000000000000000f45b4de5c02a7fd2cb137145fb52e7d6d5a9a32e",
        "nonce": "0x161",
        "accessList": []
      },
      "additionalContracts": [],
      "isFixedGasLimit": false
    },
    {
      "hash": "0x6f01d911d555f4ffce4fbe07c4a805484be0fa4ca1b2b02ca93a00733eec50f1",
      "transactionType": "CALL",
      "contractName": "contracts/FundingRound.sol:FundingRound",
      "contractAddress": "0x65d87b5C995d60C5eadc86810F897842035efa04",
      "function": "setShitCoin(address)",
      "arguments": [
        "0xB77Ff06d00179F0811E9788B2cBA6A2b0011B165"
      ],
      "transaction": {
        "type": "0x02",
        "from": "0x5a562294808c5470873831ff456e86369dc32dcb",
        "to": "0x65d87b5c995d60c5eadc86810f897842035efa04",
        "gas": "0x186f8",
        "value": "0x0",
        "data": "0xb49521c4000000000000000000000000b77ff06d00179f0811e9788b2cba6a2b0011b165",
        "nonce": "0x162",
        "accessList": []
      },
      "additionalContracts": [],
      "isFixedGasLimit": false
    },
    {
      "hash": "0x32ba15d9a87a76677a8cbb26adfd6636acbac20aeea05c171edf3728de045e86",
      "transactionType": "CALL",
      "contractName": "contracts/FundingRound.sol:FundingRound",
      "contractAddress": "0x65d87b5C995d60C5eadc86810F897842035efa04",
      "function": "setGatewayAddress(address)",
      "arguments": [
        "0xfaFCfceC4e29e9b4ECc8C0a3f7df1011580EEEf2"
      ],
      "transaction": {
        "type": "0x02",
        "from": "0x5a562294808c5470873831ff456e86369dc32dcb",
        "to": "0x65d87b5c995d60c5eadc86810f897842035efa04",
        "gas": "0xf8ea",
        "value": "0x0",
        "data": "0xa35ff076000000000000000000000000fafcfcec4e29e9b4ecc8c0a3f7df1011580eeef2",
        "nonce": "0x163",
        "accessList": []
      },
      "additionalContracts": [],
      "isFixedGasLimit": false
    }
  ],
  "receipts": [
    {
      "transactionHash": "0x395677f63bcb04706f531f16fe3c7d47be367e19506b73afe3ede5eb3ca0712c",
      "transactionIndex": "0x1",
      "blockHash": "0x434cb8fcbf1a6e932e2edcb5188ab3da4b950d908d4097a7767819f291bb3188",
      "blockNumber": "0x7a2751",
      "from": "0x5a562294808c5470873831ff456e86369dc32dcB",
      "to": null,
      "cumulativeGasUsed": "0x1f85ef",
      "gasUsed": "0x1eda98",
      "contractAddress": "0x65d87b5C995d60C5eadc86810F897842035efa04",
      "logs": [
        {
          "address": "0x65d87b5C995d60C5eadc86810F897842035efa04",
          "topics": [
            "0x8be0079c531659141344cd1fd0a4f28419497f9722a3daafe3b4186f6b6457e0",
            "0x0000000000000000000000000000000000000000000000000000000000000000",
            "0x0000000000000000000000005a562294808c5470873831ff456e86369dc32dcb"
          ],
          "data": "0x",
          "blockHash": "0x434cb8fcbf1a6e932e2edcb5188ab3da4b950d908d4097a7767819f291bb3188",
          "blockNumber": "0x7a2751",
          "transactionHash": "0x395677f63bcb04706f531f16fe3c7d47be367e19506b73afe3ede5eb3ca0712c",
          "transactionIndex": "0x1",
          "logIndex": "0x0",
          "removed": false
        },
        {
          "address": "0x65d87b5C995d60C5eadc86810F897842035efa04",
          "topics": [
            "0x8be0079c531659141344cd1fd0a4f28419497f9722a3daafe3b4186f6b6457e0",
            "0x0000000000000000000000005a562294808c5470873831ff456e86369dc32dcb",
            "0x0000000000000000000000005a562294808c5470873831ff456e86369dc32dcb"
          ],
          "data": "0x",
          "blockHash": "0x434cb8fcbf1a6e932e2edcb5188ab3da4b950d908d4097a7767819f291bb3188",
          "blockNumber": "0x7a2751",
          "transactionHash": "0x395677f63bcb04706f531f16fe3c7d47be367e19506b73afe3ede5eb3ca0712c",
          "transactionIndex": "0x1",
          "logIndex": "0x1",
          "removed": false
        }
      ],
      "status": "0x1",
      "logsBloom": "0x00000000000000000000000000000000000000000000040000800000000000000000000000000000000000000000000000000000000000000000000000000000000000000000000000000000000000000001000000000004000000000220000000000000020000000000000000000800000000000000000000000000000000400000000000000000000000000000000000000000000000000000000000000000000000000000000200000000000000000000000000000000000000000000000000000200000000000000000000000000000000000000000000000000000020000000000000000000000000000000000000000000000000000000000000000000",
      "type": "0x2",
      "effectiveGasPrice": "0xb2d05fa4"
    },
    {
      "transactionHash": "0x507aa9625ef8b5783437feb2ad8a3c0e7556e9707ba14505b97e58ddddced7be",
      "transactionIndex": "0x2",
      "blockHash": "0x434cb8fcbf1a6e932e2edcb5188ab3da4b950d908d4097a7767819f291bb3188",
      "blockNumber": "0x7a2751",
      "from": "0x5a562294808c5470873831ff456e86369dc32dcB",
      "to": "0x65d87b5C995d60C5eadc86810F897842035efa04",
      "cumulativeGasUsed": "0x2169be",
      "gasUsed": "0x1e3cf",
      "contractAddress": null,
      "logs": [
        {
          "address": "0x65d87b5C995d60C5eadc86810F897842035efa04",
          "topics": [
            "0xc0c54fed07481d0998e1446b2c13759606bf4f26b78306307413ac4c4309aa82",
            "0x0000000000000000000000000000000000000000000000000000000000000000"
          ],
          "data": "0x00000000000000000000000000000000000000000000000000000000000000400000000000000000000000005a562294808c5470873831ff456e86369dc32dcb000000000000000000000000000000000000000000000000000000000000000950726f6a65637420310000000000000000000000000000000000000000000000",
          "blockHash": "0x434cb8fcbf1a6e932e2edcb5188ab3da4b950d908d4097a7767819f291bb3188",
          "blockNumber": "0x7a2751",
          "transactionHash": "0x507aa9625ef8b5783437feb2ad8a3c0e7556e9707ba14505b97e58ddddced7be",
          "transactionIndex": "0x2",
          "logIndex": "0x2",
          "removed": false
        }
      ],
      "status": "0x1",
      "logsBloom": "0x00000000000000000000000000000000000000000000040000000000000000000000000000000000000000000000000000000000000000000000000000000000000000000000000000001000000000000000000000000000008000000000000000000000020000000000000000000800000000000000000000000000000000000000000000000000000000000000000000000000000000000000000000000000008000000000000200000000000000000000000000000000000000000000000000000200000000000000000000000000000000000000000000000000000020000000000000000000000000000000000000000000000000000000000000000000",
      "type": "0x2",
      "effectiveGasPrice": "0xb2d05fa4"
    },
    {
      "transactionHash": "0xdb13a70941e76ba6b78a16cf55c0d8ff5cb0178fd0e06d63b6fa21c63a615809",
      "transactionIndex": "0x3",
      "blockHash": "0x434cb8fcbf1a6e932e2edcb5188ab3da4b950d908d4097a7767819f291bb3188",
      "blockNumber": "0x7a2751",
      "from": "0x5a562294808c5470873831ff456e86369dc32dcB",
      "to": "0x65d87b5C995d60C5eadc86810F897842035efa04",
      "cumulativeGasUsed": "0x2315b1",
      "gasUsed": "0x1abf3",
      "contractAddress": null,
      "logs": [
        {
          "address": "0x65d87b5C995d60C5eadc86810F897842035efa04",
          "topics": [
            "0xc0c54fed07481d0998e1446b2c13759606bf4f26b78306307413ac4c4309aa82",
            "0x0000000000000000000000000000000000000000000000000000000000000001"
          ],
          "data": "0x00000000000000000000000000000000000000000000000000000000000000400000000000000000000000005a562294808c5470873831ff456e86369dc32dcb000000000000000000000000000000000000000000000000000000000000000950726f6a65637420320000000000000000000000000000000000000000000000",
          "blockHash": "0x434cb8fcbf1a6e932e2edcb5188ab3da4b950d908d4097a7767819f291bb3188",
          "blockNumber": "0x7a2751",
          "transactionHash": "0xdb13a70941e76ba6b78a16cf55c0d8ff5cb0178fd0e06d63b6fa21c63a615809",
          "transactionIndex": "0x3",
          "logIndex": "0x3",
          "removed": false
        }
      ],
      "status": "0x1",
      "logsBloom": "0x00000000000000000000000000000000000000000000040000000000000000000000000000000000000000000000000000000000000000000000000000040000000000000000000000001000000000000000000000040000008000000000000000000000000000000000000000000000000000000000000000000000000000000000000000000000000000000000000000000000000000000000000000000000008000000000000200000000000000000000000000000000000000000000000000000200000000000000000000000000000000000000000000000000000040000000000000000000000000000000000000000000000000000000000000000000",
      "type": "0x2",
      "effectiveGasPrice": "0xb2d05fa4"
    },
    {
      "transactionHash": "0x67df8ab683ed42b65168dee7227e5ee18067ae010f447c9c58d007e2745d1f71",
      "transactionIndex": "0x4",
      "blockHash": "0x434cb8fcbf1a6e932e2edcb5188ab3da4b950d908d4097a7767819f291bb3188",
      "blockNumber": "0x7a2751",
      "from": "0x5a562294808c5470873831ff456e86369dc32dcB",
      "to": "0x65d87b5C995d60C5eadc86810F897842035efa04",
      "cumulativeGasUsed": "0x24c1a4",
      "gasUsed": "0x1abf3",
      "contractAddress": null,
      "logs": [
        {
          "address": "0x65d87b5C995d60C5eadc86810F897842035efa04",
          "topics": [
            "0xc0c54fed07481d0998e1446b2c13759606bf4f26b78306307413ac4c4309aa82",
            "0x0000000000000000000000000000000000000000000000000000000000000002"
          ],
          "data": "0x00000000000000000000000000000000000000000000000000000000000000400000000000000000000000005a562294808c5470873831ff456e86369dc32dcb000000000000000000000000000000000000000000000000000000000000000950726f6a65637420330000000000000000000000000000000000000000000000",
          "blockHash": "0x434cb8fcbf1a6e932e2edcb5188ab3da4b950d908d4097a7767819f291bb3188",
          "blockNumber": "0x7a2751",
          "transactionHash": "0x67df8ab683ed42b65168dee7227e5ee18067ae010f447c9c58d007e2745d1f71",
          "transactionIndex": "0x4",
          "logIndex": "0x4",
          "removed": false
        }
      ],
      "status": "0x1",
      "logsBloom": "0x04000000000000000000000000000000000000000000040000000000000000000000000000000000000000000000000000000000000000000000000000000000000000000000000000001000000000000000000000000000008000000000000000000000000000000000000000000000000000000000000000000000000000000000000000000000000000000000000000000000000000000000000000000000008000000000000200000100000000000000000000000000000000000000000000000200000000000000000000000000000000000000000000000000000000000000000000000000000000000000000000000000008000000000000000000000",
      "type": "0x2",
      "effectiveGasPrice": "0xb2d05fa4"
    },
    {
      "transactionHash": "0x743ae7d8b91581c516673b4382e91c5a9bab867a3c762faa31279f6f90f42f35",
      "transactionIndex": "0x5",
      "blockHash": "0x434cb8fcbf1a6e932e2edcb5188ab3da4b950d908d4097a7767819f291bb3188",
      "blockNumber": "0x7a2751",
      "from": "0x5a562294808c5470873831ff456e86369dc32dcB",
      "to": "0x65d87b5C995d60C5eadc86810F897842035efa04",
      "cumulativeGasUsed": "0x261f8b",
      "gasUsed": "0x15de7",
      "contractAddress": null,
      "logs": [
        {
          "address": "0x65d87b5C995d60C5eadc86810F897842035efa04",
          "topics": [
            "0x2587a8aae32052dc3489cced391a070648eedad0b8670a76ce103ee5df587e4a"
          ],
          "data": "0x00000000000000000000000007b8ff46cc6e366fe12e4d3d47825000d9948ecd",
          "blockHash": "0x434cb8fcbf1a6e932e2edcb5188ab3da4b950d908d4097a7767819f291bb3188",
          "blockNumber": "0x7a2751",
          "transactionHash": "0x743ae7d8b91581c516673b4382e91c5a9bab867a3c762faa31279f6f90f42f35",
          "transactionIndex": "0x5",
          "logIndex": "0x5",
          "removed": false
        }
      ],
      "status": "0x1",
      "logsBloom": "0x00000000000000000000000000000000000000000000040000000000000000000000000000000000000000000000000000000000000000000000000000000000000000000000000000000001000000000000000000000000000000000000000000000000000000000000000000000000000000000000000000000200000100000000000000000000000000000000000000000000000000000000000000000000000000000000000200000000000000000000000000000000000000000000000000000200000000000000000000000000000000000000000000000000000000000000000000000000000000000000000000000000000000000000000000000000",
      "type": "0x2",
      "effectiveGasPrice": "0xb2d05fa4"
    },
    {
      "transactionHash": "0x63f8adf986805f1c4ab99fc0000c57c62ff46aa7c8c1155a340d6a807cf102a8",
      "transactionIndex": "0x6",
      "blockHash": "0x434cb8fcbf1a6e932e2edcb5188ab3da4b950d908d4097a7767819f291bb3188",
      "blockNumber": "0x7a2751",
      "from": "0x5a562294808c5470873831ff456e86369dc32dcB",
      "to": "0x65d87b5C995d60C5eadc86810F897842035efa04",
      "cumulativeGasUsed": "0x273ab2",
      "gasUsed": "0x11b27",
      "contractAddress": null,
      "logs": [
        {
          "address": "0x65d87b5C995d60C5eadc86810F897842035efa04",
          "topics": [
            "0x2587a8aae32052dc3489cced391a070648eedad0b8670a76ce103ee5df587e4a"
          ],
          "data": "0x000000000000000000000000030996ec60617fe293b4a51c97be0973c9ecdf33",
          "blockHash": "0x434cb8fcbf1a6e932e2edcb5188ab3da4b950d908d4097a7767819f291bb3188",
          "blockNumber": "0x7a2751",
          "transactionHash": "0x63f8adf986805f1c4ab99fc0000c57c62ff46aa7c8c1155a340d6a807cf102a8",
          "transactionIndex": "0x6",
          "logIndex": "0x6",
          "removed": false
        }
      ],
      "status": "0x1",
      "logsBloom": "0x00000000000000000000000000000000000000000000040000000000000000000000000000000000000000000000000000000000000000000000000000000000000000000000000000000001000000000000000000000000000000000000000000000000000000000000000000000000000000000000000000000200000100000000000000000000000000000000000000000000000000000000000000000000000000000000000200000000000000000000000000000000000000000000000000000200000000000000000000000000000000000000000000000000000000000000000000000000000000000000000000000000000000000000000000000000",
      "type": "0x2",
      "effectiveGasPrice": "0xb2d05fa4"
    },
    {
      "transactionHash": "0x1f91746a60b4937105e22cc65de07df759ce5fa2d2f84067a3e63a25301cbec6",
      "transactionIndex": "0x7",
      "blockHash": "0x434cb8fcbf1a6e932e2edcb5188ab3da4b950d908d4097a7767819f291bb3188",
      "blockNumber": "0x7a2751",
      "from": "0x5a562294808c5470873831ff456e86369dc32dcB",
      "to": "0x65d87b5C995d60C5eadc86810F897842035efa04",
      "cumulativeGasUsed": "0x2855d9",
      "gasUsed": "0x11b27",
      "contractAddress": null,
      "logs": [
        {
          "address": "0x65d87b5C995d60C5eadc86810F897842035efa04",
          "topics": [
            "0x2587a8aae32052dc3489cced391a070648eedad0b8670a76ce103ee5df587e4a"
          ],
          "data": "0x0000000000000000000000009080cfe04a99afebf37eaa40441c4191b46c2cd1",
          "blockHash": "0x434cb8fcbf1a6e932e2edcb5188ab3da4b950d908d4097a7767819f291bb3188",
          "blockNumber": "0x7a2751",
          "transactionHash": "0x1f91746a60b4937105e22cc65de07df759ce5fa2d2f84067a3e63a25301cbec6",
          "transactionIndex": "0x7",
          "logIndex": "0x7",
          "removed": false
        }
      ],
      "status": "0x1",
      "logsBloom": "0x00000000000000000000000000000000000000000000040000000000000000000000000000000000000000000000000000000000000000000000000000000000000000000000000000000001000000000000000000000000000000000000000000000000000000000000000000000000000000000000000000000200000100000000000000000000000000000000000000000000000000000000000000000000000000000000000200000000000000000000000000000000000000000000000000000200000000000000000000000000000000000000000000000000000000000000000000000000000000000000000000000000000000000000000000000000",
      "type": "0x2",
      "effectiveGasPrice": "0xb2d05fa4"
    },
    {
      "transactionHash": "0xab81d019df3ceaa8f5d3a3036412402a38c7e6c1a7b6468da6b00916ba0c4192",
      "transactionIndex": "0x8",
      "blockHash": "0x434cb8fcbf1a6e932e2edcb5188ab3da4b950d908d4097a7767819f291bb3188",
      "blockNumber": "0x7a2751",
      "from": "0x5a562294808c5470873831ff456e86369dc32dcB",
      "to": "0x65d87b5C995d60C5eadc86810F897842035efa04",
      "cumulativeGasUsed": "0x297100",
      "gasUsed": "0x11b27",
      "contractAddress": null,
      "logs": [
        {
          "address": "0x65d87b5C995d60C5eadc86810F897842035efa04",
          "topics": [
            "0x2587a8aae32052dc3489cced391a070648eedad0b8670a76ce103ee5df587e4a"
          ],
          "data": "0x000000000000000000000000f45b4de5c02a7fd2cb137145fb52e7d6d5a9a32e",
          "blockHash": "0x434cb8fcbf1a6e932e2edcb5188ab3da4b950d908d4097a7767819f291bb3188",
          "blockNumber": "0x7a2751",
          "transactionHash": "0xab81d019df3ceaa8f5d3a3036412402a38c7e6c1a7b6468da6b00916ba0c4192",
          "transactionIndex": "0x8",
          "logIndex": "0x8",
          "removed": false
        }
      ],
      "status": "0x1",
      "logsBloom": "0x00000000000000000000000000000000000000000000040000000000000000000000000000000000000000000000000000000000000000000000000000000000000000000000000000000001000000000000000000000000000000000000000000000000000000000000000000000000000000000000000000000200000100000000000000000000000000000000000000000000000000000000000000000000000000000000000200000000000000000000000000000000000000000000000000000200000000000000000000000000000000000000000000000000000000000000000000000000000000000000000000000000000000000000000000000000",
      "type": "0x2",
      "effectiveGasPrice": "0xb2d05fa4"
    },
    {
      "transactionHash": "0x6f01d911d555f4ffce4fbe07c4a805484be0fa4ca1b2b02ca93a00733eec50f1",
      "transactionIndex": "0x9",
      "blockHash": "0x434cb8fcbf1a6e932e2edcb5188ab3da4b950d908d4097a7767819f291bb3188",
      "blockNumber": "0x7a2751",
      "from": "0x5a562294808c5470873831ff456e86369dc32dcB",
      "to": "0x65d87b5C995d60C5eadc86810F897842035efa04",
      "cumulativeGasUsed": "0x2a8c0f",
      "gasUsed": "0x11b0f",
      "contractAddress": null,
      "logs": [
        {
          "address": "0x65d87b5C995d60C5eadc86810F897842035efa04",
          "topics": [
            "0x2587a8aae32052dc3489cced391a070648eedad0b8670a76ce103ee5df587e4a"
          ],
          "data": "0x000000000000000000000000b77ff06d00179f0811e9788b2cba6a2b0011b165",
          "blockHash": "0x434cb8fcbf1a6e932e2edcb5188ab3da4b950d908d4097a7767819f291bb3188",
          "blockNumber": "0x7a2751",
          "transactionHash": "0x6f01d911d555f4ffce4fbe07c4a805484be0fa4ca1b2b02ca93a00733eec50f1",
          "transactionIndex": "0x9",
          "logIndex": "0x9",
          "removed": false
        }
      ],
      "status": "0x1",
      "logsBloom": "0x00000000000000000000000000000000000000000000040000000000000000000000000000000000000000000000000000000000000000000000000000000000000000000000000000000001000000000000000000000000000000000000000000000000000000000000000000000000000000000000000000000200000100000000000000000000000000000000000000000000000000000000000000000000000000000000000200000000000000000000000000000000000000000000000000000200000000000000000000000000000000000000000000000000000000000000000000000000000000000000000000000000000000000000000000000000",
      "type": "0x2",
      "effectiveGasPrice": "0xb2d05fa4"
    },
    {
      "transactionHash": "0x32ba15d9a87a76677a8cbb26adfd6636acbac20aeea05c171edf3728de045e86",
      "transactionIndex": "0xa",
      "blockHash": "0x434cb8fcbf1a6e932e2edcb5188ab3da4b950d908d4097a7767819f291bb3188",
      "blockNumber": "0x7a2751",
      "from": "0x5a562294808c5470873831ff456e86369dc32dcB",
      "to": "0x65d87b5C995d60C5eadc86810F897842035efa04",
      "cumulativeGasUsed": "0x2b4045",
      "gasUsed": "0xb436",
      "contractAddress": null,
      "logs": [],
      "status": "0x1",
      "logsBloom": "0x00000000000000000000000000000000000000000000000000000000000000000000000000000000000000000000000000000000000000000000000000000000000000000000000000000000000000000000000000000000000000000000000000000000000000000000000000000000000000000000000000000000000000000000000000000000000000000000000000000000000000000000000000000000000000000000000000000000000000000000000000000000000000000000000000000000000000000000000000000000000000000000000000000000000000000000000000000000000000000000000000000000000000000000000000000000",
      "type": "0x2",
      "effectiveGasPrice": "0xb2d05fa4"
    }
  ],
  "libraries": [],
  "pending": [],
  "returns": {},
  "timestamp": 1711779224,
  "chain": 84532,
  "multi": false,
  "commit": "255cc20"
}