{
  "transactions": [
    {
      "hash": "0x72bbd3e8ebc0a0be65625e631904362fcd96501aad67c7e70f8a125534722e42",
      "transactionType": "CREATE",
      "contractName": "FundingRound",
      "contractAddress": "0x0a7b181B8DEc3BcB36b207e95ef2301483dD9aB9",
      "function": null,
      "arguments": [
        "0x5a562294808c5470873831ff456e86369dc32dcB"
      ],
      "transaction": {
        "type": "0x02",
        "from": "0x5a562294808c5470873831ff456e86369dc32dcb",
        "gas": "0x26cf05",
        "value": "0x0",
        "data": "0x608060405260006002553480156200001657600080fd5b50604051620022c5380380620022c58339810160408190526200003991620000a6565b620000443362000056565b6200004f8162000056565b50620000d8565b600080546001600160a01b038381166001600160a01b0319831681178455604051919092169283917f8be0079c531659141344cd1fd0a4f28419497f9722a3daafe3b4186f6b6457e09190a35050565b600060208284031215620000b957600080fd5b81516001600160a01b0381168114620000d157600080fd5b9392505050565b6121dd80620000e86000396000f3fe6080604052600436106100fe5760003560e01c80638da5cb5b11610095578063c0bc417811610064578063c0bc4178146102ac578063c65579ad146102cc578063d05c572c146102ec578063dcc601281461032c578063f2fde38b1461034e57600080fd5b80638da5cb5b146102265780639e93e57714610244578063a35ff0761461026c578063b49521c41461028c57600080fd5b8063715018a6116100d1578063715018a6146101b657806372add818146101cb578063769d2475146101f35780637b1837de1461020657600080fd5b80630f95c1bd14610103578063107046bd1461012557806323b311a91461015e57806338ba461414610196575b600080fd5b34801561010f57600080fd5b5061012361011e3660046118b6565b61036e565b005b34801561013157600080fd5b506101456101403660046118f2565b6103cd565b6040516101559493929190611951565b60405180910390f35b34801561016a57600080fd5b5060055461017e906001600160a01b031681565b6040516001600160a01b039091168152602001610155565b3480156101a257600080fd5b506101236101b1366004611989565b61049e565b3480156101c257600080fd5b50610123610907565b3480156101d757600080fd5b5061017e73f46d5fa9bfc964e8d06846c8739aec69bc06344d81565b610123610201366004611a08565b61091b565b34801561021257600080fd5b50610123610221366004611a35565b6109e2565b34801561023257600080fd5b506000546001600160a01b031661017e565b34801561025057600080fd5b5061017e73bd7aaa2984c0a887e93c66baae222749883763d381565b34801561027857600080fd5b50610123610287366004611a5f565b610ada565b34801561029857600080fd5b506101236102a7366004611a5f565b610b04565b3480156102b857600080fd5b5061017e6102c73660046118f2565b610bd7565b3480156102d857600080fd5b506101236102e7366004611a7a565b610c01565b3480156102f857600080fd5b5061031c610307366004611a5f565b60036020526000908152604090205460ff1681565b6040519015158152602001610155565b34801561033857600080fd5b50610341610d89565b6040516101559190611b36565b34801561035a57600080fd5b50610123610369366004611a5f565b610f58565b610379600382611c47565b6000036103905761038a8383610fd1565b50505050565b61039b600382611c47565b6001036103ac5761038a83836111fc565b6103b7600382611c47565b6002036103c85761038a83836113f4565b505050565b600181815481106103dd57600080fd5b906000526020600020906006020160009150905080600001549080600101549080600201805461040c90611c5b565b80601f016020809104026020016040519081016040528092919081815260200182805461043890611c5b565b80156104855780601f1061045a57610100808354040283529160200191610485565b820191906000526020600020905b81548152906001019060200180831161046857829003601f168201915b505050600390930154919250506001600160a01b031684565b6005546001600160a01b031633146104fd5760405162461bcd60e51b815260206004820152601f60248201527f6f6e6c792053656372657420476174657761792063616e2066756c66696c6c0060448201526064015b60405180910390fd5b60006001805480602002602001604051908101604052809291908181526020016000905b828210156106c357838290600052602060002090600602016040518060c0016040529081600082015481526020016001820154815260200160028201805461056890611c5b565b80601f016020809104026020016040519081016040528092919081815260200182805461059490611c5b565b80156105e15780601f106105b6576101008083540402835291602001916105e1565b820191906000526020600020905b8154815290600101906020018083116105c457829003601f168201915b505050918352505060038201546001600160a01b0316602080830191909152600483018054604080518285028101850182528281529401939283018282801561065357602002820191906000526020600020905b81546001600160a01b03168152600190910190602001808311610635575b50505050508152602001600582018054806020026020016040519081016040528092919081815260200182805480156106ab57602002820191906000526020600020905b815481526020019060010190808311610697575b50505050508152505081526020019060010190610521565b50505050905060005b6004548110156108c557600082518585848181106106ec576106ec611c95565b905060200201356106fd9190611c47565b90506001818154811061071257610712611c95565b90600052602060002090600602016004016004838154811061073657610736611c95565b6000918252602080832090910154835460018181018655948452919092200180546001600160a01b0319166001600160a01b0390921691909117905580548290811061078457610784611c95565b9060005260206000209060060201600501600483815481106107a8576107a8611c95565b6000918252602090912001546040516370a0823160e01b81523060048201526001600160a01b03909116906370a0823190602401602060405180830381865afa1580156107f9573d6000803e3d6000fd5b505050506040513d601f19601f8201168201806040525081019061081d9190611cab565b81546001818101845560009384526020909320015580546108b491908390811061084957610849611c95565b906000526020600020906006020160030160009054906101000a90046001600160a01b03166004848154811061088157610881611c95565b6000918252602090912001546001600160a01b03168787868181106108a8576108a8611c95565b9050602002013561036e565b506108be81611cda565b90506106cc565b507fe7ecfe6928c754cbd5282724cb865166ac3a20565babb867db6047900d7237238484846040516108f993929190611cf3565b60405180910390a150505050565b61090f611693565b61091960006116ed565b565b6005546001546040516361bf619360e01b815263ffffffff918216600482015290831660248201526001600160a01b039091169060009082906361bf619390349060440160206040518083038185885af115801561097d573d6000803e3d6000fd5b50505050506040513d601f19601f820116820180604052508101906109a29190611cab565b90507f9ef465a513d3907321fbc06db999b22497925c91f2cc1ee6b0a52b141d3263b2816040516109d591815260200190565b60405180910390a1505050565b6001600160a01b03821660009081526003602052604090205460ff16610a1b5760405163fa50582160e01b815260040160405180910390fd5b6040516323b872dd60e01b8152336004820152306024820152604481018290526001600160a01b038316906323b872dd906064016020604051808303816000875af1158015610a6e573d6000803e3d6000fd5b505050506040513d601f19601f82011682018060405250810190610a929190611d34565b50816001600160a01b03167f5af8184bef8e4b45eb9f6ed7734d04da38ced226495548f46e0c8ff8d7d9a52482604051610ace91815260200190565b60405180910390a25050565b610ae2611693565b600580546001600160a01b0319166001600160a01b0392909216919091179055565b6001600160a01b03811660009081526003602052604090205460ff1615610b3d5760405162a679fd60e01b815260040160405180910390fd5b6004805460018082019092557f8a35acfbc15ff81a39ae7d344fd709f28e8600b4aa8c65c6b64bfe7fe36bd19b0180546001600160a01b0319166001600160a01b038416908117909155600081815260036020908152604091829020805460ff1916909417909355519081527f2587a8aae32052dc3489cced391a070648eedad0b8670a76ce103ee5df587e4a910160405180910390a150565b60048181548110610be757600080fd5b6000918252602090912001546001600160a01b0316905081565b60016040518060c0016040528060026000815480929190610c2190611cda565b9190505581526020016000815260200185858080601f01602080910402602001604051908101604052809392919081815260200183838082843760009201829052509385525050506001600160a01b0385166020808401919091526040805183815280830182528185015280518381528083018252606090940193909352845460018082018755958352918190208451600690930201918255830151938101939093558101519091906002820190610cd99082611dba565b5060608201516003820180546001600160a01b0319166001600160a01b0390921691909117905560808201518051610d1b91600484019160209091019061173d565b5060a08201518051610d379160058401916020909101906117a2565b5050506001600254610d499190611e7a565b7fc0c54fed07481d0998e1446b2c13759606bf4f26b78306307413ac4c4309aa82848484604051610d7c93929190611e93565b60405180910390a2505050565b60606001805480602002602001604051908101604052809291908181526020016000905b82821015610f4f57838290600052602060002090600602016040518060c00160405290816000820154815260200160018201548152602001600282018054610df490611c5b565b80601f0160208091040260200160405190810160405280929190818152602001828054610e2090611c5b565b8015610e6d5780601f10610e4257610100808354040283529160200191610e6d565b820191906000526020600020905b815481529060010190602001808311610e5057829003601f168201915b505050918352505060038201546001600160a01b03166020808301919091526004830180546040805182850281018501825282815294019392830182828015610edf57602002820191906000526020600020905b81546001600160a01b03168152600190910190602001808311610ec1575b5050505050815260200160058201805480602002602001604051908101604052809291908181526020018280548015610f3757602002820191906000526020600020905b815481526020019060010190808311610f23575b50505050508152505081526020019060010190610dad565b50505050905090565b610f60611693565b6001600160a01b038116610fc55760405162461bcd60e51b815260206004820152602660248201527f4f776e61626c653a206e6577206f776e657220697320746865207a65726f206160448201526564647265737360d01b60648201526084016104f4565b610fce816116ed565b50565b6040516370a0823160e01b815230600482015260009081906001600160a01b038416906370a0823190602401602060405180830381865afa15801561101a573d6000803e3d6000fd5b505050506040513d601f19601f8201168201806040525081019061103e9190611cab565b60405163095ea7b360e01b815273bd7aaa2984c0a887e93c66baae222749883763d36004820152602481018290529091506001600160a01b0384169063095ea7b3906044016020604051808303816000875af11580156110a2573d6000803e3d6000fd5b505050506040513d601f19601f820116820180604052508101906110c69190611d34565b50611129604080516101008101825260008082526020808301829052828401829052606083018290526080830182905260a083018290528351808501855282815280820183905260c084015283518085019094528184528301529060e082015290565b3081526001600160a01b038581166020808401919091526001600160801b038416604080850191909152918616606084015260016080840152815180830183526014815260509181019190915260c083015251632ac59f3360e21b815273bd7aaa2984c0a887e93c66baae222749883763d39063ab167ccc906111b0908490600401611ed4565b6020604051808303816000875af11580156111cf573d6000803e3d6000fd5b505050506040513d601f19601f820116820180604052508101906111f39190611cab565b95945050505050565b6040516370a0823160e01b815230600482015260009081906001600160a01b038416906370a0823190602401602060405180830381865afa158015611245573d6000803e3d6000fd5b505050506040513d601f19601f820116820180604052508101906112699190611cab565b60405163095ea7b360e01b815273f46d5fa9bfc964e8d06846c8739aec69bc06344d6004820152602481018290529091506001600160a01b0384169063095ea7b3906044016020604051808303816000875af11580156112cd573d6000803e3d6000fd5b505050506040513d601f19601f820116820180604052508101906112f19190611d34565b506112fa6117dd565b3081526001600160a01b0385811660608301526001600160801b0383166080830152841660a08201526001602082018190526040805182815280820190915290816020015b604080516060810182526000808252602080830182905292820152825260001990920191018161133f57505060e08201908152604080516060810182526001600160801b03851681526753444835ec5800006020820152601491810191909152905180516000906113b2576113b2611c95565b6020908102919091010152604051630b42222b60e11b815273f46d5fa9bfc964e8d06846c8739aec69bc06344d906316844456906111b0908490600401611fea565b6040516370a0823160e01b815230600482015260009081906001600160a01b038416906370a0823190602401602060405180830381865afa15801561143d573d6000803e3d6000fd5b505050506040513d601f19601f820116820180604052508101906114619190611cab565b60405163095ea7b360e01b815273f46d5fa9bfc964e8d06846c8739aec69bc06344d6004820152602481018290529091506001600160a01b0384169063095ea7b3906044016020604051808303816000875af11580156114c5573d6000803e3d6000fd5b505050506040513d601f19601f820116820180604052508101906114e99190611d34565b506114f2611832565b3081526001600160a01b0385811660808301526001600160801b03831660a0830152841660c08201526001604082015261152d42601e61209d565b64ffffffffff1660208201526040805160028082526060820190925290816020015b604080516060810182526000808252602080830182905292820152825260001990920191018161154f5750506101008201526040805160608101909152806115986002856120b0565b6001600160801b03168152670de0b6b3a764000060208201526040016115bf42600a61209d565b64ffffffffff168152508161010001516000815181106115e1576115e1611c95565b60200260200101819052506040518060600160405280836001600160801b03168152602001611615672b93855d12ba000090565b67ffffffffffffffff16815260200161162f42607861209d565b64ffffffffff1681525081610100015160018151811061165157611651611c95565b602090810291909101015260405163619e69af60e11b815273f46d5fa9bfc964e8d06846c8739aec69bc06344d9063c33cd35e906111b09084906004016120d6565b6000546001600160a01b031633146109195760405162461bcd60e51b815260206004820181905260248201527f4f776e61626c653a2063616c6c6572206973206e6f7420746865206f776e657260448201526064016104f4565b600080546001600160a01b038381166001600160a01b0319831681178455604051919092169283917f8be0079c531659141344cd1fd0a4f28419497f9722a3daafe3b4186f6b6457e09190a35050565b828054828255906000526020600020908101928215611792579160200282015b8281111561179257825182546001600160a01b0319166001600160a01b0390911617825560209092019160019091019061175d565b5061179e929150611885565b5090565b828054828255906000526020600020908101928215611792579160200282015b828111156117925782518255916020019190600101906117c2565b604080516101008101825260008082526020808301829052828401829052606083018290526080830182905260a0830182905283518085019094528184528301529060c08201905b8152602001606081525090565b604080516101208101825260008082526020808301829052828401829052606083018290526080830182905260a0830182905260c0830182905283518085019094528184528301529060e0820190611825565b5b8082111561179e5760008155600101611886565b80356001600160a01b03811681146118b157600080fd5b919050565b6000806000606084860312156118cb57600080fd5b6118d48461189a565b92506118e26020850161189a565b9150604084013590509250925092565b60006020828403121561190457600080fd5b5035919050565b6000815180845260005b8181101561193157602081850181015186830182015201611915565b506000602082860101526020601f19601f83011685010191505092915050565b848152836020820152608060408201526000611970608083018561190b565b905060018060a01b038316606083015295945050505050565b60008060006040848603121561199e57600080fd5b83359250602084013567ffffffffffffffff808211156119bd57600080fd5b818601915086601f8301126119d157600080fd5b8135818111156119e057600080fd5b8760208260051b85010111156119f557600080fd5b6020830194508093505050509250925092565b600060208284031215611a1a57600080fd5b813563ffffffff81168114611a2e57600080fd5b9392505050565b60008060408385031215611a4857600080fd5b611a518361189a565b946020939093013593505050565b600060208284031215611a7157600080fd5b611a2e8261189a565b600080600060408486031215611a8f57600080fd5b833567ffffffffffffffff80821115611aa757600080fd5b818601915086601f830112611abb57600080fd5b813581811115611aca57600080fd5b876020828501011115611adc57600080fd5b602092830195509350611af2918601905061189a565b90509250925092565b600081518084526020808501945080840160005b83811015611b2b57815187529582019590820190600101611b0f565b509495945050505050565b60006020808301818452808551808352604092508286019150828160051b8701018488016000805b84811015611c2257603f198a8503018652825160c081518652898201518a87015288820151818a880152611b948288018261190b565b6060848101516001600160a01b03908116918a01919091526080808601518a8403918b01919091528051808452908e019450918d01925086915b80831015611bf057845182168452938d0193928d019260019290920191611bce565b50505060a09283015187820388850152929150611c0d8184611afb565b988b0198965050509288019250600101611b5e565b50919998505050505050505050565b634e487b7160e01b600052601260045260246000fd5b600082611c5657611c56611c31565b500690565b600181811c90821680611c6f57607f821691505b602082108103611c8f57634e487b7160e01b600052602260045260246000fd5b50919050565b634e487b7160e01b600052603260045260246000fd5b600060208284031215611cbd57600080fd5b5051919050565b634e487b7160e01b600052601160045260246000fd5b600060018201611cec57611cec611cc4565b5060010190565b838152604060208201819052810182905260006001600160fb1b03831115611d1a57600080fd5b8260051b8085606085013791909101606001949350505050565b600060208284031215611d4657600080fd5b81518015158114611a2e57600080fd5b634e487b7160e01b600052604160045260246000fd5b601f8211156103c857600081815260208120601f850160051c81016020861015611d935750805b601f850160051c820191505b81811015611db257828155600101611d9f565b505050505050565b815167ffffffffffffffff811115611dd457611dd4611d56565b611de881611de28454611c5b565b84611d6c565b602080601f831160018114611e1d5760008415611e055750858301515b600019600386901b1c1916600185901b178555611db2565b600085815260208120601f198616915b82811015611e4c57888601518255948401946001909101908401611e2d565b5085821015611e6a5787850151600019600388901b60f8161c191681555b5050505050600190811b01905550565b81810381811115611e8d57611e8d611cc4565b92915050565b6040815282604082015282846060830137600060608483018101919091526001600160a01b03929092166020820152601f909201601f191690910101919050565b81516001600160a01b0390811682526020808401518216908301526040808401516001600160801b03169083015260608084015190911690820152608080830151610140830191611f289084018215159052565b5060a0830151611f3c60a084018215159052565b5060c0830151611f6360c0840182805164ffffffffff908116835260209182015116910152565b5060e0929092015180516001600160a01b0316610100830152602001516101209091015290565b600081518084526020808501945080840160005b83811015611b2b57815180516001600160801b031688528381015167ffffffffffffffff168489015260409081015164ffffffffff169088015260609096019590820190600101611f9e565b602080825282516001600160a01b031682820152820151151560408083019190915282015180151560608301526000905060608301516001600160a01b03811660808401525060808301516001600160801b03811660a08401525060a08301516001600160a01b03811660c08401525060c083015180516001600160a01b031660e084015260208101516101008401525060e083015161012083810152612095610140840182611f8a565b949350505050565b80820180821115611e8d57611e8d611cc4565b60006001600160801b03808416806120ca576120ca611c31565b92169190910492915050565b602081526120f06020820183516001600160a01b03169052565b6000602083015161210a604084018264ffffffffff169052565b506040830151801515606084015250606083015180151560808401525060808301516001600160a01b03811660a08401525060a08301516001600160801b03811660c08401525060c08301516001600160a01b03811660e08401525060e083015161010061218d8185018380516001600160a01b03168252602090810151910152565b840151610140848101529050612095610160840182611f8a56fea264697066735822122006af157139cb38de38cc976c515c93e2397d3e7675b33dfe7ca472f6c591214d64736f6c634300081300330000000000000000000000005a562294808c5470873831ff456e86369dc32dcb",
        "nonce": "0xd7",
        "accessList": []
      },
      "additionalContracts": [],
      "isFixedGasLimit": false
    },
    {
      "hash": "0xf5cd8831ccbeb92f1e58dd1ea78dd01308322778f798ee4c9f2e5c6f75209d89",
      "transactionType": "CALL",
      "contractName": "contracts/FundingRound.sol:FundingRound",
      "contractAddress": "0x0a7b181B8DEc3BcB36b207e95ef2301483dD9aB9",
      "function": "createProject(string,address)",
      "arguments": [
        "\"Project 1\"",
        "0x5a562294808c5470873831ff456e86369dc32dcB"
      ],
      "transaction": {
        "type": "0x02",
        "from": "0x5a562294808c5470873831ff456e86369dc32dcb",
        "to": "0x0a7b181b8dec3bcb36b207e95ef2301483dd9ab9",
        "gas": "0x29c41",
        "value": "0x0",
        "data": "0xc65579ad00000000000000000000000000000000000000000000000000000000000000400000000000000000000000005a562294808c5470873831ff456e86369dc32dcb000000000000000000000000000000000000000000000000000000000000000950726f6a65637420310000000000000000000000000000000000000000000000",
        "nonce": "0xd8",
        "accessList": []
      },
      "additionalContracts": [],
      "isFixedGasLimit": false
    },
    {
      "hash": "0x260df4cb97d43f598f74fca1fbac6b358ac15310e24338a8a4b0fb70c74f697a",
      "transactionType": "CALL",
      "contractName": "contracts/FundingRound.sol:FundingRound",
      "contractAddress": "0x0a7b181B8DEc3BcB36b207e95ef2301483dD9aB9",
      "function": "createProject(string,address)",
      "arguments": [
        "\"Project 2\"",
        "0x5a562294808c5470873831ff456e86369dc32dcB"
      ],
      "transaction": {
        "type": "0x02",
        "from": "0x5a562294808c5470873831ff456e86369dc32dcb",
        "to": "0x0a7b181b8dec3bcb36b207e95ef2301483dd9ab9",
        "gas": "0x271df",
        "value": "0x0",
        "data": "0xc65579ad00000000000000000000000000000000000000000000000000000000000000400000000000000000000000005a562294808c5470873831ff456e86369dc32dcb000000000000000000000000000000000000000000000000000000000000000950726f6a65637420320000000000000000000000000000000000000000000000",
        "nonce": "0xd9",
        "accessList": []
      },
      "additionalContracts": [],
      "isFixedGasLimit": false
    },
    {
      "hash": "0x609182a50254a45a7daaac7621fae36484e1502b3cd4ce3e62301dd58fbbc312",
      "transactionType": "CALL",
      "contractName": "contracts/FundingRound.sol:FundingRound",
      "contractAddress": "0x0a7b181B8DEc3BcB36b207e95ef2301483dD9aB9",
      "function": "createProject(string,address)",
      "arguments": [
        "\"Project 3\"",
        "0x5a562294808c5470873831ff456e86369dc32dcB"
      ],
      "transaction": {
        "type": "0x02",
        "from": "0x5a562294808c5470873831ff456e86369dc32dcb",
        "to": "0x0a7b181b8dec3bcb36b207e95ef2301483dd9ab9",
        "gas": "0x271df",
        "value": "0x0",
        "data": "0xc65579ad00000000000000000000000000000000000000000000000000000000000000400000000000000000000000005a562294808c5470873831ff456e86369dc32dcb000000000000000000000000000000000000000000000000000000000000000950726f6a65637420330000000000000000000000000000000000000000000000",
        "nonce": "0xda",
        "accessList": []
      },
      "additionalContracts": [],
      "isFixedGasLimit": false
    },
    {
      "hash": "0x4a4def50c0efec19d2e68f12c71acf1e7e40f00f04ea90f39966c7aee6d32ed9",
      "transactionType": "CALL",
      "contractName": "contracts/FundingRound.sol:FundingRound",
      "contractAddress": "0x0a7b181B8DEc3BcB36b207e95ef2301483dD9aB9",
      "function": "setShitCoin(address)",
      "arguments": [
        "0x07B8FF46Cc6e366Fe12e4d3D47825000d9948eCD"
      ],
      "transaction": {
        "type": "0x02",
        "from": "0x5a562294808c5470873831ff456e86369dc32dcb",
        "to": "0x0a7b181b8dec3bcb36b207e95ef2301483dd9ab9",
        "gas": "0x1e34c",
        "value": "0x0",
        "data": "0xb49521c400000000000000000000000007b8ff46cc6e366fe12e4d3d47825000d9948ecd",
        "nonce": "0xdb",
        "accessList": []
      },
      "additionalContracts": [],
      "isFixedGasLimit": false
    },
    {
      "hash": "0xd6e7be255ea2a2ebfb52d81b117c0940f6cb73fdbbfb66368b511069e4979a90",
      "transactionType": "CALL",
      "contractName": "contracts/FundingRound.sol:FundingRound",
      "contractAddress": "0x0a7b181B8DEc3BcB36b207e95ef2301483dD9aB9",
      "function": "setGatewayAddress(address)",
      "arguments": [
        "0xfaFCfceC4e29e9b4ECc8C0a3f7df1011580EEEf2"
      ],
      "transaction": {
        "type": "0x02",
        "from": "0x5a562294808c5470873831ff456e86369dc32dcb",
        "to": "0x0a7b181b8dec3bcb36b207e95ef2301483dd9ab9",
        "gas": "0xf8ea",
        "value": "0x0",
        "data": "0xa35ff076000000000000000000000000fafcfcec4e29e9b4ecc8c0a3f7df1011580eeef2",
        "nonce": "0xdc",
        "accessList": []
      },
      "additionalContracts": [],
      "isFixedGasLimit": false
    }
  ],
  "receipts": [
    {
      "transactionHash": "0x72bbd3e8ebc0a0be65625e631904362fcd96501aad67c7e70f8a125534722e42",
      "transactionIndex": "0x1",
      "blockHash": "0xa4baf543df8efb6ee43f39567418d5c89d72053496dc120759c0129b25e6f740",
      "blockNumber": "0x7a1d00",
      "from": "0x5a562294808c5470873831ff456e86369dc32dcB",
      "to": null,
      "cumulativeGasUsed": "0x1e87ce",
      "gasUsed": "0x1ddc83",
      "contractAddress": "0x0a7b181B8DEc3BcB36b207e95ef2301483dD9aB9",
      "logs": [
        {
          "address": "0x0a7b181B8DEc3BcB36b207e95ef2301483dD9aB9",
          "topics": [
            "0x8be0079c531659141344cd1fd0a4f28419497f9722a3daafe3b4186f6b6457e0",
            "0x0000000000000000000000000000000000000000000000000000000000000000",
            "0x0000000000000000000000005a562294808c5470873831ff456e86369dc32dcb"
          ],
          "data": "0x",
          "blockHash": "0xa4baf543df8efb6ee43f39567418d5c89d72053496dc120759c0129b25e6f740",
          "blockNumber": "0x7a1d00",
          "transactionHash": "0x72bbd3e8ebc0a0be65625e631904362fcd96501aad67c7e70f8a125534722e42",
          "transactionIndex": "0x1",
          "logIndex": "0x0",
          "removed": false
        },
        {
          "address": "0x0a7b181B8DEc3BcB36b207e95ef2301483dD9aB9",
          "topics": [
            "0x8be0079c531659141344cd1fd0a4f28419497f9722a3daafe3b4186f6b6457e0",
            "0x0000000000000000000000005a562294808c5470873831ff456e86369dc32dcb",
            "0x0000000000000000000000005a562294808c5470873831ff456e86369dc32dcb"
          ],
          "data": "0x",
          "blockHash": "0xa4baf543df8efb6ee43f39567418d5c89d72053496dc120759c0129b25e6f740",
          "blockNumber": "0x7a1d00",
          "transactionHash": "0x72bbd3e8ebc0a0be65625e631904362fcd96501aad67c7e70f8a125534722e42",
          "transactionIndex": "0x1",
          "logIndex": "0x1",
          "removed": false
        }
      ],
      "status": "0x1",
      "logsBloom": "0x00000000000000000000000000000000000000000000000000800000000000000000000000000000000000000000000800000000000000000000000000000000000000000000000000010000000000000001000000000004000000000220000000000000020000000000000000000800000000000000000000000000000000400000000000000000000020000000000000000000000000000000000000000000000000000000000000000000000000000000000000000000000000000000000000000000000000000000000000000000000000000000000000000000000020000000000000000000000000000000000000000000000000000000000000000000",
      "type": "0x2",
      "effectiveGasPrice": "0xb2d0c3db"
    },
    {
      "transactionHash": "0xf5cd8831ccbeb92f1e58dd1ea78dd01308322778f798ee4c9f2e5c6f75209d89",
      "transactionIndex": "0x2",
      "blockHash": "0xa4baf543df8efb6ee43f39567418d5c89d72053496dc120759c0129b25e6f740",
      "blockNumber": "0x7a1d00",
      "from": "0x5a562294808c5470873831ff456e86369dc32dcB",
      "to": "0x0a7b181B8DEc3BcB36b207e95ef2301483dD9aB9",
      "cumulativeGasUsed": "0x206b9d",
      "gasUsed": "0x1e3cf",
      "contractAddress": null,
      "logs": [
        {
          "address": "0x0a7b181B8DEc3BcB36b207e95ef2301483dD9aB9",
          "topics": [
            "0xc0c54fed07481d0998e1446b2c13759606bf4f26b78306307413ac4c4309aa82",
            "0x0000000000000000000000000000000000000000000000000000000000000000"
          ],
          "data": "0x00000000000000000000000000000000000000000000000000000000000000400000000000000000000000005a562294808c5470873831ff456e86369dc32dcb000000000000000000000000000000000000000000000000000000000000000950726f6a65637420310000000000000000000000000000000000000000000000",
          "blockHash": "0xa4baf543df8efb6ee43f39567418d5c89d72053496dc120759c0129b25e6f740",
          "blockNumber": "0x7a1d00",
          "transactionHash": "0xf5cd8831ccbeb92f1e58dd1ea78dd01308322778f798ee4c9f2e5c6f75209d89",
          "transactionIndex": "0x2",
          "logIndex": "0x2",
          "removed": false
        }
      ],
      "status": "0x1",
      "logsBloom": "0x00000000000000000000000000000000000000000000000000000000000000000000000000000000000000000000000800000000000000000000000000000000000000000000000000011000000000000000000000000000008000000000000000000000020000000000000000000800000000000000000000000000000000000000000000000000000020000000000000000000000000000000000000000000008000000000000000000000000000000000000000000000000000000000000000000000000000000000000000000000000000000000000000000000000020000000000000000000000000000000000000000000000000000000000000000000",
      "type": "0x2",
      "effectiveGasPrice": "0xb2d0c3db"
    },
    {
      "transactionHash": "0x260df4cb97d43f598f74fca1fbac6b358ac15310e24338a8a4b0fb70c74f697a",
      "transactionIndex": "0x3",
      "blockHash": "0xa4baf543df8efb6ee43f39567418d5c89d72053496dc120759c0129b25e6f740",
      "blockNumber": "0x7a1d00",
      "from": "0x5a562294808c5470873831ff456e86369dc32dcB",
      "to": "0x0a7b181B8DEc3BcB36b207e95ef2301483dD9aB9",
      "cumulativeGasUsed": "0x221790",
      "gasUsed": "0x1abf3",
      "contractAddress": null,
      "logs": [
        {
          "address": "0x0a7b181B8DEc3BcB36b207e95ef2301483dD9aB9",
          "topics": [
            "0xc0c54fed07481d0998e1446b2c13759606bf4f26b78306307413ac4c4309aa82",
            "0x0000000000000000000000000000000000000000000000000000000000000001"
          ],
          "data": "0x00000000000000000000000000000000000000000000000000000000000000400000000000000000000000005a562294808c5470873831ff456e86369dc32dcb000000000000000000000000000000000000000000000000000000000000000950726f6a65637420320000000000000000000000000000000000000000000000",
          "blockHash": "0xa4baf543df8efb6ee43f39567418d5c89d72053496dc120759c0129b25e6f740",
          "blockNumber": "0x7a1d00",
          "transactionHash": "0x260df4cb97d43f598f74fca1fbac6b358ac15310e24338a8a4b0fb70c74f697a",
          "transactionIndex": "0x3",
          "logIndex": "0x3",
          "removed": false
        }
      ],
      "status": "0x1",
      "logsBloom": "0x00000000000000000000000000000000000000000000000000000000000000000000000000000000000000000000000800000000000000000000000000040000000000000000000000011000000000000000000000040000008000000000000000000000000000000000000000000000000000000000000000000000000000000000000000000000000020000000000000000000000000000000000000000000008000000000000000000000000000000000000000000000000000000000000000000000000000000000000000000000000000000000000000000000000040000000000000000000000000000000000000000000000000000000000000000000",
      "type": "0x2",
      "effectiveGasPrice": "0xb2d0c3db"
    },
    {
      "transactionHash": "0x609182a50254a45a7daaac7621fae36484e1502b3cd4ce3e62301dd58fbbc312",
      "transactionIndex": "0x4",
      "blockHash": "0xa4baf543df8efb6ee43f39567418d5c89d72053496dc120759c0129b25e6f740",
      "blockNumber": "0x7a1d00",
      "from": "0x5a562294808c5470873831ff456e86369dc32dcB",
      "to": "0x0a7b181B8DEc3BcB36b207e95ef2301483dD9aB9",
      "cumulativeGasUsed": "0x23c383",
      "gasUsed": "0x1abf3",
      "contractAddress": null,
      "logs": [
        {
          "address": "0x0a7b181B8DEc3BcB36b207e95ef2301483dD9aB9",
          "topics": [
            "0xc0c54fed07481d0998e1446b2c13759606bf4f26b78306307413ac4c4309aa82",
            "0x0000000000000000000000000000000000000000000000000000000000000002"
          ],
          "data": "0x00000000000000000000000000000000000000000000000000000000000000400000000000000000000000005a562294808c5470873831ff456e86369dc32dcb000000000000000000000000000000000000000000000000000000000000000950726f6a65637420330000000000000000000000000000000000000000000000",
          "blockHash": "0xa4baf543df8efb6ee43f39567418d5c89d72053496dc120759c0129b25e6f740",
          "blockNumber": "0x7a1d00",
          "transactionHash": "0x609182a50254a45a7daaac7621fae36484e1502b3cd4ce3e62301dd58fbbc312",
          "transactionIndex": "0x4",
          "logIndex": "0x4",
          "removed": false
        }
      ],
      "status": "0x1",
      "logsBloom": "0x04000000000000000000000000000000000000000000000000000000000000000000000000000000000000000000000800000000000000000000000000000000000000000000000000011000000000000000000000000000008000000000000000000000000000000000000000000000000000000000000000000000000000000000000000000000000020000000000000000000000000000000000000000000008000000000000000000100000000000000000000000000000000000000000000000000000000000000000000000000000000000000000000000000000000000000000000000000000000000000000000000000008000000000000000000000",
      "type": "0x2",
      "effectiveGasPrice": "0xb2d0c3db"
    },
    {
      "transactionHash": "0x4a4def50c0efec19d2e68f12c71acf1e7e40f00f04ea90f39966c7aee6d32ed9",
      "transactionIndex": "0x5",
      "blockHash": "0xa4baf543df8efb6ee43f39567418d5c89d72053496dc120759c0129b25e6f740",
      "blockNumber": "0x7a1d00",
      "from": "0x5a562294808c5470873831ff456e86369dc32dcB",
      "to": "0x0a7b181B8DEc3BcB36b207e95ef2301483dD9aB9",
      "cumulativeGasUsed": "0x25216a",
      "gasUsed": "0x15de7",
      "contractAddress": null,
      "logs": [
        {
          "address": "0x0a7b181B8DEc3BcB36b207e95ef2301483dD9aB9",
          "topics": [
            "0x2587a8aae32052dc3489cced391a070648eedad0b8670a76ce103ee5df587e4a"
          ],
          "data": "0x00000000000000000000000007b8ff46cc6e366fe12e4d3d47825000d9948ecd",
          "blockHash": "0xa4baf543df8efb6ee43f39567418d5c89d72053496dc120759c0129b25e6f740",
          "blockNumber": "0x7a1d00",
          "transactionHash": "0x4a4def50c0efec19d2e68f12c71acf1e7e40f00f04ea90f39966c7aee6d32ed9",
          "transactionIndex": "0x5",
          "logIndex": "0x5",
          "removed": false
        }
      ],
      "status": "0x1",
      "logsBloom": "0x00000000000000000000000000000000000000000000000000000000000000000000000000000000000000000000000800000000000000000000000000000000000000000000000000010001000000000000000000000000000000000000000000000000000000000000000000000000000000000000000000000200000100000000000000000000000020000000000000000000000000000000000000000000000000000000000000000000000000000000000000000000000000000000000000000000000000000000000000000000000000000000000000000000000000000000000000000000000000000000000000000000000000000000000000000000",
      "type": "0x2",
      "effectiveGasPrice": "0xb2d0c3db"
    },
    {
      "transactionHash": "0xd6e7be255ea2a2ebfb52d81b117c0940f6cb73fdbbfb66368b511069e4979a90",
      "transactionIndex": "0x6",
      "blockHash": "0xa4baf543df8efb6ee43f39567418d5c89d72053496dc120759c0129b25e6f740",
      "blockNumber": "0x7a1d00",
      "from": "0x5a562294808c5470873831ff456e86369dc32dcB",
      "to": "0x0a7b181B8DEc3BcB36b207e95ef2301483dD9aB9",
      "cumulativeGasUsed": "0x25d5a0",
      "gasUsed": "0xb436",
      "contractAddress": null,
      "logs": [],
      "status": "0x1",
      "logsBloom": "0x00000000000000000000000000000000000000000000000000000000000000000000000000000000000000000000000000000000000000000000000000000000000000000000000000000000000000000000000000000000000000000000000000000000000000000000000000000000000000000000000000000000000000000000000000000000000000000000000000000000000000000000000000000000000000000000000000000000000000000000000000000000000000000000000000000000000000000000000000000000000000000000000000000000000000000000000000000000000000000000000000000000000000000000000000000000",
      "type": "0x2",
      "effectiveGasPrice": "0xb2d0c3db"
    }
  ],
  "libraries": [],
  "pending": [],
  "returns": {},
  "timestamp": 1711773941,
  "chain": 84532,
  "multi": false,
  "commit": "255cc20"
}