{
  "transactions": [
    {
      "hash": "0x15d2a955b67c64c443ddefb9dc27c0b7c9a551cf096ea201ed575d1fe26bb15b",
      "transactionType": "CREATE",
      "contractName": "FundingRound",
      "contractAddress": "0xeC30fbC06f5c7a706f5fE9B21c95C8F80C495b5C",
      "function": null,
      "arguments": [
        "0x5a562294808c5470873831ff456e86369dc32dcB"
      ],
      "transaction": {
        "type": "0x02",
        "from": "0x5a562294808c5470873831ff456e86369dc32dcb",
        "gas": "0x256cfc",
        "value": "0x0",
        "data": "0x608060405260006002553480156200001657600080fd5b5060405162002182380380620021828339810160408190526200003991620000a6565b620000443362000056565b6200004f8162000056565b50620000d8565b600080546001600160a01b038381166001600160a01b0319831681178455604051919092169283917f8be0079c531659141344cd1fd0a4f28419497f9722a3daafe3b4186f6b6457e09190a35050565b600060208284031215620000b957600080fd5b81516001600160a01b0381168114620000d157600080fd5b9392505050565b61209a80620000e86000396000f3fe6080604052600436106100fe5760003560e01c80638da5cb5b11610095578063c0bc417811610064578063c0bc4178146102ac578063c65579ad146102cc578063d05c572c146102ec578063dcc601281461032c578063f2fde38b1461034e57600080fd5b80638da5cb5b146102265780639e93e57714610244578063a35ff0761461026c578063b49521c41461028c57600080fd5b8063715018a6116100d1578063715018a6146101b657806372add818146101cb578063769d2475146101f35780637b1837de1461020657600080fd5b80630f95c1bd14610103578063107046bd1461012557806323b311a91461015e57806338ba461414610196575b600080fd5b34801561010f57600080fd5b5061012361011e366004611773565b61036e565b005b34801561013157600080fd5b506101456101403660046117af565b6103cd565b604051610155949392919061180e565b60405180910390f35b34801561016a57600080fd5b5060055461017e906001600160a01b031681565b6040516001600160a01b039091168152602001610155565b3480156101a257600080fd5b506101236101b1366004611846565b61049e565b3480156101c257600080fd5b506101236107c4565b3480156101d757600080fd5b5061017e73f46d5fa9bfc964e8d06846c8739aec69bc06344d81565b6101236102013660046118c5565b6107d8565b34801561021257600080fd5b506101236102213660046118f2565b61089f565b34801561023257600080fd5b506000546001600160a01b031661017e565b34801561025057600080fd5b5061017e73bd7aaa2984c0a887e93c66baae222749883763d381565b34801561027857600080fd5b5061012361028736600461191c565b610997565b34801561029857600080fd5b506101236102a736600461191c565b6109c1565b3480156102b857600080fd5b5061017e6102c73660046117af565b610a94565b3480156102d857600080fd5b506101236102e7366004611937565b610abe565b3480156102f857600080fd5b5061031c61030736600461191c565b60036020526000908152604090205460ff1681565b6040519015158152602001610155565b34801561033857600080fd5b50610341610c46565b60405161015591906119f3565b34801561035a57600080fd5b5061012361036936600461191c565b610e15565b610379600382611b04565b6000036103905761038a8383610e8e565b50505050565b61039b600382611b04565b6001036103ac5761038a83836110b9565b6103b7600382611b04565b6002036103c85761038a83836112b1565b505050565b600181815481106103dd57600080fd5b906000526020600020906006020160009150905080600001549080600101549080600201805461040c90611b18565b80601f016020809104026020016040519081016040528092919081815260200182805461043890611b18565b80156104855780601f1061045a57610100808354040283529160200191610485565b820191906000526020600020905b81548152906001019060200180831161046857829003601f168201915b505050600390930154919250506001600160a01b031684565b6005546001600160a01b031633146104fd5760405162461bcd60e51b815260206004820152601f60248201527f6f6e6c792053656372657420476174657761792063616e2066756c66696c6c0060448201526064015b60405180910390fd5b60006001805480602002602001604051908101604052809291908181526020016000905b828210156106c357838290600052602060002090600602016040518060c0016040529081600082015481526020016001820154815260200160028201805461056890611b18565b80601f016020809104026020016040519081016040528092919081815260200182805461059490611b18565b80156105e15780601f106105b6576101008083540402835291602001916105e1565b820191906000526020600020905b8154815290600101906020018083116105c457829003601f168201915b505050918352505060038201546001600160a01b0316602080830191909152600483018054604080518285028101850182528281529401939283018282801561065357602002820191906000526020600020905b81546001600160a01b03168152600190910190602001808311610635575b50505050508152602001600582018054806020026020016040519081016040528092919081815260200182805480156106ab57602002820191906000526020600020905b815481526020019060010190808311610697575b50505050508152505081526020019060010190610521565b50505050905060005b60045481101561078257600082518585848181106106ec576106ec611b52565b905060200201356106fd9190611b04565b90506001818154811061071257610712611b52565b90600052602060002090600602016004016004838154811061073657610736611b52565b60009182526020808320909101548354600181018555938352912090910180546001600160a01b0319166001600160a01b039092169190911790555061077b81611b7e565b90506106cc565b507fe7ecfe6928c754cbd5282724cb865166ac3a20565babb867db6047900d7237238484846040516107b693929190611b97565b60405180910390a150505050565b6107cc611550565b6107d660006115aa565b565b6005546001546040516361bf619360e01b815263ffffffff918216600482015290831660248201526001600160a01b039091169060009082906361bf619390349060440160206040518083038185885af115801561083a573d6000803e3d6000fd5b50505050506040513d601f19601f8201168201806040525081019061085f9190611bd8565b90507f9ef465a513d3907321fbc06db999b22497925c91f2cc1ee6b0a52b141d3263b28160405161089291815260200190565b60405180910390a1505050565b6001600160a01b03821660009081526003602052604090205460ff166108d85760405163fa50582160e01b815260040160405180910390fd5b6040516323b872dd60e01b8152336004820152306024820152604481018290526001600160a01b038316906323b872dd906064016020604051808303816000875af115801561092b573d6000803e3d6000fd5b505050506040513d601f19601f8201168201806040525081019061094f9190611bf1565b50816001600160a01b03167f5af8184bef8e4b45eb9f6ed7734d04da38ced226495548f46e0c8ff8d7d9a5248260405161098b91815260200190565b60405180910390a25050565b61099f611550565b600580546001600160a01b0319166001600160a01b0392909216919091179055565b6001600160a01b03811660009081526003602052604090205460ff16156109fa5760405162a679fd60e01b815260040160405180910390fd5b6004805460018082019092557f8a35acfbc15ff81a39ae7d344fd709f28e8600b4aa8c65c6b64bfe7fe36bd19b0180546001600160a01b0319166001600160a01b038416908117909155600081815260036020908152604091829020805460ff1916909417909355519081527f2587a8aae32052dc3489cced391a070648eedad0b8670a76ce103ee5df587e4a910160405180910390a150565b60048181548110610aa457600080fd5b6000918252602090912001546001600160a01b0316905081565b60016040518060c0016040528060026000815480929190610ade90611b7e565b9190505581526020016000815260200185858080601f01602080910402602001604051908101604052809392919081815260200183838082843760009201829052509385525050506001600160a01b0385166020808401919091526040805183815280830182528185015280518381528083018252606090940193909352845460018082018755958352918190208451600690930201918255830151938101939093558101519091906002820190610b969082611c77565b5060608201516003820180546001600160a01b0319166001600160a01b0390921691909117905560808201518051610bd89160048401916020909101906115fa565b5060a08201518051610bf491600584019160209091019061165f565b5050506001600254610c069190611d37565b7fc0c54fed07481d0998e1446b2c13759606bf4f26b78306307413ac4c4309aa82848484604051610c3993929190611d50565b60405180910390a2505050565b60606001805480602002602001604051908101604052809291908181526020016000905b82821015610e0c57838290600052602060002090600602016040518060c00160405290816000820154815260200160018201548152602001600282018054610cb190611b18565b80601f0160208091040260200160405190810160405280929190818152602001828054610cdd90611b18565b8015610d2a5780601f10610cff57610100808354040283529160200191610d2a565b820191906000526020600020905b815481529060010190602001808311610d0d57829003601f168201915b505050918352505060038201546001600160a01b03166020808301919091526004830180546040805182850281018501825282815294019392830182828015610d9c57602002820191906000526020600020905b81546001600160a01b03168152600190910190602001808311610d7e575b5050505050815260200160058201805480602002602001604051908101604052809291908181526020018280548015610df457602002820191906000526020600020905b815481526020019060010190808311610de0575b50505050508152505081526020019060010190610c6a565b50505050905090565b610e1d611550565b6001600160a01b038116610e825760405162461bcd60e51b815260206004820152602660248201527f4f776e61626c653a206e6577206f776e657220697320746865207a65726f206160448201526564647265737360d01b60648201526084016104f4565b610e8b816115aa565b50565b6040516370a0823160e01b815230600482015260009081906001600160a01b038416906370a0823190602401602060405180830381865afa158015610ed7573d6000803e3d6000fd5b505050506040513d601f19601f82011682018060405250810190610efb9190611bd8565b60405163095ea7b360e01b815273bd7aaa2984c0a887e93c66baae222749883763d36004820152602481018290529091506001600160a01b0384169063095ea7b3906044016020604051808303816000875af1158015610f5f573d6000803e3d6000fd5b505050506040513d601f19601f82011682018060405250810190610f839190611bf1565b50610fe6604080516101008101825260008082526020808301829052828401829052606083018290526080830182905260a083018290528351808501855282815280820183905260c084015283518085019094528184528301529060e082015290565b3081526001600160a01b038581166020808401919091526001600160801b038416604080850191909152918616606084015260016080840152815180830183526014815260509181019190915260c083015251632ac59f3360e21b815273bd7aaa2984c0a887e93c66baae222749883763d39063ab167ccc9061106d908490600401611d91565b6020604051808303816000875af115801561108c573d6000803e3d6000fd5b505050506040513d601f19601f820116820180604052508101906110b09190611bd8565b95945050505050565b6040516370a0823160e01b815230600482015260009081906001600160a01b038416906370a0823190602401602060405180830381865afa158015611102573d6000803e3d6000fd5b505050506040513d601f19601f820116820180604052508101906111269190611bd8565b60405163095ea7b360e01b815273f46d5fa9bfc964e8d06846c8739aec69bc06344d6004820152602481018290529091506001600160a01b0384169063095ea7b3906044016020604051808303816000875af115801561118a573d6000803e3d6000fd5b505050506040513d601f19601f820116820180604052508101906111ae9190611bf1565b506111b761169a565b3081526001600160a01b0385811660608301526001600160801b0383166080830152841660a08201526001602082018190526040805182815280820190915290816020015b60408051606081018252600080825260208083018290529282015282526000199092019101816111fc57505060e08201908152604080516060810182526001600160801b03851681526753444835ec58000060208201526014918101919091529051805160009061126f5761126f611b52565b6020908102919091010152604051630b42222b60e11b815273f46d5fa9bfc964e8d06846c8739aec69bc06344d9063168444569061106d908490600401611ea7565b6040516370a0823160e01b815230600482015260009081906001600160a01b038416906370a0823190602401602060405180830381865afa1580156112fa573d6000803e3d6000fd5b505050506040513d601f19601f8201168201806040525081019061131e9190611bd8565b60405163095ea7b360e01b815273f46d5fa9bfc964e8d06846c8739aec69bc06344d6004820152602481018290529091506001600160a01b0384169063095ea7b3906044016020604051808303816000875af1158015611382573d6000803e3d6000fd5b505050506040513d601f19601f820116820180604052508101906113a69190611bf1565b506113af6116ef565b3081526001600160a01b0385811660808301526001600160801b03831660a0830152841660c0820152600160408201526113ea42601e611f5a565b64ffffffffff1660208201526040805160028082526060820190925290816020015b604080516060810182526000808252602080830182905292820152825260001990920191018161140c575050610100820152604080516060810190915280611455600285611f6d565b6001600160801b03168152670de0b6b3a7640000602082015260400161147c42600a611f5a565b64ffffffffff1681525081610100015160008151811061149e5761149e611b52565b60200260200101819052506040518060600160405280836001600160801b031681526020016114d2672b93855d12ba000090565b67ffffffffffffffff1681526020016114ec426078611f5a565b64ffffffffff1681525081610100015160018151811061150e5761150e611b52565b602090810291909101015260405163619e69af60e11b815273f46d5fa9bfc964e8d06846c8739aec69bc06344d9063c33cd35e9061106d908490600401611f93565b6000546001600160a01b031633146107d65760405162461bcd60e51b815260206004820181905260248201527f4f776e61626c653a2063616c6c6572206973206e6f7420746865206f776e657260448201526064016104f4565b600080546001600160a01b038381166001600160a01b0319831681178455604051919092169283917f8be0079c531659141344cd1fd0a4f28419497f9722a3daafe3b4186f6b6457e09190a35050565b82805482825590600052602060002090810192821561164f579160200282015b8281111561164f57825182546001600160a01b0319166001600160a01b0390911617825560209092019160019091019061161a565b5061165b929150611742565b5090565b82805482825590600052602060002090810192821561164f579160200282015b8281111561164f57825182559160200191906001019061167f565b604080516101008101825260008082526020808301829052828401829052606083018290526080830182905260a0830182905283518085019094528184528301529060c08201905b8152602001606081525090565b604080516101208101825260008082526020808301829052828401829052606083018290526080830182905260a0830182905260c0830182905283518085019094528184528301529060e08201906116e2565b5b8082111561165b5760008155600101611743565b80356001600160a01b038116811461176e57600080fd5b919050565b60008060006060848603121561178857600080fd5b61179184611757565b925061179f60208501611757565b9150604084013590509250925092565b6000602082840312156117c157600080fd5b5035919050565b6000815180845260005b818110156117ee576020818501810151868301820152016117d2565b506000602082860101526020601f19601f83011685010191505092915050565b84815283602082015260806040820152600061182d60808301856117c8565b905060018060a01b038316606083015295945050505050565b60008060006040848603121561185b57600080fd5b83359250602084013567ffffffffffffffff8082111561187a57600080fd5b818601915086601f83011261188e57600080fd5b81358181111561189d57600080fd5b8760208260051b85010111156118b257600080fd5b6020830194508093505050509250925092565b6000602082840312156118d757600080fd5b813563ffffffff811681146118eb57600080fd5b9392505050565b6000806040838503121561190557600080fd5b61190e83611757565b946020939093013593505050565b60006020828403121561192e57600080fd5b6118eb82611757565b60008060006040848603121561194c57600080fd5b833567ffffffffffffffff8082111561196457600080fd5b818601915086601f83011261197857600080fd5b81358181111561198757600080fd5b87602082850101111561199957600080fd5b6020928301955093506119af9186019050611757565b90509250925092565b600081518084526020808501945080840160005b838110156119e8578151875295820195908201906001016119cc565b509495945050505050565b60006020808301818452808551808352604092508286019150828160051b8701018488016000805b84811015611adf57603f198a8503018652825160c081518652898201518a87015288820151818a880152611a51828801826117c8565b6060848101516001600160a01b03908116918a01919091526080808601518a8403918b01919091528051808452908e019450918d01925086915b80831015611aad57845182168452938d0193928d019260019290920191611a8b565b50505060a09283015187820388850152929150611aca81846119b8565b988b0198965050509288019250600101611a1b565b50919998505050505050505050565b634e487b7160e01b600052601260045260246000fd5b600082611b1357611b13611aee565b500690565b600181811c90821680611b2c57607f821691505b602082108103611b4c57634e487b7160e01b600052602260045260246000fd5b50919050565b634e487b7160e01b600052603260045260246000fd5b634e487b7160e01b600052601160045260246000fd5b600060018201611b9057611b90611b68565b5060010190565b838152604060208201819052810182905260006001600160fb1b03831115611bbe57600080fd5b8260051b8085606085013791909101606001949350505050565b600060208284031215611bea57600080fd5b5051919050565b600060208284031215611c0357600080fd5b815180151581146118eb57600080fd5b634e487b7160e01b600052604160045260246000fd5b601f8211156103c857600081815260208120601f850160051c81016020861015611c505750805b601f850160051c820191505b81811015611c6f57828155600101611c5c565b505050505050565b815167ffffffffffffffff811115611c9157611c91611c13565b611ca581611c9f8454611b18565b84611c29565b602080601f831160018114611cda5760008415611cc25750858301515b600019600386901b1c1916600185901b178555611c6f565b600085815260208120601f198616915b82811015611d0957888601518255948401946001909101908401611cea565b5085821015611d275787850151600019600388901b60f8161c191681555b5050505050600190811b01905550565b81810381811115611d4a57611d4a611b68565b92915050565b6040815282604082015282846060830137600060608483018101919091526001600160a01b03929092166020820152601f909201601f191690910101919050565b81516001600160a01b0390811682526020808401518216908301526040808401516001600160801b03169083015260608084015190911690820152608080830151610140830191611de59084018215159052565b5060a0830151611df960a084018215159052565b5060c0830151611e2060c0840182805164ffffffffff908116835260209182015116910152565b5060e0929092015180516001600160a01b0316610100830152602001516101209091015290565b600081518084526020808501945080840160005b838110156119e857815180516001600160801b031688528381015167ffffffffffffffff168489015260409081015164ffffffffff169088015260609096019590820190600101611e5b565b602080825282516001600160a01b031682820152820151151560408083019190915282015180151560608301526000905060608301516001600160a01b03811660808401525060808301516001600160801b03811660a08401525060a08301516001600160a01b03811660c08401525060c083015180516001600160a01b031660e084015260208101516101008401525060e083015161012083810152611f52610140840182611e47565b949350505050565b80820180821115611d4a57611d4a611b68565b60006001600160801b0380841680611f8757611f87611aee565b92169190910492915050565b60208152611fad6020820183516001600160a01b03169052565b60006020830151611fc7604084018264ffffffffff169052565b506040830151801515606084015250606083015180151560808401525060808301516001600160a01b03811660a08401525060a08301516001600160801b03811660c08401525060c08301516001600160a01b03811660e08401525060e083015161010061204a8185018380516001600160a01b03168252602090810151910152565b840151610140848101529050611f52610160840182611e4756fea2646970667358221220b84e63cc00f7c4d169e4e6ae2a5706907079e965825a117e28a03387dced058964736f6c634300081300330000000000000000000000005a562294808c5470873831ff456e86369dc32dcb",
        "nonce": "0xaf",
        "accessList": []
      },
      "additionalContracts": [],
      "isFixedGasLimit": false
    },
    {
      "hash": "0x55ee4690540376748c9f04955a1ecedc9e3ba42ceff297dde71d437003a41a89",
      "transactionType": "CALL",
      "contractName": "contracts/FundingRound.sol:FundingRound",
      "contractAddress": "0xeC30fbC06f5c7a706f5fE9B21c95C8F80C495b5C",
      "function": "createProject(string,address)",
      "arguments": [
        "\"Project 1\"",
        "0x5a562294808c5470873831ff456e86369dc32dcB"
      ],
      "transaction": {
        "type": "0x02",
        "from": "0x5a562294808c5470873831ff456e86369dc32dcb",
        "to": "0xec30fbc06f5c7a706f5fe9b21c95c8f80c495b5c",
        "gas": "0x29c41",
        "value": "0x0",
        "data": "0xc65579ad00000000000000000000000000000000000000000000000000000000000000400000000000000000000000005a562294808c5470873831ff456e86369dc32dcb000000000000000000000000000000000000000000000000000000000000000950726f6a65637420310000000000000000000000000000000000000000000000",
        "nonce": "0xb0",
        "accessList": []
      },
      "additionalContracts": [],
      "isFixedGasLimit": false
    },
    {
      "hash": "0xcaf7d8d7ae2077f521ee257820afb722068cb5e0cd7bcb4e1b2339921ced835c",
      "transactionType": "CALL",
      "contractName": "contracts/FundingRound.sol:FundingRound",
      "contractAddress": "0xeC30fbC06f5c7a706f5fE9B21c95C8F80C495b5C",
      "function": "createProject(string,address)",
      "arguments": [
        "\"Project 2\"",
        "0x5a562294808c5470873831ff456e86369dc32dcB"
      ],
      "transaction": {
        "type": "0x02",
        "from": "0x5a562294808c5470873831ff456e86369dc32dcb",
        "to": "0xec30fbc06f5c7a706f5fe9b21c95c8f80c495b5c",
        "gas": "0x271df",
        "value": "0x0",
        "data": "0xc65579ad00000000000000000000000000000000000000000000000000000000000000400000000000000000000000005a562294808c5470873831ff456e86369dc32dcb000000000000000000000000000000000000000000000000000000000000000950726f6a65637420320000000000000000000000000000000000000000000000",
        "nonce": "0xb1",
        "accessList": []
      },
      "additionalContracts": [],
      "isFixedGasLimit": false
    },
    {
      "hash": "0x7b6a3db26e9864c949de878f64fc3b1725e8958e58cf59ee84d2ba204f946b4a",
      "transactionType": "CALL",
      "contractName": "contracts/FundingRound.sol:FundingRound",
      "contractAddress": "0xeC30fbC06f5c7a706f5fE9B21c95C8F80C495b5C",
      "function": "createProject(string,address)",
      "arguments": [
        "\"Project 3\"",
        "0x5a562294808c5470873831ff456e86369dc32dcB"
      ],
      "transaction": {
        "type": "0x02",
        "from": "0x5a562294808c5470873831ff456e86369dc32dcb",
        "to": "0xec30fbc06f5c7a706f5fe9b21c95c8f80c495b5c",
        "gas": "0x271df",
        "value": "0x0",
        "data": "0xc65579ad00000000000000000000000000000000000000000000000000000000000000400000000000000000000000005a562294808c5470873831ff456e86369dc32dcb000000000000000000000000000000000000000000000000000000000000000950726f6a65637420330000000000000000000000000000000000000000000000",
        "nonce": "0xb2",
        "accessList": []
      },
      "additionalContracts": [],
      "isFixedGasLimit": false
    },
    {
      "hash": "0x2f22929a73de47d384c4f600bcb10f8d125ec48ebf4c7d5e083b7cfb53621f07",
      "transactionType": "CALL",
      "contractName": "contracts/FundingRound.sol:FundingRound",
      "contractAddress": "0xeC30fbC06f5c7a706f5fE9B21c95C8F80C495b5C",
      "function": "setShitCoin(address)",
      "arguments": [
        "0x07B8FF46Cc6e366Fe12e4d3D47825000d9948eCD"
      ],
      "transaction": {
        "type": "0x02",
        "from": "0x5a562294808c5470873831ff456e86369dc32dcb",
        "to": "0xec30fbc06f5c7a706f5fe9b21c95c8f80c495b5c",
        "gas": "0x1e34c",
        "value": "0x0",
        "data": "0xb49521c400000000000000000000000007b8ff46cc6e366fe12e4d3d47825000d9948ecd",
        "nonce": "0xb3",
        "accessList": []
      },
      "additionalContracts": [],
      "isFixedGasLimit": false
    },
    {
      "hash": "0x467202be1ef9ff350c5859327566df956d9e920d5a88beeb1515f5e83d9795bf",
      "transactionType": "CALL",
      "contractName": "contracts/FundingRound.sol:FundingRound",
      "contractAddress": "0xeC30fbC06f5c7a706f5fE9B21c95C8F80C495b5C",
      "function": "setShitCoin(address)",
      "arguments": [
        "0x030996ec60617Fe293B4A51c97bE0973C9ECDF33"
      ],
      "transaction": {
        "type": "0x02",
        "from": "0x5a562294808c5470873831ff456e86369dc32dcb",
        "to": "0xec30fbc06f5c7a706f5fe9b21c95c8f80c495b5c",
        "gas": "0x1871a",
        "value": "0x0",
        "data": "0xb49521c4000000000000000000000000030996ec60617fe293b4a51c97be0973c9ecdf33",
        "nonce": "0xb4",
        "accessList": []
      },
      "additionalContracts": [],
      "isFixedGasLimit": false
    },
    {
      "hash": "0xa45cb924cffc69ec3b8fdb599657f2028508782c638d68da8279df32a6e448ca",
      "transactionType": "CALL",
      "contractName": "contracts/FundingRound.sol:FundingRound",
      "contractAddress": "0xeC30fbC06f5c7a706f5fE9B21c95C8F80C495b5C",
      "function": "setShitCoin(address)",
      "arguments": [
        "0x9080cFe04A99afeBF37EaA40441c4191B46c2cd1"
      ],
      "transaction": {
        "type": "0x02",
        "from": "0x5a562294808c5470873831ff456e86369dc32dcb",
        "to": "0xec30fbc06f5c7a706f5fe9b21c95c8f80c495b5c",
        "gas": "0x1871a",
        "value": "0x0",
        "data": "0xb49521c40000000000000000000000009080cfe04a99afebf37eaa40441c4191b46c2cd1",
        "nonce": "0xb5",
        "accessList": []
      },
      "additionalContracts": [],
      "isFixedGasLimit": false
    },
    {
      "hash": "0x5b5fdcfd04b6d7005d7afdf575f020562043beea296afcc06da024cf38151d68",
      "transactionType": "CALL",
      "contractName": "contracts/FundingRound.sol:FundingRound",
      "contractAddress": "0xeC30fbC06f5c7a706f5fE9B21c95C8F80C495b5C",
      "function": "setShitCoin(address)",
      "arguments": [
        "0xf45b4dE5C02A7FD2cb137145fb52e7D6d5a9a32e"
      ],
      "transaction": {
        "type": "0x02",
        "from": "0x5a562294808c5470873831ff456e86369dc32dcb",
        "to": "0xec30fbc06f5c7a706f5fe9b21c95c8f80c495b5c",
        "gas": "0x1871a",
        "value": "0x0",
        "data": "0xb49521c4000000000000000000000000f45b4de5c02a7fd2cb137145fb52e7d6d5a9a32e",
        "nonce": "0xb6",
        "accessList": []
      },
      "additionalContracts": [],
      "isFixedGasLimit": false
    },
    {
      "hash": "0xfb7ed301d0aac6207071f45b88b2210c21d44858395a938761e9af7179d6ca97",
      "transactionType": "CALL",
      "contractName": "contracts/FundingRound.sol:FundingRound",
      "contractAddress": "0xeC30fbC06f5c7a706f5fE9B21c95C8F80C495b5C",
      "function": "setShitCoin(address)",
      "arguments": [
        "0xB77Ff06d00179F0811E9788B2cBA6A2b0011B165"
      ],
      "transaction": {
        "type": "0x02",
        "from": "0x5a562294808c5470873831ff456e86369dc32dcb",
        "to": "0xec30fbc06f5c7a706f5fe9b21c95c8f80c495b5c",
        "gas": "0x186f8",
        "value": "0x0",
        "data": "0xb49521c4000000000000000000000000b77ff06d00179f0811e9788b2cba6a2b0011b165",
        "nonce": "0xb7",
        "accessList": []
      },
      "additionalContracts": [],
      "isFixedGasLimit": false
    },
    {
      "hash": "0x7f4aa05354e505f027623b331418d8e1383270c7671ef2fd89c22ed9d86e8252",
      "transactionType": "CALL",
      "contractName": "contracts/FundingRound.sol:FundingRound",
      "contractAddress": "0xeC30fbC06f5c7a706f5fE9B21c95C8F80C495b5C",
      "function": "setGatewayAddress(address)",
      "arguments": [
        "0xfaFCfceC4e29e9b4ECc8C0a3f7df1011580EEEf2"
      ],
      "transaction": {
        "type": "0x02",
        "from": "0x5a562294808c5470873831ff456e86369dc32dcb",
        "to": "0xec30fbc06f5c7a706f5fe9b21c95c8f80c495b5c",
        "gas": "0xf8ea",
        "value": "0x0",
        "data": "0xa35ff076000000000000000000000000fafcfcec4e29e9b4ecc8c0a3f7df1011580eeef2",
        "nonce": "0xb8",
        "accessList": []
      },
      "additionalContracts": [],
      "isFixedGasLimit": false
    }
  ],
  "receipts": [
    {
      "transactionHash": "0x15d2a955b67c64c443ddefb9dc27c0b7c9a551cf096ea201ed575d1fe26bb15b",
      "transactionIndex": "0x1",
      "blockHash": "0xb91c8449ac9d4b9f0a32c5fc542645c39d1d4083bdc518ef4f8cd2e36a736b65",
      "blockNumber": "0x7a1a07",
      "from": "0x5a562294808c5470873831ff456e86369dc32dcB",
      "to": null,
      "cumulativeGasUsed": "0x1d7764",
      "gasUsed": "0x1ccc19",
      "contractAddress": "0xeC30fbC06f5c7a706f5fE9B21c95C8F80C495b5C",
      "logs": [
        {
          "address": "0xeC30fbC06f5c7a706f5fE9B21c95C8F80C495b5C",
          "topics": [
            "0x8be0079c531659141344cd1fd0a4f28419497f9722a3daafe3b4186f6b6457e0",
            "0x0000000000000000000000000000000000000000000000000000000000000000",
            "0x0000000000000000000000005a562294808c5470873831ff456e86369dc32dcb"
          ],
          "data": "0x",
          "blockHash": "0xb91c8449ac9d4b9f0a32c5fc542645c39d1d4083bdc518ef4f8cd2e36a736b65",
          "blockNumber": "0x7a1a07",
          "transactionHash": "0x15d2a955b67c64c443ddefb9dc27c0b7c9a551cf096ea201ed575d1fe26bb15b",
          "transactionIndex": "0x1",
          "logIndex": "0x0",
          "removed": false
        },
        {
          "address": "0xeC30fbC06f5c7a706f5fE9B21c95C8F80C495b5C",
          "topics": [
            "0x8be0079c531659141344cd1fd0a4f28419497f9722a3daafe3b4186f6b6457e0",
            "0x0000000000000000000000005a562294808c5470873831ff456e86369dc32dcb",
            "0x0000000000000000000000005a562294808c5470873831ff456e86369dc32dcb"
          ],
          "data": "0x",
          "blockHash": "0xb91c8449ac9d4b9f0a32c5fc542645c39d1d4083bdc518ef4f8cd2e36a736b65",
          "blockNumber": "0x7a1a07",
          "transactionHash": "0x15d2a955b67c64c443ddefb9dc27c0b7c9a551cf096ea201ed575d1fe26bb15b",
          "transactionIndex": "0x1",
          "logIndex": "0x1",
          "removed": false
        }
      ],
      "status": "0x1",
      "logsBloom": "0x00000000000000000000000000000000000000000000000000800000000000000000000000000000000000000000000000000000000000000000000000000000000000000000000000000000000000000001000000000004000000000220000000000000020000000000000000000800000200000000000000000000000000400000000000000000000000000000000000000000000000000000000000000000000000900000000000000000000000000000000000000000000000000000000000000000000000000000000000000000000000000000000000000000000020000000000000000000000000000000000000000000000000000000000000000000",
      "type": "0x2",
      "effectiveGasPrice": "0xb2d2a577"
    },
    {
      "transactionHash": "0x55ee4690540376748c9f04955a1ecedc9e3ba42ceff297dde71d437003a41a89",
      "transactionIndex": "0x2",
      "blockHash": "0xb91c8449ac9d4b9f0a32c5fc542645c39d1d4083bdc518ef4f8cd2e36a736b65",
      "blockNumber": "0x7a1a07",
      "from": "0x5a562294808c5470873831ff456e86369dc32dcB",
      "to": "0xeC30fbC06f5c7a706f5fE9B21c95C8F80C495b5C",
      "cumulativeGasUsed": "0x1f5b33",
      "gasUsed": "0x1e3cf",
      "contractAddress": null,
      "logs": [
        {
          "address": "0xeC30fbC06f5c7a706f5fE9B21c95C8F80C495b5C",
          "topics": [
            "0xc0c54fed07481d0998e1446b2c13759606bf4f26b78306307413ac4c4309aa82",
            "0x0000000000000000000000000000000000000000000000000000000000000000"
          ],
          "data": "0x00000000000000000000000000000000000000000000000000000000000000400000000000000000000000005a562294808c5470873831ff456e86369dc32dcb000000000000000000000000000000000000000000000000000000000000000950726f6a65637420310000000000000000000000000000000000000000000000",
          "blockHash": "0xb91c8449ac9d4b9f0a32c5fc542645c39d1d4083bdc518ef4f8cd2e36a736b65",
          "blockNumber": "0x7a1a07",
          "transactionHash": "0x55ee4690540376748c9f04955a1ecedc9e3ba42ceff297dde71d437003a41a89",
          "transactionIndex": "0x2",
          "logIndex": "0x2",
          "removed": false
        }
      ],
      "status": "0x1",
      "logsBloom": "0x00000000000000000000000000000000000000000000000000000000000000000000000000000000000000000000000000000000000000000000000000000000000000000000000000001000000000000000000000000000008000000000000000000000020000000000000000000800000200000000000000000000000000000000000000000000000000000000000000000000000000000000000000000000008000900000000000000000000000000000000000000000000000000000000000000000000000000000000000000000000000000000000000000000000020000000000000000000000000000000000000000000000000000000000000000000",
      "type": "0x2",
      "effectiveGasPrice": "0xb2d2a577"
    },
    {
      "transactionHash": "0xcaf7d8d7ae2077f521ee257820afb722068cb5e0cd7bcb4e1b2339921ced835c",
      "transactionIndex": "0x3",
      "blockHash": "0xb91c8449ac9d4b9f0a32c5fc542645c39d1d4083bdc518ef4f8cd2e36a736b65",
      "blockNumber": "0x7a1a07",
      "from": "0x5a562294808c5470873831ff456e86369dc32dcB",
      "to": "0xeC30fbC06f5c7a706f5fE9B21c95C8F80C495b5C",
      "cumulativeGasUsed": "0x210726",
      "gasUsed": "0x1abf3",
      "contractAddress": null,
      "logs": [
        {
          "address": "0xeC30fbC06f5c7a706f5fE9B21c95C8F80C495b5C",
          "topics": [
            "0xc0c54fed07481d0998e1446b2c13759606bf4f26b78306307413ac4c4309aa82",
            "0x0000000000000000000000000000000000000000000000000000000000000001"
          ],
          "data": "0x00000000000000000000000000000000000000000000000000000000000000400000000000000000000000005a562294808c5470873831ff456e86369dc32dcb000000000000000000000000000000000000000000000000000000000000000950726f6a65637420320000000000000000000000000000000000000000000000",
          "blockHash": "0xb91c8449ac9d4b9f0a32c5fc542645c39d1d4083bdc518ef4f8cd2e36a736b65",
          "blockNumber": "0x7a1a07",
          "transactionHash": "0xcaf7d8d7ae2077f521ee257820afb722068cb5e0cd7bcb4e1b2339921ced835c",
          "transactionIndex": "0x3",
          "logIndex": "0x3",
          "removed": false
        }
      ],
      "status": "0x1",
      "logsBloom": "0x00000000000000000000000000000000000000000000000000000000000000000000000000000000000000000000000000000000000000000000000000040000000000000000000000001000000000000000000000040000008000000000000000000000000000000000000000000000000200000000000000000000000000000000000000000000000000000000000000000000000000000000000000000000008000900000000000000000000000000000000000000000000000000000000000000000000000000000000000000000000000000000000000000000000040000000000000000000000000000000000000000000000000000000000000000000",
      "type": "0x2",
      "effectiveGasPrice": "0xb2d2a577"
    },
    {
      "transactionHash": "0x7b6a3db26e9864c949de878f64fc3b1725e8958e58cf59ee84d2ba204f946b4a",
      "transactionIndex": "0x4",
      "blockHash": "0xb91c8449ac9d4b9f0a32c5fc542645c39d1d4083bdc518ef4f8cd2e36a736b65",
      "blockNumber": "0x7a1a07",
      "from": "0x5a562294808c5470873831ff456e86369dc32dcB",
      "to": "0xeC30fbC06f5c7a706f5fE9B21c95C8F80C495b5C",
      "cumulativeGasUsed": "0x22b319",
      "gasUsed": "0x1abf3",
      "contractAddress": null,
      "logs": [
        {
          "address": "0xeC30fbC06f5c7a706f5fE9B21c95C8F80C495b5C",
          "topics": [
            "0xc0c54fed07481d0998e1446b2c13759606bf4f26b78306307413ac4c4309aa82",
            "0x0000000000000000000000000000000000000000000000000000000000000002"
          ],
          "data": "0x00000000000000000000000000000000000000000000000000000000000000400000000000000000000000005a562294808c5470873831ff456e86369dc32dcb000000000000000000000000000000000000000000000000000000000000000950726f6a65637420330000000000000000000000000000000000000000000000",
          "blockHash": "0xb91c8449ac9d4b9f0a32c5fc542645c39d1d4083bdc518ef4f8cd2e36a736b65",
          "blockNumber": "0x7a1a07",
          "transactionHash": "0x7b6a3db26e9864c949de878f64fc3b1725e8958e58cf59ee84d2ba204f946b4a",
          "transactionIndex": "0x4",
          "logIndex": "0x4",
          "removed": false
        }
      ],
      "status": "0x1",
      "logsBloom": "0x04000000000000000000000000000000000000000000000000000000000000000000000000000000000000000000000000000000000000000000000000000000000000000000000000001000000000000000000000000000008000000000000000000000000000000000000000000000000200000000000000000000000000000000000000000000000000000000000000000000000000000000000000000000008000900000000000000100000000000000000000000000000000000000000000000000000000000000000000000000000000000000000000000000000000000000000000000000000000000000000000000000008000000000000000000000",
      "type": "0x2",
      "effectiveGasPrice": "0xb2d2a577"
    },
    {
      "transactionHash": "0x2f22929a73de47d384c4f600bcb10f8d125ec48ebf4c7d5e083b7cfb53621f07",
      "transactionIndex": "0x5",
      "blockHash": "0xb91c8449ac9d4b9f0a32c5fc542645c39d1d4083bdc518ef4f8cd2e36a736b65",
      "blockNumber": "0x7a1a07",
      "from": "0x5a562294808c5470873831ff456e86369dc32dcB",
      "to": "0xeC30fbC06f5c7a706f5fE9B21c95C8F80C495b5C",
      "cumulativeGasUsed": "0x241100",
      "gasUsed": "0x15de7",
      "contractAddress": null,
      "logs": [
        {
          "address": "0xeC30fbC06f5c7a706f5fE9B21c95C8F80C495b5C",
          "topics": [
            "0x2587a8aae32052dc3489cced391a070648eedad0b8670a76ce103ee5df587e4a"
          ],
          "data": "0x00000000000000000000000007b8ff46cc6e366fe12e4d3d47825000d9948ecd",
          "blockHash": "0xb91c8449ac9d4b9f0a32c5fc542645c39d1d4083bdc518ef4f8cd2e36a736b65",
          "blockNumber": "0x7a1a07",
          "transactionHash": "0x2f22929a73de47d384c4f600bcb10f8d125ec48ebf4c7d5e083b7cfb53621f07",
          "transactionIndex": "0x5",
          "logIndex": "0x5",
          "removed": false
        }
      ],
      "status": "0x1",
      "logsBloom": "0x00000000000000000000000000000000000000000000000000000000000000000000000000000000000000000000000000000000000000000000000000000000000000000000000000000001000000000000000000000000000000000000000000000000000000000000000000000000000200000000000000000200000100000000000000000000000000000000000000000000000000000000000000000000000000900000000000000000000000000000000000000000000000000000000000000000000000000000000000000000000000000000000000000000000000000000000000000000000000000000000000000000000000000000000000000000",
      "type": "0x2",
      "effectiveGasPrice": "0xb2d2a577"
    },
    {
      "transactionHash": "0x467202be1ef9ff350c5859327566df956d9e920d5a88beeb1515f5e83d9795bf",
      "transactionIndex": "0x6",
      "blockHash": "0xb91c8449ac9d4b9f0a32c5fc542645c39d1d4083bdc518ef4f8cd2e36a736b65",
      "blockNumber": "0x7a1a07",
      "from": "0x5a562294808c5470873831ff456e86369dc32dcB",
      "to": "0xeC30fbC06f5c7a706f5fE9B21c95C8F80C495b5C",
      "cumulativeGasUsed": "0x252c27",
      "gasUsed": "0x11b27",
      "contractAddress": null,
      "logs": [
        {
          "address": "0xeC30fbC06f5c7a706f5fE9B21c95C8F80C495b5C",
          "topics": [
            "0x2587a8aae32052dc3489cced391a070648eedad0b8670a76ce103ee5df587e4a"
          ],
          "data": "0x000000000000000000000000030996ec60617fe293b4a51c97be0973c9ecdf33",
          "blockHash": "0xb91c8449ac9d4b9f0a32c5fc542645c39d1d4083bdc518ef4f8cd2e36a736b65",
          "blockNumber": "0x7a1a07",
          "transactionHash": "0x467202be1ef9ff350c5859327566df956d9e920d5a88beeb1515f5e83d9795bf",
          "transactionIndex": "0x6",
          "logIndex": "0x6",
          "removed": false
        }
      ],
      "status": "0x1",
      "logsBloom": "0x00000000000000000000000000000000000000000000000000000000000000000000000000000000000000000000000000000000000000000000000000000000000000000000000000000001000000000000000000000000000000000000000000000000000000000000000000000000000200000000000000000200000100000000000000000000000000000000000000000000000000000000000000000000000000900000000000000000000000000000000000000000000000000000000000000000000000000000000000000000000000000000000000000000000000000000000000000000000000000000000000000000000000000000000000000000",
      "type": "0x2",
      "effectiveGasPrice": "0xb2d2a577"
    },
    {
      "transactionHash": "0xa45cb924cffc69ec3b8fdb599657f2028508782c638d68da8279df32a6e448ca",
      "transactionIndex": "0x7",
      "blockHash": "0xb91c8449ac9d4b9f0a32c5fc542645c39d1d4083bdc518ef4f8cd2e36a736b65",
      "blockNumber": "0x7a1a07",
      "from": "0x5a562294808c5470873831ff456e86369dc32dcB",
      "to": "0xeC30fbC06f5c7a706f5fE9B21c95C8F80C495b5C",
      "cumulativeGasUsed": "0x26474e",
      "gasUsed": "0x11b27",
      "contractAddress": null,
      "logs": [
        {
          "address": "0xeC30fbC06f5c7a706f5fE9B21c95C8F80C495b5C",
          "topics": [
            "0x2587a8aae32052dc3489cced391a070648eedad0b8670a76ce103ee5df587e4a"
          ],
          "data": "0x0000000000000000000000009080cfe04a99afebf37eaa40441c4191b46c2cd1",
          "blockHash": "0xb91c8449ac9d4b9f0a32c5fc542645c39d1d4083bdc518ef4f8cd2e36a736b65",
          "blockNumber": "0x7a1a07",
          "transactionHash": "0xa45cb924cffc69ec3b8fdb599657f2028508782c638d68da8279df32a6e448ca",
          "transactionIndex": "0x7",
          "logIndex": "0x7",
          "removed": false
        }
      ],
      "status": "0x1",
      "logsBloom": "0x00000000000000000000000000000000000000000000000000000000000000000000000000000000000000000000000000000000000000000000000000000000000000000000000000000001000000000000000000000000000000000000000000000000000000000000000000000000000200000000000000000200000100000000000000000000000000000000000000000000000000000000000000000000000000900000000000000000000000000000000000000000000000000000000000000000000000000000000000000000000000000000000000000000000000000000000000000000000000000000000000000000000000000000000000000000",
      "type": "0x2",
      "effectiveGasPrice": "0xb2d2a577"
    },
    {
      "transactionHash": "0x5b5fdcfd04b6d7005d7afdf575f020562043beea296afcc06da024cf38151d68",
      "transactionIndex": "0x8",
      "blockHash": "0xb91c8449ac9d4b9f0a32c5fc542645c39d1d4083bdc518ef4f8cd2e36a736b65",
      "blockNumber": "0x7a1a07",
      "from": "0x5a562294808c5470873831ff456e86369dc32dcB",
      "to": "0xeC30fbC06f5c7a706f5fE9B21c95C8F80C495b5C",
      "cumulativeGasUsed": "0x276275",
      "gasUsed": "0x11b27",
      "contractAddress": null,
      "logs": [
        {
          "address": "0xeC30fbC06f5c7a706f5fE9B21c95C8F80C495b5C",
          "topics": [
            "0x2587a8aae32052dc3489cced391a070648eedad0b8670a76ce103ee5df587e4a"
          ],
          "data": "0x000000000000000000000000f45b4de5c02a7fd2cb137145fb52e7d6d5a9a32e",
          "blockHash": "0xb91c8449ac9d4b9f0a32c5fc542645c39d1d4083bdc518ef4f8cd2e36a736b65",
          "blockNumber": "0x7a1a07",
          "transactionHash": "0x5b5fdcfd04b6d7005d7afdf575f020562043beea296afcc06da024cf38151d68",
          "transactionIndex": "0x8",
          "logIndex": "0x8",
          "removed": false
        }
      ],
      "status": "0x1",
      "logsBloom": "0x00000000000000000000000000000000000000000000000000000000000000000000000000000000000000000000000000000000000000000000000000000000000000000000000000000001000000000000000000000000000000000000000000000000000000000000000000000000000200000000000000000200000100000000000000000000000000000000000000000000000000000000000000000000000000900000000000000000000000000000000000000000000000000000000000000000000000000000000000000000000000000000000000000000000000000000000000000000000000000000000000000000000000000000000000000000",
      "type": "0x2",
      "effectiveGasPrice": "0xb2d2a577"
    },
    {
      "transactionHash": "0xfb7ed301d0aac6207071f45b88b2210c21d44858395a938761e9af7179d6ca97",
      "transactionIndex": "0x9",
      "blockHash": "0xb91c8449ac9d4b9f0a32c5fc542645c39d1d4083bdc518ef4f8cd2e36a736b65",
      "blockNumber": "0x7a1a07",
      "from": "0x5a562294808c5470873831ff456e86369dc32dcB",
      "to": "0xeC30fbC06f5c7a706f5fE9B21c95C8F80C495b5C",
      "cumulativeGasUsed": "0x287d84",
      "gasUsed": "0x11b0f",
      "contractAddress": null,
      "logs": [
        {
          "address": "0xeC30fbC06f5c7a706f5fE9B21c95C8F80C495b5C",
          "topics": [
            "0x2587a8aae32052dc3489cced391a070648eedad0b8670a76ce103ee5df587e4a"
          ],
          "data": "0x000000000000000000000000b77ff06d00179f0811e9788b2cba6a2b0011b165",
          "blockHash": "0xb91c8449ac9d4b9f0a32c5fc542645c39d1d4083bdc518ef4f8cd2e36a736b65",
          "blockNumber": "0x7a1a07",
          "transactionHash": "0xfb7ed301d0aac6207071f45b88b2210c21d44858395a938761e9af7179d6ca97",
          "transactionIndex": "0x9",
          "logIndex": "0x9",
          "removed": false
        }
      ],
      "status": "0x1",
      "logsBloom": "0x00000000000000000000000000000000000000000000000000000000000000000000000000000000000000000000000000000000000000000000000000000000000000000000000000000001000000000000000000000000000000000000000000000000000000000000000000000000000200000000000000000200000100000000000000000000000000000000000000000000000000000000000000000000000000900000000000000000000000000000000000000000000000000000000000000000000000000000000000000000000000000000000000000000000000000000000000000000000000000000000000000000000000000000000000000000",
      "type": "0x2",
      "effectiveGasPrice": "0xb2d2a577"
    },
    {
      "transactionHash": "0x7f4aa05354e505f027623b331418d8e1383270c7671ef2fd89c22ed9d86e8252",
      "transactionIndex": "0xa",
      "blockHash": "0xb91c8449ac9d4b9f0a32c5fc542645c39d1d4083bdc518ef4f8cd2e36a736b65",
      "blockNumber": "0x7a1a07",
      "from": "0x5a562294808c5470873831ff456e86369dc32dcB",
      "to": "0xeC30fbC06f5c7a706f5fE9B21c95C8F80C495b5C",
      "cumulativeGasUsed": "0x2931ba",
      "gasUsed": "0xb436",
      "contractAddress": null,
      "logs": [],
      "status": "0x1",
      "logsBloom": "0x00000000000000000000000000000000000000000000000000000000000000000000000000000000000000000000000000000000000000000000000000000000000000000000000000000000000000000000000000000000000000000000000000000000000000000000000000000000000000000000000000000000000000000000000000000000000000000000000000000000000000000000000000000000000000000000000000000000000000000000000000000000000000000000000000000000000000000000000000000000000000000000000000000000000000000000000000000000000000000000000000000000000000000000000000000000",
      "type": "0x2",
      "effectiveGasPrice": "0xb2d2a577"
    }
  ],
  "libraries": [],
  "pending": [],
  "returns": {},
  "timestamp": 1711772403,
  "chain": 84532,
  "multi": false,
  "commit": "255cc20"
}