{
  "transactions": [
    {
      "hash": "0x3017817f9aa0e2c9f0085b355a52422f0cc6832cfcd1c7593b27bf7f2ddc2b6c",
      "transactionType": "CREATE",
      "contractName": "FundingRound",
      "contractAddress": "0x18D0de25070d0B28F01B24DB0A880e736A97E6aD",
      "function": null,
      "arguments": [
        "0x5a562294808c5470873831ff456e86369dc32dcB"
      ],
      "transaction": {
        "type": "0x02",
        "from": "0x5a562294808c5470873831ff456e86369dc32dcb",
        "gas": "0x28edf0",
        "value": "0x0",
        "data": "0x608060405260006002553480156200001657600080fd5b50604051620024b4380380620024b48339810160408190526200003991620000a6565b620000443362000056565b6200004f8162000056565b50620000d8565b600080546001600160a01b038381166001600160a01b0319831681178455604051919092169283917f8be0079c531659141344cd1fd0a4f28419497f9722a3daafe3b4186f6b6457e09190a35050565b600060208284031215620000b957600080fd5b81516001600160a01b0381168114620000d157600080fd5b9392505050565b6123cc80620000e86000396000f3fe6080604052600436106100fe5760003560e01c80638da5cb5b11610095578063c0bc417811610064578063c0bc4178146102ac578063c65579ad146102cc578063d05c572c146102ec578063dcc601281461032c578063f2fde38b1461034e57600080fd5b80638da5cb5b146102265780639e93e57714610244578063a35ff0761461026c578063b49521c41461028c57600080fd5b8063715018a6116100d1578063715018a6146101b657806372add818146101cb578063769d2475146101f35780637b1837de1461020657600080fd5b80630f95c1bd14610103578063107046bd1461012557806323b311a91461015e57806338ba461414610196575b600080fd5b34801561010f57600080fd5b5061012361011e366004611aa5565b61036e565b005b34801561013157600080fd5b50610145610140366004611ae1565b6103cd565b6040516101559493929190611b40565b60405180910390f35b34801561016a57600080fd5b5060055461017e906001600160a01b031681565b6040516001600160a01b039091168152602001610155565b3480156101a257600080fd5b506101236101b1366004611b78565b61049e565b3480156101c257600080fd5b5061012361099b565b3480156101d757600080fd5b5061017e73f46d5fa9bfc964e8d06846c8739aec69bc06344d81565b610123610201366004611bf7565b6109af565b34801561021257600080fd5b50610123610221366004611c24565b610a76565b34801561023257600080fd5b506000546001600160a01b031661017e565b34801561025057600080fd5b5061017e73bd7aaa2984c0a887e93c66baae222749883763d381565b34801561027857600080fd5b50610123610287366004611c4e565b610b6e565b34801561029857600080fd5b506101236102a7366004611c4e565b610b98565b3480156102b857600080fd5b5061017e6102c7366004611ae1565b610c6b565b3480156102d857600080fd5b506101236102e7366004611c69565b610c95565b3480156102f857600080fd5b5061031c610307366004611c4e565b60036020526000908152604090205460ff1681565b6040519015158152602001610155565b34801561033857600080fd5b50610341610e1d565b6040516101559190611d25565b34801561035a57600080fd5b50610123610369366004611c4e565b610fec565b610379600382611e36565b6000036103905761038a8383611065565b50505050565b61039b600382611e36565b6001036103ac5761038a83836112d9565b6103b7600382611e36565b6002036103c85761038a838361155a565b505050565b600181815481106103dd57600080fd5b906000526020600020906006020160009150905080600001549080600101549080600201805461040c90611e4a565b80601f016020809104026020016040519081016040528092919081815260200182805461043890611e4a565b80156104855780601f1061045a57610100808354040283529160200191610485565b820191906000526020600020905b81548152906001019060200180831161046857829003601f168201915b505050600390930154919250506001600160a01b031684565b6005546001600160a01b031633146104fd5760405162461bcd60e51b815260206004820152601f60248201527f6f6e6c792053656372657420476174657761792063616e2066756c66696c6c0060448201526064015b60405180910390fd5b60006001805480602002602001604051908101604052809291908181526020016000905b828210156106c357838290600052602060002090600602016040518060c0016040529081600082015481526020016001820154815260200160028201805461056890611e4a565b80601f016020809104026020016040519081016040528092919081815260200182805461059490611e4a565b80156105e15780601f106105b6576101008083540402835291602001916105e1565b820191906000526020600020905b8154815290600101906020018083116105c457829003601f168201915b505050918352505060038201546001600160a01b0316602080830191909152600483018054604080518285028101850182528281529401939283018282801561065357602002820191906000526020600020905b81546001600160a01b03168152600190910190602001808311610635575b50505050508152602001600582018054806020026020016040519081016040528092919081815260200182805480156106ab57602002820191906000526020600020905b815481526020019060010190808311610697575b50505050508152505081526020019060010190610521565b50505050905060005b600454811015610959576000600482815481106106eb576106eb611e84565b6000918252602090912001546040516370a0823160e01b81523060048201526001600160a01b03909116906370a0823190602401602060405180830381865afa15801561073c573d6000803e3d6000fd5b505050506040513d601f19601f820116820180604052508101906107609190611e9a565b90508015610948576000835186868581811061077e5761077e611e84565b9050602002013561078f9190611e36565b9050600181815481106107a4576107a4611e84565b9060005260206000209060060201600401600484815481106107c8576107c8611e84565b6000918252602080832090910154835460018181018655948452919092200180546001600160a01b0319166001600160a01b0390921691909117905580548290811061081657610816611e84565b90600052602060002090600602016005016004848154811061083a5761083a611e84565b6000918252602090912001546040516370a0823160e01b81523060048201526001600160a01b03909116906370a0823190602401602060405180830381865afa15801561088b573d6000803e3d6000fd5b505050506040513d601f19601f820116820180604052508101906108af9190611e9a565b81546001818101845560009384526020909320015580546109469190839081106108db576108db611e84565b906000526020600020906006020160030160009054906101000a90046001600160a01b03166004858154811061091357610913611e84565b6000918252602090912001546001600160a01b031688888781811061093a5761093a611e84565b9050602002013561036e565b505b5061095281611ec9565b90506106cc565b507fe7ecfe6928c754cbd5282724cb865166ac3a20565babb867db6047900d72372384848460405161098d93929190611ee2565b60405180910390a150505050565b6109a3611882565b6109ad60006118dc565b565b6005546001546040516361bf619360e01b815263ffffffff918216600482015290831660248201526001600160a01b039091169060009082906361bf619390349060440160206040518083038185885af1158015610a11573d6000803e3d6000fd5b50505050506040513d601f19601f82011682018060405250810190610a369190611e9a565b90507f9ef465a513d3907321fbc06db999b22497925c91f2cc1ee6b0a52b141d3263b281604051610a6991815260200190565b60405180910390a1505050565b6001600160a01b03821660009081526003602052604090205460ff16610aaf5760405163fa50582160e01b815260040160405180910390fd5b6040516323b872dd60e01b8152336004820152306024820152604481018290526001600160a01b038316906323b872dd906064016020604051808303816000875af1158015610b02573d6000803e3d6000fd5b505050506040513d601f19601f82011682018060405250810190610b269190611f23565b50816001600160a01b03167f5af8184bef8e4b45eb9f6ed7734d04da38ced226495548f46e0c8ff8d7d9a52482604051610b6291815260200190565b60405180910390a25050565b610b76611882565b600580546001600160a01b0319166001600160a01b0392909216919091179055565b6001600160a01b03811660009081526003602052604090205460ff1615610bd15760405162a679fd60e01b815260040160405180910390fd5b6004805460018082019092557f8a35acfbc15ff81a39ae7d344fd709f28e8600b4aa8c65c6b64bfe7fe36bd19b0180546001600160a01b0319166001600160a01b038416908117909155600081815260036020908152604091829020805460ff1916909417909355519081527f2587a8aae32052dc3489cced391a070648eedad0b8670a76ce103ee5df587e4a910160405180910390a150565b60048181548110610c7b57600080fd5b6000918252602090912001546001600160a01b0316905081565b60016040518060c0016040528060026000815480929190610cb590611ec9565b9190505581526020016000815260200185858080601f01602080910402602001604051908101604052809392919081815260200183838082843760009201829052509385525050506001600160a01b0385166020808401919091526040805183815280830182528185015280518381528083018252606090940193909352845460018082018755958352918190208451600690930201918255830151938101939093558101519091906002820190610d6d9082611fa9565b5060608201516003820180546001600160a01b0319166001600160a01b0390921691909117905560808201518051610daf91600484019160209091019061192c565b5060a08201518051610dcb916005840191602090910190611991565b5050506001600254610ddd9190612069565b7fc0c54fed07481d0998e1446b2c13759606bf4f26b78306307413ac4c4309aa82848484604051610e1093929190612082565b60405180910390a2505050565b60606001805480602002602001604051908101604052809291908181526020016000905b82821015610fe357838290600052602060002090600602016040518060c00160405290816000820154815260200160018201548152602001600282018054610e8890611e4a565b80601f0160208091040260200160405190810160405280929190818152602001828054610eb490611e4a565b8015610f015780601f10610ed657610100808354040283529160200191610f01565b820191906000526020600020905b815481529060010190602001808311610ee457829003601f168201915b505050918352505060038201546001600160a01b03166020808301919091526004830180546040805182850281018501825282815294019392830182828015610f7357602002820191906000526020600020905b81546001600160a01b03168152600190910190602001808311610f55575b5050505050815260200160058201805480602002602001604051908101604052809291908181526020018280548015610fcb57602002820191906000526020600020905b815481526020019060010190808311610fb7575b50505050508152505081526020019060010190610e41565b50505050905090565b610ff4611882565b6001600160a01b0381166110595760405162461bcd60e51b815260206004820152602660248201527f4f776e61626c653a206e6577206f776e657220697320746865207a65726f206160448201526564647265737360d01b60648201526084016104f4565b611062816118dc565b50565b6040516370a0823160e01b815230600482015260009081906001600160a01b038416906370a0823190602401602060405180830381865afa1580156110ae573d6000803e3d6000fd5b505050506040513d601f19601f820116820180604052508101906110d29190611e9a565b60405163095ea7b360e01b815273bd7aaa2984c0a887e93c66baae222749883763d36004820152602481018290529091506001600160a01b0384169063095ea7b3906044016020604051808303816000875af1158015611136573d6000803e3d6000fd5b505050506040513d601f19601f8201168201806040525081019061115a9190611f23565b506111bd604080516101008101825260008082526020808301829052828401829052606083018290526080830182905260a083018290528351808501855282815280820183905260c084015283518085019094528184528301529060e082015290565b3081526001600160a01b038581166020808401919091526001600160801b038416604080850191909152918616606084015260016080840152815180830183526014815260509181019190915260c083015251632ac59f3360e21b815273bd7aaa2984c0a887e93c66baae222749883763d39063ab167ccc906112449084906004016120c3565b6020604051808303816000875af1158015611263573d6000803e3d6000fd5b505050506040513d601f19601f820116820180604052508101906112879190611e9a565b604080518481526001600160a01b038881166020830152929550918616917f8a6e6d2f30b3ecf08f8659167a601ef4236b6810b5e93ef2ba1138662343a42d91015b60405180910390a2505092915050565b6040516370a0823160e01b815230600482015260009081906001600160a01b038416906370a0823190602401602060405180830381865afa158015611322573d6000803e3d6000fd5b505050506040513d601f19601f820116820180604052508101906113469190611e9a565b60405163095ea7b360e01b815273f46d5fa9bfc964e8d06846c8739aec69bc06344d6004820152602481018290529091506001600160a01b0384169063095ea7b3906044016020604051808303816000875af11580156113aa573d6000803e3d6000fd5b505050506040513d601f19601f820116820180604052508101906113ce9190611f23565b506113d76119cc565b3081526001600160a01b0385811660608301526001600160801b0383166080830152841660a08201526001602082018190526040805182815280820190915290816020015b604080516060810182526000808252602080830182905292820152825260001990920191018161141c57505060e08201908152604080516060810182526001600160801b03851681526753444835ec58000060208201526014918101919091529051805160009061148f5761148f611e84565b6020908102919091010152604051630b42222b60e11b815273f46d5fa9bfc964e8d06846c8739aec69bc06344d906316844456906114d19084906004016121d9565b6020604051808303816000875af11580156114f0573d6000803e3d6000fd5b505050506040513d601f19601f820116820180604052508101906115149190611e9a565b604080518481526001600160a01b038881166020830152929550918616917f3d9d2ef7ae14794c94822da9407acbc434e44b8b2d1a74bd1b9323ebc063a57f91016112c9565b6040516370a0823160e01b815230600482015260009081906001600160a01b038416906370a0823190602401602060405180830381865afa1580156115a3573d6000803e3d6000fd5b505050506040513d601f19601f820116820180604052508101906115c79190611e9a565b60405163095ea7b360e01b815273f46d5fa9bfc964e8d06846c8739aec69bc06344d6004820152602481018290529091506001600160a01b0384169063095ea7b3906044016020604051808303816000875af115801561162b573d6000803e3d6000fd5b505050506040513d601f19601f8201168201806040525081019061164f9190611f23565b50611658611a21565b3081526001600160a01b0385811660808301526001600160801b03831660a0830152841660c08201526001604082015261169342601e61228c565b64ffffffffff1660208201526040805160028082526060820190925290816020015b60408051606081018252600080825260208083018290529282015282526000199092019101816116b55750506101008201526040805160608101909152806116fe60028561229f565b6001600160801b03168152670de0b6b3a7640000602082015260400161172542600a61228c565b64ffffffffff1681525081610100015160008151811061174757611747611e84565b60200260200101819052506040518060600160405280836001600160801b0316815260200161177b672b93855d12ba000090565b67ffffffffffffffff16815260200161179542607861228c565b64ffffffffff168152508161010001516001815181106117b7576117b7611e84565b602090810291909101015260405163619e69af60e11b815273f46d5fa9bfc964e8d06846c8739aec69bc06344d9063c33cd35e906117f99084906004016122c5565b6020604051808303816000875af1158015611818573d6000803e3d6000fd5b505050506040513d601f19601f8201168201806040525081019061183c9190611e9a565b604080518481526001600160a01b038881166020830152929550918616917fbe09a44412e01f231b75059b9d4b1d1ef6b9abe3db88e6afe794e0bf5fb49f8b91016112c9565b6000546001600160a01b031633146109ad5760405162461bcd60e51b815260206004820181905260248201527f4f776e61626c653a2063616c6c6572206973206e6f7420746865206f776e657260448201526064016104f4565b600080546001600160a01b038381166001600160a01b0319831681178455604051919092169283917f8be0079c531659141344cd1fd0a4f28419497f9722a3daafe3b4186f6b6457e09190a35050565b828054828255906000526020600020908101928215611981579160200282015b8281111561198157825182546001600160a01b0319166001600160a01b0390911617825560209092019160019091019061194c565b5061198d929150611a74565b5090565b828054828255906000526020600020908101928215611981579160200282015b828111156119815782518255916020019190600101906119b1565b604080516101008101825260008082526020808301829052828401829052606083018290526080830182905260a0830182905283518085019094528184528301529060c08201905b8152602001606081525090565b604080516101208101825260008082526020808301829052828401829052606083018290526080830182905260a0830182905260c0830182905283518085019094528184528301529060e0820190611a14565b5b8082111561198d5760008155600101611a75565b80356001600160a01b0381168114611aa057600080fd5b919050565b600080600060608486031215611aba57600080fd5b611ac384611a89565b9250611ad160208501611a89565b9150604084013590509250925092565b600060208284031215611af357600080fd5b5035919050565b6000815180845260005b81811015611b2057602081850181015186830182015201611b04565b506000602082860101526020601f19601f83011685010191505092915050565b848152836020820152608060408201526000611b5f6080830185611afa565b905060018060a01b038316606083015295945050505050565b600080600060408486031215611b8d57600080fd5b83359250602084013567ffffffffffffffff80821115611bac57600080fd5b818601915086601f830112611bc057600080fd5b813581811115611bcf57600080fd5b8760208260051b8501011115611be457600080fd5b6020830194508093505050509250925092565b600060208284031215611c0957600080fd5b813563ffffffff81168114611c1d57600080fd5b9392505050565b60008060408385031215611c3757600080fd5b611c4083611a89565b946020939093013593505050565b600060208284031215611c6057600080fd5b611c1d82611a89565b600080600060408486031215611c7e57600080fd5b833567ffffffffffffffff80821115611c9657600080fd5b818601915086601f830112611caa57600080fd5b813581811115611cb957600080fd5b876020828501011115611ccb57600080fd5b602092830195509350611ce19186019050611a89565b90509250925092565b600081518084526020808501945080840160005b83811015611d1a57815187529582019590820190600101611cfe565b509495945050505050565b60006020808301818452808551808352604092508286019150828160051b8701018488016000805b84811015611e1157603f198a8503018652825160c081518652898201518a87015288820151818a880152611d8382880182611afa565b6060848101516001600160a01b03908116918a01919091526080808601518a8403918b01919091528051808452908e019450918d01925086915b80831015611ddf57845182168452938d0193928d019260019290920191611dbd565b50505060a09283015187820388850152929150611dfc8184611cea565b988b0198965050509288019250600101611d4d565b50919998505050505050505050565b634e487b7160e01b600052601260045260246000fd5b600082611e4557611e45611e20565b500690565b600181811c90821680611e5e57607f821691505b602082108103611e7e57634e487b7160e01b600052602260045260246000fd5b50919050565b634e487b7160e01b600052603260045260246000fd5b600060208284031215611eac57600080fd5b5051919050565b634e487b7160e01b600052601160045260246000fd5b600060018201611edb57611edb611eb3565b5060010190565b838152604060208201819052810182905260006001600160fb1b03831115611f0957600080fd5b8260051b8085606085013791909101606001949350505050565b600060208284031215611f3557600080fd5b81518015158114611c1d57600080fd5b634e487b7160e01b600052604160045260246000fd5b601f8211156103c857600081815260208120601f850160051c81016020861015611f825750805b601f850160051c820191505b81811015611fa157828155600101611f8e565b505050505050565b815167ffffffffffffffff811115611fc357611fc3611f45565b611fd781611fd18454611e4a565b84611f5b565b602080601f83116001811461200c5760008415611ff45750858301515b600019600386901b1c1916600185901b178555611fa1565b600085815260208120601f198616915b8281101561203b5788860151825594840194600190910190840161201c565b50858210156120595787850151600019600388901b60f8161c191681555b5050505050600190811b01905550565b8181038181111561207c5761207c611eb3565b92915050565b6040815282604082015282846060830137600060608483018101919091526001600160a01b03929092166020820152601f909201601f191690910101919050565b81516001600160a01b0390811682526020808401518216908301526040808401516001600160801b031690830152606080840151909116908201526080808301516101408301916121179084018215159052565b5060a083015161212b60a084018215159052565b5060c083015161215260c0840182805164ffffffffff908116835260209182015116910152565b5060e0929092015180516001600160a01b0316610100830152602001516101209091015290565b600081518084526020808501945080840160005b83811015611d1a57815180516001600160801b031688528381015167ffffffffffffffff168489015260409081015164ffffffffff16908801526060909601959082019060010161218d565b602080825282516001600160a01b031682820152820151151560408083019190915282015180151560608301526000905060608301516001600160a01b03811660808401525060808301516001600160801b03811660a08401525060a08301516001600160a01b03811660c08401525060c083015180516001600160a01b031660e084015260208101516101008401525060e083015161012083810152612284610140840182612179565b949350505050565b8082018082111561207c5761207c611eb3565b60006001600160801b03808416806122b9576122b9611e20565b92169190910492915050565b602081526122df6020820183516001600160a01b03169052565b600060208301516122f9604084018264ffffffffff169052565b506040830151801515606084015250606083015180151560808401525060808301516001600160a01b03811660a08401525060a08301516001600160801b03811660c08401525060c08301516001600160a01b03811660e08401525060e083015161010061237c8185018380516001600160a01b03168252602090810151910152565b84015161014084810152905061228461016084018261217956fea26469706673582212200aa612a502b0453f9a9a6b18341da5217a9a670a759c22492f93b02ae65cd01e64736f6c634300081300330000000000000000000000005a562294808c5470873831ff456e86369dc32dcb",
        "nonce": "0xe0",
        "accessList": []
      },
      "additionalContracts": [],
      "isFixedGasLimit": false
    },
    {
      "hash": "0x356a1e8ef8a0c5577ea5c0dbda2f2e3a3cf93510b35a3d59f1824d52d39caa38",
      "transactionType": "CALL",
      "contractName": "contracts/FundingRound.sol:FundingRound",
      "contractAddress": "0x18D0de25070d0B28F01B24DB0A880e736A97E6aD",
      "function": "createProject(string,address)",
      "arguments": [
        "\"Project 1\"",
        "0x5a562294808c5470873831ff456e86369dc32dcB"
      ],
      "transaction": {
        "type": "0x02",
        "from": "0x5a562294808c5470873831ff456e86369dc32dcb",
        "to": "0x18d0de25070d0b28f01b24db0a880e736a97e6ad",
        "gas": "0x29c41",
        "value": "0x0",
        "data": "0xc65579ad00000000000000000000000000000000000000000000000000000000000000400000000000000000000000005a562294808c5470873831ff456e86369dc32dcb000000000000000000000000000000000000000000000000000000000000000950726f6a65637420310000000000000000000000000000000000000000000000",
        "nonce": "0xe1",
        "accessList": []
      },
      "additionalContracts": [],
      "isFixedGasLimit": false
    },
    {
      "hash": "0x8f94fa551c6aeb2cd9f0c08e44744e78fc864c222e479d2e1f306f30bf5df980",
      "transactionType": "CALL",
      "contractName": "contracts/FundingRound.sol:FundingRound",
      "contractAddress": "0x18D0de25070d0B28F01B24DB0A880e736A97E6aD",
      "function": "createProject(string,address)",
      "arguments": [
        "\"Project 2\"",
        "0x5a562294808c5470873831ff456e86369dc32dcB"
      ],
      "transaction": {
        "type": "0x02",
        "from": "0x5a562294808c5470873831ff456e86369dc32dcb",
        "to": "0x18d0de25070d0b28f01b24db0a880e736a97e6ad",
        "gas": "0x271df",
        "value": "0x0",
        "data": "0xc65579ad00000000000000000000000000000000000000000000000000000000000000400000000000000000000000005a562294808c5470873831ff456e86369dc32dcb000000000000000000000000000000000000000000000000000000000000000950726f6a65637420320000000000000000000000000000000000000000000000",
        "nonce": "0xe2",
        "accessList": []
      },
      "additionalContracts": [],
      "isFixedGasLimit": false
    },
    {
      "hash": "0xbc610775ad761281ef3e72ac94d6c4814777609027a6c55d65317aacfac9310f",
      "transactionType": "CALL",
      "contractName": "contracts/FundingRound.sol:FundingRound",
      "contractAddress": "0x18D0de25070d0B28F01B24DB0A880e736A97E6aD",
      "function": "createProject(string,address)",
      "arguments": [
        "\"Project 3\"",
        "0x5a562294808c5470873831ff456e86369dc32dcB"
      ],
      "transaction": {
        "type": "0x02",
        "from": "0x5a562294808c5470873831ff456e86369dc32dcb",
        "to": "0x18d0de25070d0b28f01b24db0a880e736a97e6ad",
        "gas": "0x271df",
        "value": "0x0",
        "data": "0xc65579ad00000000000000000000000000000000000000000000000000000000000000400000000000000000000000005a562294808c5470873831ff456e86369dc32dcb000000000000000000000000000000000000000000000000000000000000000950726f6a65637420330000000000000000000000000000000000000000000000",
        "nonce": "0xe3",
        "accessList": []
      },
      "additionalContracts": [],
      "isFixedGasLimit": false
    },
    {
      "hash": "0xbca8eb9d40276de28bb311af8dcf2ae0c260d7df0375a1c44096a9e0054c0b7e",
      "transactionType": "CALL",
      "contractName": "contracts/FundingRound.sol:FundingRound",
      "contractAddress": "0x18D0de25070d0B28F01B24DB0A880e736A97E6aD",
      "function": "setShitCoin(address)",
      "arguments": [
        "0x07B8FF46Cc6e366Fe12e4d3D47825000d9948eCD"
      ],
      "transaction": {
        "type": "0x02",
        "from": "0x5a562294808c5470873831ff456e86369dc32dcb",
        "to": "0x18d0de25070d0b28f01b24db0a880e736a97e6ad",
        "gas": "0x1e34c",
        "value": "0x0",
        "data": "0xb49521c400000000000000000000000007b8ff46cc6e366fe12e4d3d47825000d9948ecd",
        "nonce": "0xe4",
        "accessList": []
      },
      "additionalContracts": [],
      "isFixedGasLimit": false
    },
    {
      "hash": "0x1a465f473ce6794511c6aa546bc809d84f34b134719c43ce191bdb0fae5044dc",
      "transactionType": "CALL",
      "contractName": "contracts/FundingRound.sol:FundingRound",
      "contractAddress": "0x18D0de25070d0B28F01B24DB0A880e736A97E6aD",
      "function": "setShitCoin(address)",
      "arguments": [
        "0x030996ec60617Fe293B4A51c97bE0973C9ECDF33"
      ],
      "transaction": {
        "type": "0x02",
        "from": "0x5a562294808c5470873831ff456e86369dc32dcb",
        "to": "0x18d0de25070d0b28f01b24db0a880e736a97e6ad",
        "gas": "0x1871a",
        "value": "0x0",
        "data": "0xb49521c4000000000000000000000000030996ec60617fe293b4a51c97be0973c9ecdf33",
        "nonce": "0xe5",
        "accessList": []
      },
      "additionalContracts": [],
      "isFixedGasLimit": false
    },
    {
      "hash": "0x75183b54d73bba5ab200c3aa4a4209eedccdec10928f4c2b0958510c9eebc71b",
      "transactionType": "CALL",
      "contractName": "contracts/FundingRound.sol:FundingRound",
      "contractAddress": "0x18D0de25070d0B28F01B24DB0A880e736A97E6aD",
      "function": "setShitCoin(address)",
      "arguments": [
        "0x9080cFe04A99afeBF37EaA40441c4191B46c2cd1"
      ],
      "transaction": {
        "type": "0x02",
        "from": "0x5a562294808c5470873831ff456e86369dc32dcb",
        "to": "0x18d0de25070d0b28f01b24db0a880e736a97e6ad",
        "gas": "0x1871a",
        "value": "0x0",
        "data": "0xb49521c40000000000000000000000009080cfe04a99afebf37eaa40441c4191b46c2cd1",
        "nonce": "0xe6",
        "accessList": []
      },
      "additionalContracts": [],
      "isFixedGasLimit": false
    },
    {
      "hash": "0x918321b7d7ea3317a1eb61f50cd155a2b9dcf31dcd0b231bc2c274b75cc82f50",
      "transactionType": "CALL",
      "contractName": "contracts/FundingRound.sol:FundingRound",
      "contractAddress": "0x18D0de25070d0B28F01B24DB0A880e736A97E6aD",
      "function": "setShitCoin(address)",
      "arguments": [
        "0xf45b4dE5C02A7FD2cb137145fb52e7D6d5a9a32e"
      ],
      "transaction": {
        "type": "0x02",
        "from": "0x5a562294808c5470873831ff456e86369dc32dcb",
        "to": "0x18d0de25070d0b28f01b24db0a880e736a97e6ad",
        "gas": "0x1871a",
        "value": "0x0",
        "data": "0xb49521c4000000000000000000000000f45b4de5c02a7fd2cb137145fb52e7d6d5a9a32e",
        "nonce": "0xe7",
        "accessList": []
      },
      "additionalContracts": [],
      "isFixedGasLimit": false
    },
    {
      "hash": "0xa49ad25ccf383c9a2bdefd6710e08872327cafdab257c30e921104cd1005a7d6",
      "transactionType": "CALL",
      "contractName": "contracts/FundingRound.sol:FundingRound",
      "contractAddress": "0x18D0de25070d0B28F01B24DB0A880e736A97E6aD",
      "function": "setShitCoin(address)",
      "arguments": [
        "0xB77Ff06d00179F0811E9788B2cBA6A2b0011B165"
      ],
      "transaction": {
        "type": "0x02",
        "from": "0x5a562294808c5470873831ff456e86369dc32dcb",
        "to": "0x18d0de25070d0b28f01b24db0a880e736a97e6ad",
        "gas": "0x186f8",
        "value": "0x0",
        "data": "0xb49521c4000000000000000000000000b77ff06d00179f0811e9788b2cba6a2b0011b165",
        "nonce": "0xe8",
        "accessList": []
      },
      "additionalContracts": [],
      "isFixedGasLimit": false
    },
    {
      "hash": "0x4ce751abbb5bc068eeb9b5601a8d5eba56d1872376a9bbf7391cdce1973369eb",
      "transactionType": "CALL",
      "contractName": "contracts/FundingRound.sol:FundingRound",
      "contractAddress": "0x18D0de25070d0B28F01B24DB0A880e736A97E6aD",
      "function": "setGatewayAddress(address)",
      "arguments": [
        "0xfaFCfceC4e29e9b4ECc8C0a3f7df1011580EEEf2"
      ],
      "transaction": {
        "type": "0x02",
        "from": "0x5a562294808c5470873831ff456e86369dc32dcb",
        "to": "0x18d0de25070d0b28f01b24db0a880e736a97e6ad",
        "gas": "0xf8ea",
        "value": "0x0",
        "data": "0xa35ff076000000000000000000000000fafcfcec4e29e9b4ecc8c0a3f7df1011580eeef2",
        "nonce": "0xe9",
        "accessList": []
      },
      "additionalContracts": [],
      "isFixedGasLimit": false
    }
  ],
  "receipts": [
    {
      "transactionHash": "0x3017817f9aa0e2c9f0085b355a52422f0cc6832cfcd1c7593b27bf7f2ddc2b6c",
      "transactionIndex": "0x1",
      "blockHash": "0xd5cd6b608558491b69985d95eb3c1dd7c58c6cae93a8393344c1318a52472a5a",
      "blockNumber": "0x7a1d67",
      "from": "0x5a562294808c5470873831ff456e86369dc32dcB",
      "to": null,
      "cumulativeGasUsed": "0x202999",
      "gasUsed": "0x1f7e42",
      "contractAddress": "0x18D0de25070d0B28F01B24DB0A880e736A97E6aD",
      "logs": [
        {
          "address": "0x18D0de25070d0B28F01B24DB0A880e736A97E6aD",
          "topics": [
            "0x8be0079c531659141344cd1fd0a4f28419497f9722a3daafe3b4186f6b6457e0",
            "0x0000000000000000000000000000000000000000000000000000000000000000",
            "0x0000000000000000000000005a562294808c5470873831ff456e86369dc32dcb"
          ],
          "data": "0x",
          "blockHash": "0xd5cd6b608558491b69985d95eb3c1dd7c58c6cae93a8393344c1318a52472a5a",
          "blockNumber": "0x7a1d67",
          "transactionHash": "0x3017817f9aa0e2c9f0085b355a52422f0cc6832cfcd1c7593b27bf7f2ddc2b6c",
          "transactionIndex": "0x1",
          "logIndex": "0x0",
          "removed": false
        },
        {
          "address": "0x18D0de25070d0B28F01B24DB0A880e736A97E6aD",
          "topics": [
            "0x8be0079c531659141344cd1fd0a4f28419497f9722a3daafe3b4186f6b6457e0",
            "0x0000000000000000000000005a562294808c5470873831ff456e86369dc32dcb",
            "0x0000000000000000000000005a562294808c5470873831ff456e86369dc32dcb"
          ],
          "data": "0x",
          "blockHash": "0xd5cd6b608558491b69985d95eb3c1dd7c58c6cae93a8393344c1318a52472a5a",
          "blockNumber": "0x7a1d67",
          "transactionHash": "0x3017817f9aa0e2c9f0085b355a52422f0cc6832cfcd1c7593b27bf7f2ddc2b6c",
          "transactionIndex": "0x1",
          "logIndex": "0x1",
          "removed": false
        }
      ],
      "status": "0x1",
      "logsBloom": "0x00000000000000000000000000000000000000000000010000800000000000000000000000000000000000000000000000000000000000000000000000000000000000000000000000000000000000000001000000000004000008000220000000000000020000000000000000000800000000000000000000000000000000400000000000000000000000000000000000000000000000000000000000000000000000000000000000000000000000000000000000000000000000000000000000000000000000000000000000000000000000000000000000000000000020000000000000000000000000000000000000000000000000000000000800000000",
      "type": "0x2",
      "effectiveGasPrice": "0xb2d0acd5"
    },
    {
      "transactionHash": "0x356a1e8ef8a0c5577ea5c0dbda2f2e3a3cf93510b35a3d59f1824d52d39caa38",
      "transactionIndex": "0x2",
      "blockHash": "0xd5cd6b608558491b69985d95eb3c1dd7c58c6cae93a8393344c1318a52472a5a",
      "blockNumber": "0x7a1d67",
      "from": "0x5a562294808c5470873831ff456e86369dc32dcB",
      "to": "0x18D0de25070d0B28F01B24DB0A880e736A97E6aD",
      "cumulativeGasUsed": "0x220d68",
      "gasUsed": "0x1e3cf",
      "contractAddress": null,
      "logs": [
        {
          "address": "0x18D0de25070d0B28F01B24DB0A880e736A97E6aD",
          "topics": [
            "0xc0c54fed07481d0998e1446b2c13759606bf4f26b78306307413ac4c4309aa82",
            "0x0000000000000000000000000000000000000000000000000000000000000000"
          ],
          "data": "0x00000000000000000000000000000000000000000000000000000000000000400000000000000000000000005a562294808c5470873831ff456e86369dc32dcb000000000000000000000000000000000000000000000000000000000000000950726f6a65637420310000000000000000000000000000000000000000000000",
          "blockHash": "0xd5cd6b608558491b69985d95eb3c1dd7c58c6cae93a8393344c1318a52472a5a",
          "blockNumber": "0x7a1d67",
          "transactionHash": "0x356a1e8ef8a0c5577ea5c0dbda2f2e3a3cf93510b35a3d59f1824d52d39caa38",
          "transactionIndex": "0x2",
          "logIndex": "0x2",
          "removed": false
        }
      ],
      "status": "0x1",
      "logsBloom": "0x00000000000000000000000000000000000000000000010000000000000000000000000000000000000000000000000000000000000000000000000000000000000000000000000000001000000000000000000000000000008008000000000000000000020000000000000000000800000000000000000000000000000000000000000000000000000000000000000000000000000000000000000000000000008000000000000000000000000000000000000000000000000000000000000000000000000000000000000000000000000000000000000000000000000020000000000000000000000000000000000000000000000000000000000800000000",
      "type": "0x2",
      "effectiveGasPrice": "0xb2d0acd5"
    },
    {
      "transactionHash": "0x8f94fa551c6aeb2cd9f0c08e44744e78fc864c222e479d2e1f306f30bf5df980",
      "transactionIndex": "0x3",
      "blockHash": "0xd5cd6b608558491b69985d95eb3c1dd7c58c6cae93a8393344c1318a52472a5a",
      "blockNumber": "0x7a1d67",
      "from": "0x5a562294808c5470873831ff456e86369dc32dcB",
      "to": "0x18D0de25070d0B28F01B24DB0A880e736A97E6aD",
      "cumulativeGasUsed": "0x23b95b",
      "gasUsed": "0x1abf3",
      "contractAddress": null,
      "logs": [
        {
          "address": "0x18D0de25070d0B28F01B24DB0A880e736A97E6aD",
          "topics": [
            "0xc0c54fed07481d0998e1446b2c13759606bf4f26b78306307413ac4c4309aa82",
            "0x0000000000000000000000000000000000000000000000000000000000000001"
          ],
          "data": "0x00000000000000000000000000000000000000000000000000000000000000400000000000000000000000005a562294808c5470873831ff456e86369dc32dcb000000000000000000000000000000000000000000000000000000000000000950726f6a65637420320000000000000000000000000000000000000000000000",
          "blockHash": "0xd5cd6b608558491b69985d95eb3c1dd7c58c6cae93a8393344c1318a52472a5a",
          "blockNumber": "0x7a1d67",
          "transactionHash": "0x8f94fa551c6aeb2cd9f0c08e44744e78fc864c222e479d2e1f306f30bf5df980",
          "transactionIndex": "0x3",
          "logIndex": "0x3",
          "removed": false
        }
      ],
      "status": "0x1",
      "logsBloom": "0x00000000000000000000000000000000000000000000010000000000000000000000000000000000000000000000000000000000000000000000000000040000000000000000000000001000000000000000000000040000008008000000000000000000000000000000000000000000000000000000000000000000000000000000000000000000000000000000000000000000000000000000000000000000008000000000000000000000000000000000000000000000000000000000000000000000000000000000000000000000000000000000000000000000000040000000000000000000000000000000000000000000000000000000000800000000",
      "type": "0x2",
      "effectiveGasPrice": "0xb2d0acd5"
    },
    {
      "transactionHash": "0xbc610775ad761281ef3e72ac94d6c4814777609027a6c55d65317aacfac9310f",
      "transactionIndex": "0x4",
      "blockHash": "0xd5cd6b608558491b69985d95eb3c1dd7c58c6cae93a8393344c1318a52472a5a",
      "blockNumber": "0x7a1d67",
      "from": "0x5a562294808c5470873831ff456e86369dc32dcB",
      "to": "0x18D0de25070d0B28F01B24DB0A880e736A97E6aD",
      "cumulativeGasUsed": "0x25654e",
      "gasUsed": "0x1abf3",
      "contractAddress": null,
      "logs": [
        {
          "address": "0x18D0de25070d0B28F01B24DB0A880e736A97E6aD",
          "topics": [
            "0xc0c54fed07481d0998e1446b2c13759606bf4f26b78306307413ac4c4309aa82",
            "0x0000000000000000000000000000000000000000000000000000000000000002"
          ],
          "data": "0x00000000000000000000000000000000000000000000000000000000000000400000000000000000000000005a562294808c5470873831ff456e86369dc32dcb000000000000000000000000000000000000000000000000000000000000000950726f6a65637420330000000000000000000000000000000000000000000000",
          "blockHash": "0xd5cd6b608558491b69985d95eb3c1dd7c58c6cae93a8393344c1318a52472a5a",
          "blockNumber": "0x7a1d67",
          "transactionHash": "0xbc610775ad761281ef3e72ac94d6c4814777609027a6c55d65317aacfac9310f",
          "transactionIndex": "0x4",
          "logIndex": "0x4",
          "removed": false
        }
      ],
      "status": "0x1",
      "logsBloom": "0x04000000000000000000000000000000000000000000010000000000000000000000000000000000000000000000000000000000000000000000000000000000000000000000000000001000000000000000000000000000008008000000000000000000000000000000000000000000000000000000000000000000000000000000000000000000000000000000000000000000000000000000000000000000008000000000000000000100000000000000000000000000000000000000000000000000000000000000000000000000000000000000000000000000000000000000000000000000000000000000000000000000008000000000000800000000",
      "type": "0x2",
      "effectiveGasPrice": "0xb2d0acd5"
    },
    {
      "transactionHash": "0xbca8eb9d40276de28bb311af8dcf2ae0c260d7df0375a1c44096a9e0054c0b7e",
      "transactionIndex": "0x5",
      "blockHash": "0xd5cd6b608558491b69985d95eb3c1dd7c58c6cae93a8393344c1318a52472a5a",
      "blockNumber": "0x7a1d67",
      "from": "0x5a562294808c5470873831ff456e86369dc32dcB",
      "to": "0x18D0de25070d0B28F01B24DB0A880e736A97E6aD",
      "cumulativeGasUsed": "0x26c335",
      "gasUsed": "0x15de7",
      "contractAddress": null,
      "logs": [
        {
          "address": "0x18D0de25070d0B28F01B24DB0A880e736A97E6aD",
          "topics": [
            "0x2587a8aae32052dc3489cced391a070648eedad0b8670a76ce103ee5df587e4a"
          ],
          "data": "0x00000000000000000000000007b8ff46cc6e366fe12e4d3d47825000d9948ecd",
          "blockHash": "0xd5cd6b608558491b69985d95eb3c1dd7c58c6cae93a8393344c1318a52472a5a",
          "blockNumber": "0x7a1d67",
          "transactionHash": "0xbca8eb9d40276de28bb311af8dcf2ae0c260d7df0375a1c44096a9e0054c0b7e",
          "transactionIndex": "0x5",
          "logIndex": "0x5",
          "removed": false
        }
      ],
      "status": "0x1",
      "logsBloom": "0x00000000000000000000000000000000000000000000010000000000000000000000000000000000000000000000000000000000000000000000000000000000000000000000000000000001000000000000000000000000000008000000000000000000000000000000000000000000000000000000000000000200000100000000000000000000000000000000000000000000000000000000000000000000000000000000000000000000000000000000000000000000000000000000000000000000000000000000000000000000000000000000000000000000000000000000000000000000000000000000000000000000000000000000000800000000",
      "type": "0x2",
      "effectiveGasPrice": "0xb2d0acd5"
    },
    {
      "transactionHash": "0x1a465f473ce6794511c6aa546bc809d84f34b134719c43ce191bdb0fae5044dc",
      "transactionIndex": "0x6",
      "blockHash": "0xd5cd6b608558491b69985d95eb3c1dd7c58c6cae93a8393344c1318a52472a5a",
      "blockNumber": "0x7a1d67",
      "from": "0x5a562294808c5470873831ff456e86369dc32dcB",
      "to": "0x18D0de25070d0B28F01B24DB0A880e736A97E6aD",
      "cumulativeGasUsed": "0x27de5c",
      "gasUsed": "0x11b27",
      "contractAddress": null,
      "logs": [
        {
          "address": "0x18D0de25070d0B28F01B24DB0A880e736A97E6aD",
          "topics": [
            "0x2587a8aae32052dc3489cced391a070648eedad0b8670a76ce103ee5df587e4a"
          ],
          "data": "0x000000000000000000000000030996ec60617fe293b4a51c97be0973c9ecdf33",
          "blockHash": "0xd5cd6b608558491b69985d95eb3c1dd7c58c6cae93a8393344c1318a52472a5a",
          "blockNumber": "0x7a1d67",
          "transactionHash": "0x1a465f473ce6794511c6aa546bc809d84f34b134719c43ce191bdb0fae5044dc",
          "transactionIndex": "0x6",
          "logIndex": "0x6",
          "removed": false
        }
      ],
      "status": "0x1",
      "logsBloom": "0x00000000000000000000000000000000000000000000010000000000000000000000000000000000000000000000000000000000000000000000000000000000000000000000000000000001000000000000000000000000000008000000000000000000000000000000000000000000000000000000000000000200000100000000000000000000000000000000000000000000000000000000000000000000000000000000000000000000000000000000000000000000000000000000000000000000000000000000000000000000000000000000000000000000000000000000000000000000000000000000000000000000000000000000000800000000",
      "type": "0x2",
      "effectiveGasPrice": "0xb2d0acd5"
    },
    {
      "transactionHash": "0x75183b54d73bba5ab200c3aa4a4209eedccdec10928f4c2b0958510c9eebc71b",
      "transactionIndex": "0x7",
      "blockHash": "0xd5cd6b608558491b69985d95eb3c1dd7c58c6cae93a8393344c1318a52472a5a",
      "blockNumber": "0x7a1d67",
      "from": "0x5a562294808c5470873831ff456e86369dc32dcB",
      "to": "0x18D0de25070d0B28F01B24DB0A880e736A97E6aD",
      "cumulativeGasUsed": "0x28f983",
      "gasUsed": "0x11b27",
      "contractAddress": null,
      "logs": [
        {
          "address": "0x18D0de25070d0B28F01B24DB0A880e736A97E6aD",
          "topics": [
            "0x2587a8aae32052dc3489cced391a070648eedad0b8670a76ce103ee5df587e4a"
          ],
          "data": "0x0000000000000000000000009080cfe04a99afebf37eaa40441c4191b46c2cd1",
          "blockHash": "0xd5cd6b608558491b69985d95eb3c1dd7c58c6cae93a8393344c1318a52472a5a",
          "blockNumber": "0x7a1d67",
          "transactionHash": "0x75183b54d73bba5ab200c3aa4a4209eedccdec10928f4c2b0958510c9eebc71b",
          "transactionIndex": "0x7",
          "logIndex": "0x7",
          "removed": false
        }
      ],
      "status": "0x1",
      "logsBloom": "0x00000000000000000000000000000000000000000000010000000000000000000000000000000000000000000000000000000000000000000000000000000000000000000000000000000001000000000000000000000000000008000000000000000000000000000000000000000000000000000000000000000200000100000000000000000000000000000000000000000000000000000000000000000000000000000000000000000000000000000000000000000000000000000000000000000000000000000000000000000000000000000000000000000000000000000000000000000000000000000000000000000000000000000000000800000000",
      "type": "0x2",
      "effectiveGasPrice": "0xb2d0acd5"
    },
    {
      "transactionHash": "0x918321b7d7ea3317a1eb61f50cd155a2b9dcf31dcd0b231bc2c274b75cc82f50",
      "transactionIndex": "0x8",
      "blockHash": "0xd5cd6b608558491b69985d95eb3c1dd7c58c6cae93a8393344c1318a52472a5a",
      "blockNumber": "0x7a1d67",
      "from": "0x5a562294808c5470873831ff456e86369dc32dcB",
      "to": "0x18D0de25070d0B28F01B24DB0A880e736A97E6aD",
      "cumulativeGasUsed": "0x2a14aa",
      "gasUsed": "0x11b27",
      "contractAddress": null,
      "logs": [
        {
          "address": "0x18D0de25070d0B28F01B24DB0A880e736A97E6aD",
          "topics": [
            "0x2587a8aae32052dc3489cced391a070648eedad0b8670a76ce103ee5df587e4a"
          ],
          "data": "0x000000000000000000000000f45b4de5c02a7fd2cb137145fb52e7d6d5a9a32e",
          "blockHash": "0xd5cd6b608558491b69985d95eb3c1dd7c58c6cae93a8393344c1318a52472a5a",
          "blockNumber": "0x7a1d67",
          "transactionHash": "0x918321b7d7ea3317a1eb61f50cd155a2b9dcf31dcd0b231bc2c274b75cc82f50",
          "transactionIndex": "0x8",
          "logIndex": "0x8",
          "removed": false
        }
      ],
      "status": "0x1",
      "logsBloom": "0x00000000000000000000000000000000000000000000010000000000000000000000000000000000000000000000000000000000000000000000000000000000000000000000000000000001000000000000000000000000000008000000000000000000000000000000000000000000000000000000000000000200000100000000000000000000000000000000000000000000000000000000000000000000000000000000000000000000000000000000000000000000000000000000000000000000000000000000000000000000000000000000000000000000000000000000000000000000000000000000000000000000000000000000000800000000",
      "type": "0x2",
      "effectiveGasPrice": "0xb2d0acd5"
    },
    {
      "transactionHash": "0xa49ad25ccf383c9a2bdefd6710e08872327cafdab257c30e921104cd1005a7d6",
      "transactionIndex": "0x9",
      "blockHash": "0xd5cd6b608558491b69985d95eb3c1dd7c58c6cae93a8393344c1318a52472a5a",
      "blockNumber": "0x7a1d67",
      "from": "0x5a562294808c5470873831ff456e86369dc32dcB",
      "to": "0x18D0de25070d0B28F01B24DB0A880e736A97E6aD",
      "cumulativeGasUsed": "0x2b2fb9",
      "gasUsed": "0x11b0f",
      "contractAddress": null,
      "logs": [
        {
          "address": "0x18D0de25070d0B28F01B24DB0A880e736A97E6aD",
          "topics": [
            "0x2587a8aae32052dc3489cced391a070648eedad0b8670a76ce103ee5df587e4a"
          ],
          "data": "0x000000000000000000000000b77ff06d00179f0811e9788b2cba6a2b0011b165",
          "blockHash": "0xd5cd6b608558491b69985d95eb3c1dd7c58c6cae93a8393344c1318a52472a5a",
          "blockNumber": "0x7a1d67",
          "transactionHash": "0xa49ad25ccf383c9a2bdefd6710e08872327cafdab257c30e921104cd1005a7d6",
          "transactionIndex": "0x9",
          "logIndex": "0x9",
          "removed": false
        }
      ],
      "status": "0x1",
      "logsBloom": "0x00000000000000000000000000000000000000000000010000000000000000000000000000000000000000000000000000000000000000000000000000000000000000000000000000000001000000000000000000000000000008000000000000000000000000000000000000000000000000000000000000000200000100000000000000000000000000000000000000000000000000000000000000000000000000000000000000000000000000000000000000000000000000000000000000000000000000000000000000000000000000000000000000000000000000000000000000000000000000000000000000000000000000000000000800000000",
      "type": "0x2",
      "effectiveGasPrice": "0xb2d0acd5"
    },
    {
      "transactionHash": "0x4ce751abbb5bc068eeb9b5601a8d5eba56d1872376a9bbf7391cdce1973369eb",
      "transactionIndex": "0xa",
      "blockHash": "0xd5cd6b608558491b69985d95eb3c1dd7c58c6cae93a8393344c1318a52472a5a",
      "blockNumber": "0x7a1d67",
      "from": "0x5a562294808c5470873831ff456e86369dc32dcB",
      "to": "0x18D0de25070d0B28F01B24DB0A880e736A97E6aD",
      "cumulativeGasUsed": "0x2be3ef",
      "gasUsed": "0xb436",
      "contractAddress": null,
      "logs": [],
      "status": "0x1",
      "logsBloom": "0x00000000000000000000000000000000000000000000000000000000000000000000000000000000000000000000000000000000000000000000000000000000000000000000000000000000000000000000000000000000000000000000000000000000000000000000000000000000000000000000000000000000000000000000000000000000000000000000000000000000000000000000000000000000000000000000000000000000000000000000000000000000000000000000000000000000000000000000000000000000000000000000000000000000000000000000000000000000000000000000000000000000000000000000000000000000",
      "type": "0x2",
      "effectiveGasPrice": "0xb2d0acd5"
    }
  ],
  "libraries": [],
  "pending": [],
  "returns": {},
  "timestamp": 1711774132,
  "chain": 84532,
  "multi": false,
  "commit": "255cc20"
}