{
  "transactions": [
    {
      "hash": "0x07db28552afd377e795d7e102c5064bc16e97820d448a9683126242efa53693d",
      "transactionType": "CREATE",
      "contractName": "FundingRound",
      "contractAddress": "0x6fE45aaCd8845f28A403946a4B2D15B96731763e",
      "function": null,
      "arguments": [
        "0x5a562294808c5470873831ff456e86369dc32dcB"
      ],
      "transaction": {
        "type": "0x02",
        "from": "0x5a562294808c5470873831ff456e86369dc32dcb",
        "gas": "0x2641af",
        "value": "0x0",
        "data": "0x608060405260006002553480156200001657600080fd5b5060405162002244380380620022448339810160408190526200003991620000a6565b620000443362000056565b6200004f8162000056565b50620000d8565b600080546001600160a01b038381166001600160a01b0319831681178455604051919092169283917f8be0079c531659141344cd1fd0a4f28419497f9722a3daafe3b4186f6b6457e09190a35050565b600060208284031215620000b957600080fd5b81516001600160a01b0381168114620000d157600080fd5b9392505050565b61215c80620000e86000396000f3fe6080604052600436106100fe5760003560e01c80638da5cb5b11610095578063c0bc417811610064578063c0bc4178146102ac578063c65579ad146102cc578063d05c572c146102ec578063dcc601281461032c578063f2fde38b1461034e57600080fd5b80638da5cb5b146102265780639e93e57714610244578063a35ff0761461026c578063b49521c41461028c57600080fd5b8063715018a6116100d1578063715018a6146101b657806372add818146101cb578063769d2475146101f35780637b1837de1461020657600080fd5b80630f95c1bd14610103578063107046bd1461012557806323b311a91461015e57806338ba461414610196575b600080fd5b34801561010f57600080fd5b5061012361011e366004611835565b61036e565b005b34801561013157600080fd5b50610145610140366004611871565b6103cd565b60405161015594939291906118d0565b60405180910390f35b34801561016a57600080fd5b5060055461017e906001600160a01b031681565b6040516001600160a01b039091168152602001610155565b3480156101a257600080fd5b506101236101b1366004611908565b61049e565b3480156101c257600080fd5b50610123610886565b3480156101d757600080fd5b5061017e73f46d5fa9bfc964e8d06846c8739aec69bc06344d81565b610123610201366004611987565b61089a565b34801561021257600080fd5b506101236102213660046119b4565b610961565b34801561023257600080fd5b506000546001600160a01b031661017e565b34801561025057600080fd5b5061017e73bd7aaa2984c0a887e93c66baae222749883763d381565b34801561027857600080fd5b506101236102873660046119de565b610a59565b34801561029857600080fd5b506101236102a73660046119de565b610a83565b3480156102b857600080fd5b5061017e6102c7366004611871565b610b56565b3480156102d857600080fd5b506101236102e73660046119f9565b610b80565b3480156102f857600080fd5b5061031c6103073660046119de565b60036020526000908152604090205460ff1681565b6040519015158152602001610155565b34801561033857600080fd5b50610341610d08565b6040516101559190611ab5565b34801561035a57600080fd5b506101236103693660046119de565b610ed7565b610379600382611bc6565b6000036103905761038a8383610f50565b50505050565b61039b600382611bc6565b6001036103ac5761038a838361117b565b6103b7600382611bc6565b6002036103c85761038a8383611373565b505050565b600181815481106103dd57600080fd5b906000526020600020906006020160009150905080600001549080600101549080600201805461040c90611bda565b80601f016020809104026020016040519081016040528092919081815260200182805461043890611bda565b80156104855780601f1061045a57610100808354040283529160200191610485565b820191906000526020600020905b81548152906001019060200180831161046857829003601f168201915b505050600390930154919250506001600160a01b031684565b6005546001600160a01b031633146104fd5760405162461bcd60e51b815260206004820152601f60248201527f6f6e6c792053656372657420476174657761792063616e2066756c66696c6c0060448201526064015b60405180910390fd5b60006001805480602002602001604051908101604052809291908181526020016000905b828210156106c357838290600052602060002090600602016040518060c0016040529081600082015481526020016001820154815260200160028201805461056890611bda565b80601f016020809104026020016040519081016040528092919081815260200182805461059490611bda565b80156105e15780601f106105b6576101008083540402835291602001916105e1565b820191906000526020600020905b8154815290600101906020018083116105c457829003601f168201915b505050918352505060038201546001600160a01b0316602080830191909152600483018054604080518285028101850182528281529401939283018282801561065357602002820191906000526020600020905b81546001600160a01b03168152600190910190602001808311610635575b50505050508152602001600582018054806020026020016040519081016040528092919081815260200182805480156106ab57602002820191906000526020600020905b815481526020019060010190808311610697575b50505050508152505081526020019060010190610521565b50505050905060005b60045481101561084457600082518585848181106106ec576106ec611c14565b905060200201356106fd9190611bc6565b90506001818154811061071257610712611c14565b90600052602060002090600602016004016004838154811061073657610736611c14565b6000918252602080832090910154835460018181018655948452919092200180546001600160a01b0319166001600160a01b0390921691909117905580548290811061078457610784611c14565b9060005260206000209060060201600501600483815481106107a8576107a8611c14565b6000918252602090912001546040516370a0823160e01b81523060048201526001600160a01b03909116906370a0823190602401602060405180830381865afa1580156107f9573d6000803e3d6000fd5b505050506040513d601f19601f8201168201806040525081019061081d9190611c2a565b815460018101835560009283526020909220909101555061083d81611c59565b90506106cc565b507fe7ecfe6928c754cbd5282724cb865166ac3a20565babb867db6047900d72372384848460405161087893929190611c72565b60405180910390a150505050565b61088e611612565b610898600061166c565b565b6005546001546040516361bf619360e01b815263ffffffff918216600482015290831660248201526001600160a01b039091169060009082906361bf619390349060440160206040518083038185885af11580156108fc573d6000803e3d6000fd5b50505050506040513d601f19601f820116820180604052508101906109219190611c2a565b90507f9ef465a513d3907321fbc06db999b22497925c91f2cc1ee6b0a52b141d3263b28160405161095491815260200190565b60405180910390a1505050565b6001600160a01b03821660009081526003602052604090205460ff1661099a5760405163fa50582160e01b815260040160405180910390fd5b6040516323b872dd60e01b8152336004820152306024820152604481018290526001600160a01b038316906323b872dd906064016020604051808303816000875af11580156109ed573d6000803e3d6000fd5b505050506040513d601f19601f82011682018060405250810190610a119190611cb3565b50816001600160a01b03167f5af8184bef8e4b45eb9f6ed7734d04da38ced226495548f46e0c8ff8d7d9a52482604051610a4d91815260200190565b60405180910390a25050565b610a61611612565b600580546001600160a01b0319166001600160a01b0392909216919091179055565b6001600160a01b03811660009081526003602052604090205460ff1615610abc5760405162a679fd60e01b815260040160405180910390fd5b6004805460018082019092557f8a35acfbc15ff81a39ae7d344fd709f28e8600b4aa8c65c6b64bfe7fe36bd19b0180546001600160a01b0319166001600160a01b038416908117909155600081815260036020908152604091829020805460ff1916909417909355519081527f2587a8aae32052dc3489cced391a070648eedad0b8670a76ce103ee5df587e4a910160405180910390a150565b60048181548110610b6657600080fd5b6000918252602090912001546001600160a01b0316905081565b60016040518060c0016040528060026000815480929190610ba090611c59565b9190505581526020016000815260200185858080601f01602080910402602001604051908101604052809392919081815260200183838082843760009201829052509385525050506001600160a01b0385166020808401919091526040805183815280830182528185015280518381528083018252606090940193909352845460018082018755958352918190208451600690930201918255830151938101939093558101519091906002820190610c589082611d39565b5060608201516003820180546001600160a01b0319166001600160a01b0390921691909117905560808201518051610c9a9160048401916020909101906116bc565b5060a08201518051610cb6916005840191602090910190611721565b5050506001600254610cc89190611df9565b7fc0c54fed07481d0998e1446b2c13759606bf4f26b78306307413ac4c4309aa82848484604051610cfb93929190611e12565b60405180910390a2505050565b60606001805480602002602001604051908101604052809291908181526020016000905b82821015610ece57838290600052602060002090600602016040518060c00160405290816000820154815260200160018201548152602001600282018054610d7390611bda565b80601f0160208091040260200160405190810160405280929190818152602001828054610d9f90611bda565b8015610dec5780601f10610dc157610100808354040283529160200191610dec565b820191906000526020600020905b815481529060010190602001808311610dcf57829003601f168201915b505050918352505060038201546001600160a01b03166020808301919091526004830180546040805182850281018501825282815294019392830182828015610e5e57602002820191906000526020600020905b81546001600160a01b03168152600190910190602001808311610e40575b5050505050815260200160058201805480602002602001604051908101604052809291908181526020018280548015610eb657602002820191906000526020600020905b815481526020019060010190808311610ea2575b50505050508152505081526020019060010190610d2c565b50505050905090565b610edf611612565b6001600160a01b038116610f445760405162461bcd60e51b815260206004820152602660248201527f4f776e61626c653a206e6577206f776e657220697320746865207a65726f206160448201526564647265737360d01b60648201526084016104f4565b610f4d8161166c565b50565b6040516370a0823160e01b815230600482015260009081906001600160a01b038416906370a0823190602401602060405180830381865afa158015610f99573d6000803e3d6000fd5b505050506040513d601f19601f82011682018060405250810190610fbd9190611c2a565b60405163095ea7b360e01b815273bd7aaa2984c0a887e93c66baae222749883763d36004820152602481018290529091506001600160a01b0384169063095ea7b3906044016020604051808303816000875af1158015611021573d6000803e3d6000fd5b505050506040513d601f19601f820116820180604052508101906110459190611cb3565b506110a8604080516101008101825260008082526020808301829052828401829052606083018290526080830182905260a083018290528351808501855282815280820183905260c084015283518085019094528184528301529060e082015290565b3081526001600160a01b038581166020808401919091526001600160801b038416604080850191909152918616606084015260016080840152815180830183526014815260509181019190915260c083015251632ac59f3360e21b815273bd7aaa2984c0a887e93c66baae222749883763d39063ab167ccc9061112f908490600401611e53565b6020604051808303816000875af115801561114e573d6000803e3d6000fd5b505050506040513d601f19601f820116820180604052508101906111729190611c2a565b95945050505050565b6040516370a0823160e01b815230600482015260009081906001600160a01b038416906370a0823190602401602060405180830381865afa1580156111c4573d6000803e3d6000fd5b505050506040513d601f19601f820116820180604052508101906111e89190611c2a565b60405163095ea7b360e01b815273f46d5fa9bfc964e8d06846c8739aec69bc06344d6004820152602481018290529091506001600160a01b0384169063095ea7b3906044016020604051808303816000875af115801561124c573d6000803e3d6000fd5b505050506040513d601f19601f820116820180604052508101906112709190611cb3565b5061127961175c565b3081526001600160a01b0385811660608301526001600160801b0383166080830152841660a08201526001602082018190526040805182815280820190915290816020015b60408051606081018252600080825260208083018290529282015282526000199092019101816112be57505060e08201908152604080516060810182526001600160801b03851681526753444835ec58000060208201526014918101919091529051805160009061133157611331611c14565b6020908102919091010152604051630b42222b60e11b815273f46d5fa9bfc964e8d06846c8739aec69bc06344d9063168444569061112f908490600401611f69565b6040516370a0823160e01b815230600482015260009081906001600160a01b038416906370a0823190602401602060405180830381865afa1580156113bc573d6000803e3d6000fd5b505050506040513d601f19601f820116820180604052508101906113e09190611c2a565b60405163095ea7b360e01b815273f46d5fa9bfc964e8d06846c8739aec69bc06344d6004820152602481018290529091506001600160a01b0384169063095ea7b3906044016020604051808303816000875af1158015611444573d6000803e3d6000fd5b505050506040513d601f19601f820116820180604052508101906114689190611cb3565b506114716117b1565b3081526001600160a01b0385811660808301526001600160801b03831660a0830152841660c0820152600160408201526114ac42601e61201c565b64ffffffffff1660208201526040805160028082526060820190925290816020015b60408051606081018252600080825260208083018290529282015282526000199092019101816114ce57505061010082015260408051606081019091528061151760028561202f565b6001600160801b03168152670de0b6b3a7640000602082015260400161153e42600a61201c565b64ffffffffff1681525081610100015160008151811061156057611560611c14565b60200260200101819052506040518060600160405280836001600160801b03168152602001611594672b93855d12ba000090565b67ffffffffffffffff1681526020016115ae42607861201c565b64ffffffffff168152508161010001516001815181106115d0576115d0611c14565b602090810291909101015260405163619e69af60e11b815273f46d5fa9bfc964e8d06846c8739aec69bc06344d9063c33cd35e9061112f908490600401612055565b6000546001600160a01b031633146108985760405162461bcd60e51b815260206004820181905260248201527f4f776e61626c653a2063616c6c6572206973206e6f7420746865206f776e657260448201526064016104f4565b600080546001600160a01b038381166001600160a01b0319831681178455604051919092169283917f8be0079c531659141344cd1fd0a4f28419497f9722a3daafe3b4186f6b6457e09190a35050565b828054828255906000526020600020908101928215611711579160200282015b8281111561171157825182546001600160a01b0319166001600160a01b039091161782556020909201916001909101906116dc565b5061171d929150611804565b5090565b828054828255906000526020600020908101928215611711579160200282015b82811115611711578251825591602001919060010190611741565b604080516101008101825260008082526020808301829052828401829052606083018290526080830182905260a0830182905283518085019094528184528301529060c08201905b8152602001606081525090565b604080516101208101825260008082526020808301829052828401829052606083018290526080830182905260a0830182905260c0830182905283518085019094528184528301529060e08201906117a4565b5b8082111561171d5760008155600101611805565b80356001600160a01b038116811461183057600080fd5b919050565b60008060006060848603121561184a57600080fd5b61185384611819565b925061186160208501611819565b9150604084013590509250925092565b60006020828403121561188357600080fd5b5035919050565b6000815180845260005b818110156118b057602081850181015186830182015201611894565b506000602082860101526020601f19601f83011685010191505092915050565b8481528360208201526080604082015260006118ef608083018561188a565b905060018060a01b038316606083015295945050505050565b60008060006040848603121561191d57600080fd5b83359250602084013567ffffffffffffffff8082111561193c57600080fd5b818601915086601f83011261195057600080fd5b81358181111561195f57600080fd5b8760208260051b850101111561197457600080fd5b6020830194508093505050509250925092565b60006020828403121561199957600080fd5b813563ffffffff811681146119ad57600080fd5b9392505050565b600080604083850312156119c757600080fd5b6119d083611819565b946020939093013593505050565b6000602082840312156119f057600080fd5b6119ad82611819565b600080600060408486031215611a0e57600080fd5b833567ffffffffffffffff80821115611a2657600080fd5b818601915086601f830112611a3a57600080fd5b813581811115611a4957600080fd5b876020828501011115611a5b57600080fd5b602092830195509350611a719186019050611819565b90509250925092565b600081518084526020808501945080840160005b83811015611aaa57815187529582019590820190600101611a8e565b509495945050505050565b60006020808301818452808551808352604092508286019150828160051b8701018488016000805b84811015611ba157603f198a8503018652825160c081518652898201518a87015288820151818a880152611b138288018261188a565b6060848101516001600160a01b03908116918a01919091526080808601518a8403918b01919091528051808452908e019450918d01925086915b80831015611b6f57845182168452938d0193928d019260019290920191611b4d565b50505060a09283015187820388850152929150611b8c8184611a7a565b988b0198965050509288019250600101611add565b50919998505050505050505050565b634e487b7160e01b600052601260045260246000fd5b600082611bd557611bd5611bb0565b500690565b600181811c90821680611bee57607f821691505b602082108103611c0e57634e487b7160e01b600052602260045260246000fd5b50919050565b634e487b7160e01b600052603260045260246000fd5b600060208284031215611c3c57600080fd5b5051919050565b634e487b7160e01b600052601160045260246000fd5b600060018201611c6b57611c6b611c43565b5060010190565b838152604060208201819052810182905260006001600160fb1b03831115611c9957600080fd5b8260051b8085606085013791909101606001949350505050565b600060208284031215611cc557600080fd5b815180151581146119ad57600080fd5b634e487b7160e01b600052604160045260246000fd5b601f8211156103c857600081815260208120601f850160051c81016020861015611d125750805b601f850160051c820191505b81811015611d3157828155600101611d1e565b505050505050565b815167ffffffffffffffff811115611d5357611d53611cd5565b611d6781611d618454611bda565b84611ceb565b602080601f831160018114611d9c5760008415611d845750858301515b600019600386901b1c1916600185901b178555611d31565b600085815260208120601f198616915b82811015611dcb57888601518255948401946001909101908401611dac565b5085821015611de95787850151600019600388901b60f8161c191681555b5050505050600190811b01905550565b81810381811115611e0c57611e0c611c43565b92915050565b6040815282604082015282846060830137600060608483018101919091526001600160a01b03929092166020820152601f909201601f191690910101919050565b81516001600160a01b0390811682526020808401518216908301526040808401516001600160801b03169083015260608084015190911690820152608080830151610140830191611ea79084018215159052565b5060a0830151611ebb60a084018215159052565b5060c0830151611ee260c0840182805164ffffffffff908116835260209182015116910152565b5060e0929092015180516001600160a01b0316610100830152602001516101209091015290565b600081518084526020808501945080840160005b83811015611aaa57815180516001600160801b031688528381015167ffffffffffffffff168489015260409081015164ffffffffff169088015260609096019590820190600101611f1d565b602080825282516001600160a01b031682820152820151151560408083019190915282015180151560608301526000905060608301516001600160a01b03811660808401525060808301516001600160801b03811660a08401525060a08301516001600160a01b03811660c08401525060c083015180516001600160a01b031660e084015260208101516101008401525060e083015161012083810152612014610140840182611f09565b949350505050565b80820180821115611e0c57611e0c611c43565b60006001600160801b038084168061204957612049611bb0565b92169190910492915050565b6020815261206f6020820183516001600160a01b03169052565b60006020830151612089604084018264ffffffffff169052565b506040830151801515606084015250606083015180151560808401525060808301516001600160a01b03811660a08401525060a08301516001600160801b03811660c08401525060c08301516001600160a01b03811660e08401525060e083015161010061210c8185018380516001600160a01b03168252602090810151910152565b840151610140848101529050612014610160840182611f0956fea26469706673582212209c3ee94840ee577e82b06a1efdea6dd6cdd854e34f2b1f7cc77175bcd410412764736f6c634300081300330000000000000000000000005a562294808c5470873831ff456e86369dc32dcb",
        "nonce": "0xa1",
        "accessList": []
      },
      "additionalContracts": [],
      "isFixedGasLimit": false
    },
    {
      "hash": "0x3250d6cd52b679ca8bd356a436d48983e2710da63b662924a98b13a68ded280f",
      "transactionType": "CALL",
      "contractName": "contracts/FundingRound.sol:FundingRound",
      "contractAddress": "0x6fE45aaCd8845f28A403946a4B2D15B96731763e",
      "function": "createProject(string,address)",
      "arguments": [
        "\"Project 1\"",
        "0x5a562294808c5470873831ff456e86369dc32dcB"
      ],
      "transaction": {
        "type": "0x02",
        "from": "0x5a562294808c5470873831ff456e86369dc32dcb",
        "to": "0x6fe45aacd8845f28a403946a4b2d15b96731763e",
        "gas": "0x29c41",
        "value": "0x0",
        "data": "0xc65579ad00000000000000000000000000000000000000000000000000000000000000400000000000000000000000005a562294808c5470873831ff456e86369dc32dcb000000000000000000000000000000000000000000000000000000000000000950726f6a65637420310000000000000000000000000000000000000000000000",
        "nonce": "0xa2",
        "accessList": []
      },
      "additionalContracts": [],
      "isFixedGasLimit": false
    },
    {
      "hash": "0xc25385c680feb59aa0c7a4bb64ccb483ca4fd535fd6c023b47f7641f4e741855",
      "transactionType": "CALL",
      "contractName": "contracts/FundingRound.sol:FundingRound",
      "contractAddress": "0x6fE45aaCd8845f28A403946a4B2D15B96731763e",
      "function": "createProject(string,address)",
      "arguments": [
        "\"Project 2\"",
        "0x5a562294808c5470873831ff456e86369dc32dcB"
      ],
      "transaction": {
        "type": "0x02",
        "from": "0x5a562294808c5470873831ff456e86369dc32dcb",
        "to": "0x6fe45aacd8845f28a403946a4b2d15b96731763e",
        "gas": "0x271df",
        "value": "0x0",
        "data": "0xc65579ad00000000000000000000000000000000000000000000000000000000000000400000000000000000000000005a562294808c5470873831ff456e86369dc32dcb000000000000000000000000000000000000000000000000000000000000000950726f6a65637420320000000000000000000000000000000000000000000000",
        "nonce": "0xa3",
        "accessList": []
      },
      "additionalContracts": [],
      "isFixedGasLimit": false
    },
    {
      "hash": "0x7232d1c7d2fb801f95f7e294c14ffb28667ee813bd19852683c7b55cac6ae37c",
      "transactionType": "CALL",
      "contractName": "contracts/FundingRound.sol:FundingRound",
      "contractAddress": "0x6fE45aaCd8845f28A403946a4B2D15B96731763e",
      "function": "createProject(string,address)",
      "arguments": [
        "\"Project 3\"",
        "0x5a562294808c5470873831ff456e86369dc32dcB"
      ],
      "transaction": {
        "type": "0x02",
        "from": "0x5a562294808c5470873831ff456e86369dc32dcb",
        "to": "0x6fe45aacd8845f28a403946a4b2d15b96731763e",
        "gas": "0x271df",
        "value": "0x0",
        "data": "0xc65579ad00000000000000000000000000000000000000000000000000000000000000400000000000000000000000005a562294808c5470873831ff456e86369dc32dcb000000000000000000000000000000000000000000000000000000000000000950726f6a65637420330000000000000000000000000000000000000000000000",
        "nonce": "0xa4",
        "accessList": []
      },
      "additionalContracts": [],
      "isFixedGasLimit": false
    },
    {
      "hash": "0xfe189963d22e3b4945955e5eee5b77613ad8dfb5792e4bad28f0d37d9df3a647",
      "transactionType": "CALL",
      "contractName": "contracts/FundingRound.sol:FundingRound",
      "contractAddress": "0x6fE45aaCd8845f28A403946a4B2D15B96731763e",
      "function": "setShitCoin(address)",
      "arguments": [
        "0x07B8FF46Cc6e366Fe12e4d3D47825000d9948eCD"
      ],
      "transaction": {
        "type": "0x02",
        "from": "0x5a562294808c5470873831ff456e86369dc32dcb",
        "to": "0x6fe45aacd8845f28a403946a4b2d15b96731763e",
        "gas": "0x1e34c",
        "value": "0x0",
        "data": "0xb49521c400000000000000000000000007b8ff46cc6e366fe12e4d3d47825000d9948ecd",
        "nonce": "0xa5",
        "accessList": []
      },
      "additionalContracts": [],
      "isFixedGasLimit": false
    },
    {
      "hash": "0x1f7bd18b2ef4b02e1a36805b21b6afe6cd73fcef4d8df5192cccc121de58bef8",
      "transactionType": "CALL",
      "contractName": "contracts/FundingRound.sol:FundingRound",
      "contractAddress": "0x6fE45aaCd8845f28A403946a4B2D15B96731763e",
      "function": "setShitCoin(address)",
      "arguments": [
        "0x030996ec60617Fe293B4A51c97bE0973C9ECDF33"
      ],
      "transaction": {
        "type": "0x02",
        "from": "0x5a562294808c5470873831ff456e86369dc32dcb",
        "to": "0x6fe45aacd8845f28a403946a4b2d15b96731763e",
        "gas": "0x1871a",
        "value": "0x0",
        "data": "0xb49521c4000000000000000000000000030996ec60617fe293b4a51c97be0973c9ecdf33",
        "nonce": "0xa6",
        "accessList": []
      },
      "additionalContracts": [],
      "isFixedGasLimit": false
    },
    {
      "hash": "0x136c2eff6bb8fffaa0fc3d328e2110d7e87f0006af45126d5904812adeb31d54",
      "transactionType": "CALL",
      "contractName": "contracts/FundingRound.sol:FundingRound",
      "contractAddress": "0x6fE45aaCd8845f28A403946a4B2D15B96731763e",
      "function": "setShitCoin(address)",
      "arguments": [
        "0x9080cFe04A99afeBF37EaA40441c4191B46c2cd1"
      ],
      "transaction": {
        "type": "0x02",
        "from": "0x5a562294808c5470873831ff456e86369dc32dcb",
        "to": "0x6fe45aacd8845f28a403946a4b2d15b96731763e",
        "gas": "0x1871a",
        "value": "0x0",
        "data": "0xb49521c40000000000000000000000009080cfe04a99afebf37eaa40441c4191b46c2cd1",
        "nonce": "0xa7",
        "accessList": []
      },
      "additionalContracts": [],
      "isFixedGasLimit": false
    },
    {
      "hash": "0xec9307ceffb18b8ad15a685cf21fe3bc244b17678dde8b8eea60f06af6c7f838",
      "transactionType": "CALL",
      "contractName": "contracts/FundingRound.sol:FundingRound",
      "contractAddress": "0x6fE45aaCd8845f28A403946a4B2D15B96731763e",
      "function": "setShitCoin(address)",
      "arguments": [
        "0xf45b4dE5C02A7FD2cb137145fb52e7D6d5a9a32e"
      ],
      "transaction": {
        "type": "0x02",
        "from": "0x5a562294808c5470873831ff456e86369dc32dcb",
        "to": "0x6fe45aacd8845f28a403946a4b2d15b96731763e",
        "gas": "0x1871a",
        "value": "0x0",
        "data": "0xb49521c4000000000000000000000000f45b4de5c02a7fd2cb137145fb52e7d6d5a9a32e",
        "nonce": "0xa8",
        "accessList": []
      },
      "additionalContracts": [],
      "isFixedGasLimit": false
    },
    {
      "hash": "0x1f4d0d9f076990ac57c09540beea6d7ae3e8d9b6850086ef1dd13f6bf9b2594e",
      "transactionType": "CALL",
      "contractName": "contracts/FundingRound.sol:FundingRound",
      "contractAddress": "0x6fE45aaCd8845f28A403946a4B2D15B96731763e",
      "function": "setShitCoin(address)",
      "arguments": [
        "0xB77Ff06d00179F0811E9788B2cBA6A2b0011B165"
      ],
      "transaction": {
        "type": "0x02",
        "from": "0x5a562294808c5470873831ff456e86369dc32dcb",
        "to": "0x6fe45aacd8845f28a403946a4b2d15b96731763e",
        "gas": "0x186f8",
        "value": "0x0",
        "data": "0xb49521c4000000000000000000000000b77ff06d00179f0811e9788b2cba6a2b0011b165",
        "nonce": "0xa9",
        "accessList": []
      },
      "additionalContracts": [],
      "isFixedGasLimit": false
    },
    {
      "hash": "0x68989a8a4340aaef936bf83644ff5f7bdd57a4bb6a478bee76ff155282ffbf74",
      "transactionType": "CALL",
      "contractName": "contracts/FundingRound.sol:FundingRound",
      "contractAddress": "0x6fE45aaCd8845f28A403946a4B2D15B96731763e",
      "function": "setGatewayAddress(address)",
      "arguments": [
        "0xfaFCfceC4e29e9b4ECc8C0a3f7df1011580EEEf2"
      ],
      "transaction": {
        "type": "0x02",
        "from": "0x5a562294808c5470873831ff456e86369dc32dcb",
        "to": "0x6fe45aacd8845f28a403946a4b2d15b96731763e",
        "gas": "0xf8ea",
        "value": "0x0",
        "data": "0xa35ff076000000000000000000000000fafcfcec4e29e9b4ecc8c0a3f7df1011580eeef2",
        "nonce": "0xaa",
        "accessList": []
      },
      "additionalContracts": [],
      "isFixedGasLimit": false
    }
  ],
  "receipts": [
    {
      "transactionHash": "0x07db28552afd377e795d7e102c5064bc16e97820d448a9683126242efa53693d",
      "transactionIndex": "0x1",
      "blockHash": "0xf153fd24d18cd7a17ac564bc034469267ef1a5502bcbc75f190293130d0b6242",
      "blockNumber": "0x7a198a",
      "from": "0x5a562294808c5470873831ff456e86369dc32dcB",
      "to": null,
      "cumulativeGasUsed": "0x1e1b02",
      "gasUsed": "0x1d6fc3",
      "contractAddress": "0x6fE45aaCd8845f28A403946a4B2D15B96731763e",
      "logs": [
        {
          "address": "0x6fE45aaCd8845f28A403946a4B2D15B96731763e",
          "topics": [
            "0x8be0079c531659141344cd1fd0a4f28419497f9722a3daafe3b4186f6b6457e0",
            "0x0000000000000000000000000000000000000000000000000000000000000000",
            "0x0000000000000000000000005a562294808c5470873831ff456e86369dc32dcb"
          ],
          "data": "0x",
          "blockHash": "0xf153fd24d18cd7a17ac564bc034469267ef1a5502bcbc75f190293130d0b6242",
          "blockNumber": "0x7a198a",
          "transactionHash": "0x07db28552afd377e795d7e102c5064bc16e97820d448a9683126242efa53693d",
          "transactionIndex": "0x1",
          "logIndex": "0x0",
          "removed": false
        },
        {
          "address": "0x6fE45aaCd8845f28A403946a4B2D15B96731763e",
          "topics": [
            "0x8be0079c531659141344cd1fd0a4f28419497f9722a3daafe3b4186f6b6457e0",
            "0x0000000000000000000000005a562294808c5470873831ff456e86369dc32dcb",
            "0x0000000000000000000000005a562294808c5470873831ff456e86369dc32dcb"
          ],
          "data": "0x",
          "blockHash": "0xf153fd24d18cd7a17ac564bc034469267ef1a5502bcbc75f190293130d0b6242",
          "blockNumber": "0x7a198a",
          "transactionHash": "0x07db28552afd377e795d7e102c5064bc16e97820d448a9683126242efa53693d",
          "transactionIndex": "0x1",
          "logIndex": "0x1",
          "removed": false
        }
      ],
      "status": "0x1",
      "logsBloom": "0x00000000000000000000000000000000000000000000000000800000000000000000000000000000000000000000000000000000000000000000000000000000000010000000000000000000000000000001000000000004000000000220000000000000020000000000000000000800008000000000000000000000000000400000000000000000000000000000000000000000000000000000000000000000000000000000000000000000000000000000000000000000000000000000001000000000000000000000000000000000000000000000000000000000000020000000000000000000000000000000000000000000000000000000000000000000",
      "type": "0x2",
      "effectiveGasPrice": "0xb2d34a1c"
    },
    {
      "transactionHash": "0x3250d6cd52b679ca8bd356a436d48983e2710da63b662924a98b13a68ded280f",
      "transactionIndex": "0x2",
      "blockHash": "0xf153fd24d18cd7a17ac564bc034469267ef1a5502bcbc75f190293130d0b6242",
      "blockNumber": "0x7a198a",
      "from": "0x5a562294808c5470873831ff456e86369dc32dcB",
      "to": "0x6fE45aaCd8845f28A403946a4B2D15B96731763e",
      "cumulativeGasUsed": "0x1ffed1",
      "gasUsed": "0x1e3cf",
      "contractAddress": null,
      "logs": [
        {
          "address": "0x6fE45aaCd8845f28A403946a4B2D15B96731763e",
          "topics": [
            "0xc0c54fed07481d0998e1446b2c13759606bf4f26b78306307413ac4c4309aa82",
            "0x0000000000000000000000000000000000000000000000000000000000000000"
          ],
          "data": "0x00000000000000000000000000000000000000000000000000000000000000400000000000000000000000005a562294808c5470873831ff456e86369dc32dcb000000000000000000000000000000000000000000000000000000000000000950726f6a65637420310000000000000000000000000000000000000000000000",
          "blockHash": "0xf153fd24d18cd7a17ac564bc034469267ef1a5502bcbc75f190293130d0b6242",
          "blockNumber": "0x7a198a",
          "transactionHash": "0x3250d6cd52b679ca8bd356a436d48983e2710da63b662924a98b13a68ded280f",
          "transactionIndex": "0x2",
          "logIndex": "0x2",
          "removed": false
        }
      ],
      "status": "0x1",
      "logsBloom": "0x00000000000000000000000000000000000000000000000000000000000000000000000000000000000000000000000000000000000000000000000000000000000010000000000000001000000000000000000000000000008000000000000000000000020000000000000000000800008000000000000000000000000000000000000000000000000000000000000000000000000000000000000000000000008000000000000000000000000000000000000000000000000000000000001000000000000000000000000000000000000000000000000000000000000020000000000000000000000000000000000000000000000000000000000000000000",
      "type": "0x2",
      "effectiveGasPrice": "0xb2d34a1c"
    },
    {
      "transactionHash": "0xc25385c680feb59aa0c7a4bb64ccb483ca4fd535fd6c023b47f7641f4e741855",
      "transactionIndex": "0x3",
      "blockHash": "0xf153fd24d18cd7a17ac564bc034469267ef1a5502bcbc75f190293130d0b6242",
      "blockNumber": "0x7a198a",
      "from": "0x5a562294808c5470873831ff456e86369dc32dcB",
      "to": "0x6fE45aaCd8845f28A403946a4B2D15B96731763e",
      "cumulativeGasUsed": "0x21aac4",
      "gasUsed": "0x1abf3",
      "contractAddress": null,
      "logs": [
        {
          "address": "0x6fE45aaCd8845f28A403946a4B2D15B96731763e",
          "topics": [
            "0xc0c54fed07481d0998e1446b2c13759606bf4f26b78306307413ac4c4309aa82",
            "0x0000000000000000000000000000000000000000000000000000000000000001"
          ],
          "data": "0x00000000000000000000000000000000000000000000000000000000000000400000000000000000000000005a562294808c5470873831ff456e86369dc32dcb000000000000000000000000000000000000000000000000000000000000000950726f6a65637420320000000000000000000000000000000000000000000000",
          "blockHash": "0xf153fd24d18cd7a17ac564bc034469267ef1a5502bcbc75f190293130d0b6242",
          "blockNumber": "0x7a198a",
          "transactionHash": "0xc25385c680feb59aa0c7a4bb64ccb483ca4fd535fd6c023b47f7641f4e741855",
          "transactionIndex": "0x3",
          "logIndex": "0x3",
          "removed": false
        }
      ],
      "status": "0x1",
      "logsBloom": "0x00000000000000000000000000000000000000000000000000000000000000000000000000000000000000000000000000000000000000000000000000040000000010000000000000001000000000000000000000040000008000000000000000000000000000000000000000000000008000000000000000000000000000000000000000000000000000000000000000000000000000000000000000000000008000000000000000000000000000000000000000000000000000000000001000000000000000000000000000000000000000000000000000000000000040000000000000000000000000000000000000000000000000000000000000000000",
      "type": "0x2",
      "effectiveGasPrice": "0xb2d34a1c"
    },
    {
      "transactionHash": "0x7232d1c7d2fb801f95f7e294c14ffb28667ee813bd19852683c7b55cac6ae37c",
      "transactionIndex": "0x4",
      "blockHash": "0xf153fd24d18cd7a17ac564bc034469267ef1a5502bcbc75f190293130d0b6242",
      "blockNumber": "0x7a198a",
      "from": "0x5a562294808c5470873831ff456e86369dc32dcB",
      "to": "0x6fE45aaCd8845f28A403946a4B2D15B96731763e",
      "cumulativeGasUsed": "0x2356b7",
      "gasUsed": "0x1abf3",
      "contractAddress": null,
      "logs": [
        {
          "address": "0x6fE45aaCd8845f28A403946a4B2D15B96731763e",
          "topics": [
            "0xc0c54fed07481d0998e1446b2c13759606bf4f26b78306307413ac4c4309aa82",
            "0x0000000000000000000000000000000000000000000000000000000000000002"
          ],
          "data": "0x00000000000000000000000000000000000000000000000000000000000000400000000000000000000000005a562294808c5470873831ff456e86369dc32dcb000000000000000000000000000000000000000000000000000000000000000950726f6a65637420330000000000000000000000000000000000000000000000",
          "blockHash": "0xf153fd24d18cd7a17ac564bc034469267ef1a5502bcbc75f190293130d0b6242",
          "blockNumber": "0x7a198a",
          "transactionHash": "0x7232d1c7d2fb801f95f7e294c14ffb28667ee813bd19852683c7b55cac6ae37c",
          "transactionIndex": "0x4",
          "logIndex": "0x4",
          "removed": false
        }
      ],
      "status": "0x1",
      "logsBloom": "0x04000000000000000000000000000000000000000000000000000000000000000000000000000000000000000000000000000000000000000000000000000000000010000000000000001000000000000000000000000000008000000000000000000000000000000000000000000000008000000000000000000000000000000000000000000000000000000000000000000000000000000000000000000000008000000000000000000100000000000000000000000000000000000000001000000000000000000000000000000000000000000000000000000000000000000000000000000000000000000000000000000000008000000000000000000000",
      "type": "0x2",
      "effectiveGasPrice": "0xb2d34a1c"
    },
    {
      "transactionHash": "0xfe189963d22e3b4945955e5eee5b77613ad8dfb5792e4bad28f0d37d9df3a647",
      "transactionIndex": "0x5",
      "blockHash": "0xf153fd24d18cd7a17ac564bc034469267ef1a5502bcbc75f190293130d0b6242",
      "blockNumber": "0x7a198a",
      "from": "0x5a562294808c5470873831ff456e86369dc32dcB",
      "to": "0x6fE45aaCd8845f28A403946a4B2D15B96731763e",
      "cumulativeGasUsed": "0x24b49e",
      "gasUsed": "0x15de7",
      "contractAddress": null,
      "logs": [
        {
          "address": "0x6fE45aaCd8845f28A403946a4B2D15B96731763e",
          "topics": [
            "0x2587a8aae32052dc3489cced391a070648eedad0b8670a76ce103ee5df587e4a"
          ],
          "data": "0x00000000000000000000000007b8ff46cc6e366fe12e4d3d47825000d9948ecd",
          "blockHash": "0xf153fd24d18cd7a17ac564bc034469267ef1a5502bcbc75f190293130d0b6242",
          "blockNumber": "0x7a198a",
          "transactionHash": "0xfe189963d22e3b4945955e5eee5b77613ad8dfb5792e4bad28f0d37d9df3a647",
          "transactionIndex": "0x5",
          "logIndex": "0x5",
          "removed": false
        }
      ],
      "status": "0x1",
      "logsBloom": "0x00000000000000000000000000000000000000000000000000000000000000000000000000000000000000000000000000000000000000000000000000000000000010000000000000000001000000000000000000000000000000000000000000000000000000000000000000000000008000000000000000000200000100000000000000000000000000000000000000000000000000000000000000000000000000000000000000000000000000000000000000000000000000000000001000000000000000000000000000000000000000000000000000000000000000000000000000000000000000000000000000000000000000000000000000000000",
      "type": "0x2",
      "effectiveGasPrice": "0xb2d34a1c"
    },
    {
      "transactionHash": "0x1f7bd18b2ef4b02e1a36805b21b6afe6cd73fcef4d8df5192cccc121de58bef8",
      "transactionIndex": "0x6",
      "blockHash": "0xf153fd24d18cd7a17ac564bc034469267ef1a5502bcbc75f190293130d0b6242",
      "blockNumber": "0x7a198a",
      "from": "0x5a562294808c5470873831ff456e86369dc32dcB",
      "to": "0x6fE45aaCd8845f28A403946a4B2D15B96731763e",
      "cumulativeGasUsed": "0x25cfc5",
      "gasUsed": "0x11b27",
      "contractAddress": null,
      "logs": [
        {
          "address": "0x6fE45aaCd8845f28A403946a4B2D15B96731763e",
          "topics": [
            "0x2587a8aae32052dc3489cced391a070648eedad0b8670a76ce103ee5df587e4a"
          ],
          "data": "0x000000000000000000000000030996ec60617fe293b4a51c97be0973c9ecdf33",
          "blockHash": "0xf153fd24d18cd7a17ac564bc034469267ef1a5502bcbc75f190293130d0b6242",
          "blockNumber": "0x7a198a",
          "transactionHash": "0x1f7bd18b2ef4b02e1a36805b21b6afe6cd73fcef4d8df5192cccc121de58bef8",
          "transactionIndex": "0x6",
          "logIndex": "0x6",
          "removed": false
        }
      ],
      "status": "0x1",
      "logsBloom": "0x00000000000000000000000000000000000000000000000000000000000000000000000000000000000000000000000000000000000000000000000000000000000010000000000000000001000000000000000000000000000000000000000000000000000000000000000000000000008000000000000000000200000100000000000000000000000000000000000000000000000000000000000000000000000000000000000000000000000000000000000000000000000000000000001000000000000000000000000000000000000000000000000000000000000000000000000000000000000000000000000000000000000000000000000000000000",
      "type": "0x2",
      "effectiveGasPrice": "0xb2d34a1c"
    },
    {
      "transactionHash": "0x136c2eff6bb8fffaa0fc3d328e2110d7e87f0006af45126d5904812adeb31d54",
      "transactionIndex": "0x7",
      "blockHash": "0xf153fd24d18cd7a17ac564bc034469267ef1a5502bcbc75f190293130d0b6242",
      "blockNumber": "0x7a198a",
      "from": "0x5a562294808c5470873831ff456e86369dc32dcB",
      "to": "0x6fE45aaCd8845f28A403946a4B2D15B96731763e",
      "cumulativeGasUsed": "0x26eaec",
      "gasUsed": "0x11b27",
      "contractAddress": null,
      "logs": [
        {
          "address": "0x6fE45aaCd8845f28A403946a4B2D15B96731763e",
          "topics": [
            "0x2587a8aae32052dc3489cced391a070648eedad0b8670a76ce103ee5df587e4a"
          ],
          "data": "0x0000000000000000000000009080cfe04a99afebf37eaa40441c4191b46c2cd1",
          "blockHash": "0xf153fd24d18cd7a17ac564bc034469267ef1a5502bcbc75f190293130d0b6242",
          "blockNumber": "0x7a198a",
          "transactionHash": "0x136c2eff6bb8fffaa0fc3d328e2110d7e87f0006af45126d5904812adeb31d54",
          "transactionIndex": "0x7",
          "logIndex": "0x7",
          "removed": false
        }
      ],
      "status": "0x1",
      "logsBloom": "0x00000000000000000000000000000000000000000000000000000000000000000000000000000000000000000000000000000000000000000000000000000000000010000000000000000001000000000000000000000000000000000000000000000000000000000000000000000000008000000000000000000200000100000000000000000000000000000000000000000000000000000000000000000000000000000000000000000000000000000000000000000000000000000000001000000000000000000000000000000000000000000000000000000000000000000000000000000000000000000000000000000000000000000000000000000000",
      "type": "0x2",
      "effectiveGasPrice": "0xb2d34a1c"
    },
    {
      "transactionHash": "0xec9307ceffb18b8ad15a685cf21fe3bc244b17678dde8b8eea60f06af6c7f838",
      "transactionIndex": "0x8",
      "blockHash": "0xf153fd24d18cd7a17ac564bc034469267ef1a5502bcbc75f190293130d0b6242",
      "blockNumber": "0x7a198a",
      "from": "0x5a562294808c5470873831ff456e86369dc32dcB",
      "to": "0x6fE45aaCd8845f28A403946a4B2D15B96731763e",
      "cumulativeGasUsed": "0x280613",
      "gasUsed": "0x11b27",
      "contractAddress": null,
      "logs": [
        {
          "address": "0x6fE45aaCd8845f28A403946a4B2D15B96731763e",
          "topics": [
            "0x2587a8aae32052dc3489cced391a070648eedad0b8670a76ce103ee5df587e4a"
          ],
          "data": "0x000000000000000000000000f45b4de5c02a7fd2cb137145fb52e7d6d5a9a32e",
          "blockHash": "0xf153fd24d18cd7a17ac564bc034469267ef1a5502bcbc75f190293130d0b6242",
          "blockNumber": "0x7a198a",
          "transactionHash": "0xec9307ceffb18b8ad15a685cf21fe3bc244b17678dde8b8eea60f06af6c7f838",
          "transactionIndex": "0x8",
          "logIndex": "0x8",
          "removed": false
        }
      ],
      "status": "0x1",
      "logsBloom": "0x00000000000000000000000000000000000000000000000000000000000000000000000000000000000000000000000000000000000000000000000000000000000010000000000000000001000000000000000000000000000000000000000000000000000000000000000000000000008000000000000000000200000100000000000000000000000000000000000000000000000000000000000000000000000000000000000000000000000000000000000000000000000000000000001000000000000000000000000000000000000000000000000000000000000000000000000000000000000000000000000000000000000000000000000000000000",
      "type": "0x2",
      "effectiveGasPrice": "0xb2d34a1c"
    },
    {
      "transactionHash": "0x1f4d0d9f076990ac57c09540beea6d7ae3e8d9b6850086ef1dd13f6bf9b2594e",
      "transactionIndex": "0x9",
      "blockHash": "0xf153fd24d18cd7a17ac564bc034469267ef1a5502bcbc75f190293130d0b6242",
      "blockNumber": "0x7a198a",
      "from": "0x5a562294808c5470873831ff456e86369dc32dcB",
      "to": "0x6fE45aaCd8845f28A403946a4B2D15B96731763e",
      "cumulativeGasUsed": "0x292122",
      "gasUsed": "0x11b0f",
      "contractAddress": null,
      "logs": [
        {
          "address": "0x6fE45aaCd8845f28A403946a4B2D15B96731763e",
          "topics": [
            "0x2587a8aae32052dc3489cced391a070648eedad0b8670a76ce103ee5df587e4a"
          ],
          "data": "0x000000000000000000000000b77ff06d00179f0811e9788b2cba6a2b0011b165",
          "blockHash": "0xf153fd24d18cd7a17ac564bc034469267ef1a5502bcbc75f190293130d0b6242",
          "blockNumber": "0x7a198a",
          "transactionHash": "0x1f4d0d9f076990ac57c09540beea6d7ae3e8d9b6850086ef1dd13f6bf9b2594e",
          "transactionIndex": "0x9",
          "logIndex": "0x9",
          "removed": false
        }
      ],
      "status": "0x1",
      "logsBloom": "0x00000000000000000000000000000000000000000000000000000000000000000000000000000000000000000000000000000000000000000000000000000000000010000000000000000001000000000000000000000000000000000000000000000000000000000000000000000000008000000000000000000200000100000000000000000000000000000000000000000000000000000000000000000000000000000000000000000000000000000000000000000000000000000000001000000000000000000000000000000000000000000000000000000000000000000000000000000000000000000000000000000000000000000000000000000000",
      "type": "0x2",
      "effectiveGasPrice": "0xb2d34a1c"
    },
    {
      "transactionHash": "0x68989a8a4340aaef936bf83644ff5f7bdd57a4bb6a478bee76ff155282ffbf74",
      "transactionIndex": "0xa",
      "blockHash": "0xf153fd24d18cd7a17ac564bc034469267ef1a5502bcbc75f190293130d0b6242",
      "blockNumber": "0x7a198a",
      "from": "0x5a562294808c5470873831ff456e86369dc32dcB",
      "to": "0x6fE45aaCd8845f28A403946a4B2D15B96731763e",
      "cumulativeGasUsed": "0x29d558",
      "gasUsed": "0xb436",
      "contractAddress": null,
      "logs": [],
      "status": "0x1",
      "logsBloom": "0x00000000000000000000000000000000000000000000000000000000000000000000000000000000000000000000000000000000000000000000000000000000000000000000000000000000000000000000000000000000000000000000000000000000000000000000000000000000000000000000000000000000000000000000000000000000000000000000000000000000000000000000000000000000000000000000000000000000000000000000000000000000000000000000000000000000000000000000000000000000000000000000000000000000000000000000000000000000000000000000000000000000000000000000000000000000",
      "type": "0x2",
      "effectiveGasPrice": "0xb2d34a1c"
    }
  ],
  "libraries": [],
  "pending": [],
  "returns": {},
  "timestamp": 1711772171,
  "chain": 84532,
  "multi": false,
  "commit": "255cc20"
}