{
  "transactions": [
    {
      "hash": "0x129fb02ab5de5ac43fdccfba7815a07779c09e907faebb56fd4176cd93635431",
      "transactionType": "CREATE",
      "contractName": "FundingRound",
      "contractAddress": "0xb5141c36cDC80A3d37d82067eAC2221FB08cBac0",
      "function": null,
      "arguments": [
        "0x5a562294808c5470873831ff456e86369dc32dcB"
      ],
      "transaction": {
        "type": "0x02",
        "from": "0x5a562294808c5470873831ff456e86369dc32dcb",
        "gas": "0x288d7d",
        "value": "0x0",
        "data": "0x608060405260006002553480156200001657600080fd5b506040516200245c3803806200245c8339810160408190526200003991620000a6565b620000443362000056565b6200004f8162000056565b50620000d8565b600080546001600160a01b038381166001600160a01b0319831681178455604051919092169283917f8be0079c531659141344cd1fd0a4f28419497f9722a3daafe3b4186f6b6457e09190a35050565b600060208284031215620000b957600080fd5b81516001600160a01b0381168114620000d157600080fd5b9392505050565b61237480620000e86000396000f3fe6080604052600436106100fe5760003560e01c80638da5cb5b11610095578063c0bc417811610064578063c0bc4178146102ac578063c65579ad146102cc578063d05c572c146102ec578063dcc601281461032c578063f2fde38b1461034e57600080fd5b80638da5cb5b146102265780639e93e57714610244578063a35ff0761461026c578063b49521c41461028c57600080fd5b8063715018a6116100d1578063715018a6146101b657806372add818146101cb578063769d2475146101f35780637b1837de1461020657600080fd5b80630f95c1bd14610103578063107046bd1461012557806323b311a91461015e57806338ba461414610196575b600080fd5b34801561010f57600080fd5b5061012361011e366004611a4c565b61036e565b005b34801561013157600080fd5b50610145610140366004611a88565b610403565b6040516101559493929190611ae7565b60405180910390f35b34801561016a57600080fd5b5060055461017e906001600160a01b031681565b6040516001600160a01b039091168152602001610155565b3480156101a257600080fd5b506101236101b1366004611b1f565b6104d4565b3480156101c257600080fd5b5061012361094d565b3480156101d757600080fd5b5061017e73f46d5fa9bfc964e8d06846c8739aec69bc06344d81565b610123610201366004611b9e565b610961565b34801561021257600080fd5b50610123610221366004611bcb565b610a1d565b34801561023257600080fd5b506000546001600160a01b031661017e565b34801561025057600080fd5b5061017e73bd7aaa2984c0a887e93c66baae222749883763d381565b34801561027857600080fd5b50610123610287366004611bf5565b610b15565b34801561029857600080fd5b506101236102a7366004611bf5565b610b3f565b3480156102b857600080fd5b5061017e6102c7366004611a88565b610c12565b3480156102d857600080fd5b506101236102e7366004611c10565b610c3c565b3480156102f857600080fd5b5061031c610307366004611bf5565b60036020526000908152604090205460ff1681565b6040519015158152602001610155565b34801561033857600080fd5b50610341610dc4565b6040516101559190611ccc565b34801561035a57600080fd5b50610123610369366004611bf5565b610f93565b610379600382611ddd565b6000036103905761038a838361100c565b506103ca565b61039b600382611ddd565b6001036103ac5761038a8383611280565b6103b7600382611ddd565b6002036103ca576103c88383611501565b505b6040518181527f4c54ad6b9c87c49f7eec2866eab99318822b75bd5d881d5b1578b1c686e96f84906020015b60405180910390a1505050565b6001818154811061041357600080fd5b906000526020600020906006020160009150905080600001549080600101549080600201805461044290611df1565b80601f016020809104026020016040519081016040528092919081815260200182805461046e90611df1565b80156104bb5780601f10610490576101008083540402835291602001916104bb565b820191906000526020600020905b81548152906001019060200180831161049e57829003601f168201915b505050600390930154919250506001600160a01b031684565b6005546001600160a01b031633146105335760405162461bcd60e51b815260206004820152601f60248201527f6f6e6c792053656372657420476174657761792063616e2066756c66696c6c0060448201526064015b60405180910390fd5b60006001805480602002602001604051908101604052809291908181526020016000905b828210156106f957838290600052602060002090600602016040518060c0016040529081600082015481526020016001820154815260200160028201805461059e90611df1565b80601f01602080910402602001604051908101604052809291908181526020018280546105ca90611df1565b80156106175780601f106105ec57610100808354040283529160200191610617565b820191906000526020600020905b8154815290600101906020018083116105fa57829003601f168201915b505050918352505060038201546001600160a01b0316602080830191909152600483018054604080518285028101850182528281529401939283018282801561068957602002820191906000526020600020905b81546001600160a01b0316815260019091019060200180831161066b575b50505050508152602001600582018054806020026020016040519081016040528092919081815260200182805480156106e157602002820191906000526020600020905b8154815260200190600101908083116106cd575b50505050508152505081526020019060010190610557565b50505050905060005b60045481101561090b5760006004828154811061072157610721611e2b565b6000918252602090912001546040516370a0823160e01b81523060048201526001600160a01b03909116906370a0823190602401602060405180830381865afa158015610772573d6000803e3d6000fd5b505050506040513d601f19601f820116820180604052508101906107969190611e41565b905080156108fa57600083518686858181106107b4576107b4611e2b565b905060200201356107c59190611ddd565b9050600181815481106107da576107da611e2b565b9060005260206000209060060201600401600484815481106107fe576107fe611e2b565b6000918252602080832090910154835460018181018655948452919092200180546001600160a01b0319166001600160a01b0390921691909117905580548290811061084c5761084c611e2b565b60009182526020808320600560069093020191909101805460018181018355918452919092200183905580546108f891908390811061088d5761088d611e2b565b906000526020600020906006020160030160009054906101000a90046001600160a01b0316600485815481106108c5576108c5611e2b565b6000918252602090912001546001600160a01b03168888878181106108ec576108ec611e2b565b9050602002013561036e565b505b5061090481611e70565b9050610702565b507fe7ecfe6928c754cbd5282724cb865166ac3a20565babb867db6047900d72372384848460405161093f93929190611e89565b60405180910390a150505050565b610955611829565b61095f6000611883565b565b600554600480546040516361bf619360e01b815263ffffffff91821692810192909252831660248201526001600160a01b039091169060009082906361bf619390349060440160206040518083038185885af11580156109c5573d6000803e3d6000fd5b50505050506040513d601f19601f820116820180604052508101906109ea9190611e41565b90507f9ef465a513d3907321fbc06db999b22497925c91f2cc1ee6b0a52b141d3263b2816040516103f691815260200190565b6001600160a01b03821660009081526003602052604090205460ff16610a565760405163fa50582160e01b815260040160405180910390fd5b6040516323b872dd60e01b8152336004820152306024820152604481018290526001600160a01b038316906323b872dd906064016020604051808303816000875af1158015610aa9573d6000803e3d6000fd5b505050506040513d601f19601f82011682018060405250810190610acd9190611eca565b50816001600160a01b03167f5af8184bef8e4b45eb9f6ed7734d04da38ced226495548f46e0c8ff8d7d9a52482604051610b0991815260200190565b60405180910390a25050565b610b1d611829565b600580546001600160a01b0319166001600160a01b0392909216919091179055565b6001600160a01b03811660009081526003602052604090205460ff1615610b785760405162a679fd60e01b815260040160405180910390fd5b6004805460018082019092557f8a35acfbc15ff81a39ae7d344fd709f28e8600b4aa8c65c6b64bfe7fe36bd19b0180546001600160a01b0319166001600160a01b038416908117909155600081815260036020908152604091829020805460ff1916909417909355519081527f2587a8aae32052dc3489cced391a070648eedad0b8670a76ce103ee5df587e4a910160405180910390a150565b60048181548110610c2257600080fd5b6000918252602090912001546001600160a01b0316905081565b60016040518060c0016040528060026000815480929190610c5c90611e70565b9190505581526020016000815260200185858080601f01602080910402602001604051908101604052809392919081815260200183838082843760009201829052509385525050506001600160a01b0385166020808401919091526040805183815280830182528185015280518381528083018252606090940193909352845460018082018755958352918190208451600690930201918255830151938101939093558101519091906002820190610d149082611f51565b5060608201516003820180546001600160a01b0319166001600160a01b0390921691909117905560808201518051610d569160048401916020909101906118d3565b5060a08201518051610d72916005840191602090910190611938565b5050506001600254610d849190612011565b7fc0c54fed07481d0998e1446b2c13759606bf4f26b78306307413ac4c4309aa82848484604051610db79392919061202a565b60405180910390a2505050565b60606001805480602002602001604051908101604052809291908181526020016000905b82821015610f8a57838290600052602060002090600602016040518060c00160405290816000820154815260200160018201548152602001600282018054610e2f90611df1565b80601f0160208091040260200160405190810160405280929190818152602001828054610e5b90611df1565b8015610ea85780601f10610e7d57610100808354040283529160200191610ea8565b820191906000526020600020905b815481529060010190602001808311610e8b57829003601f168201915b505050918352505060038201546001600160a01b03166020808301919091526004830180546040805182850281018501825282815294019392830182828015610f1a57602002820191906000526020600020905b81546001600160a01b03168152600190910190602001808311610efc575b5050505050815260200160058201805480602002602001604051908101604052809291908181526020018280548015610f7257602002820191906000526020600020905b815481526020019060010190808311610f5e575b50505050508152505081526020019060010190610de8565b50505050905090565b610f9b611829565b6001600160a01b0381166110005760405162461bcd60e51b815260206004820152602660248201527f4f776e61626c653a206e6577206f776e657220697320746865207a65726f206160448201526564647265737360d01b606482015260840161052a565b61100981611883565b50565b6040516370a0823160e01b815230600482015260009081906001600160a01b038416906370a0823190602401602060405180830381865afa158015611055573d6000803e3d6000fd5b505050506040513d601f19601f820116820180604052508101906110799190611e41565b60405163095ea7b360e01b815273bd7aaa2984c0a887e93c66baae222749883763d36004820152602481018290529091506001600160a01b0384169063095ea7b3906044016020604051808303816000875af11580156110dd573d6000803e3d6000fd5b505050506040513d601f19601f820116820180604052508101906111019190611eca565b50611164604080516101008101825260008082526020808301829052828401829052606083018290526080830182905260a083018290528351808501855282815280820183905260c084015283518085019094528184528301529060e082015290565b3081526001600160a01b038581166020808401919091526001600160801b038416604080850191909152918616606084015260016080840152815180830183526014815260509181019190915260c083015251632ac59f3360e21b815273bd7aaa2984c0a887e93c66baae222749883763d39063ab167ccc906111eb90849060040161206b565b6020604051808303816000875af115801561120a573d6000803e3d6000fd5b505050506040513d601f19601f8201168201806040525081019061122e9190611e41565b604080518481526001600160a01b038881166020830152929550918616917f8a6e6d2f30b3ecf08f8659167a601ef4236b6810b5e93ef2ba1138662343a42d91015b60405180910390a2505092915050565b6040516370a0823160e01b815230600482015260009081906001600160a01b038416906370a0823190602401602060405180830381865afa1580156112c9573d6000803e3d6000fd5b505050506040513d601f19601f820116820180604052508101906112ed9190611e41565b60405163095ea7b360e01b815273f46d5fa9bfc964e8d06846c8739aec69bc06344d6004820152602481018290529091506001600160a01b0384169063095ea7b3906044016020604051808303816000875af1158015611351573d6000803e3d6000fd5b505050506040513d601f19601f820116820180604052508101906113759190611eca565b5061137e611973565b3081526001600160a01b0385811660608301526001600160801b0383166080830152841660a08201526001602082018190526040805182815280820190915290816020015b60408051606081018252600080825260208083018290529282015282526000199092019101816113c357505060e08201908152604080516060810182526001600160801b03851681526753444835ec58000060208201526014918101919091529051805160009061143657611436611e2b565b6020908102919091010152604051630b42222b60e11b815273f46d5fa9bfc964e8d06846c8739aec69bc06344d90631684445690611478908490600401612181565b6020604051808303816000875af1158015611497573d6000803e3d6000fd5b505050506040513d601f19601f820116820180604052508101906114bb9190611e41565b604080518481526001600160a01b038881166020830152929550918616917f3d9d2ef7ae14794c94822da9407acbc434e44b8b2d1a74bd1b9323ebc063a57f9101611270565b6040516370a0823160e01b815230600482015260009081906001600160a01b038416906370a0823190602401602060405180830381865afa15801561154a573d6000803e3d6000fd5b505050506040513d601f19601f8201168201806040525081019061156e9190611e41565b60405163095ea7b360e01b815273f46d5fa9bfc964e8d06846c8739aec69bc06344d6004820152602481018290529091506001600160a01b0384169063095ea7b3906044016020604051808303816000875af11580156115d2573d6000803e3d6000fd5b505050506040513d601f19601f820116820180604052508101906115f69190611eca565b506115ff6119c8565b3081526001600160a01b0385811660808301526001600160801b03831660a0830152841660c08201526001604082015261163a42601e612234565b64ffffffffff1660208201526040805160028082526060820190925290816020015b604080516060810182526000808252602080830182905292820152825260001990920191018161165c5750506101008201526040805160608101909152806116a5600285612247565b6001600160801b03168152670de0b6b3a764000060208201526040016116cc42600a612234565b64ffffffffff168152508161010001516000815181106116ee576116ee611e2b565b60200260200101819052506040518060600160405280836001600160801b03168152602001611722672b93855d12ba000090565b67ffffffffffffffff16815260200161173c426078612234565b64ffffffffff1681525081610100015160018151811061175e5761175e611e2b565b602090810291909101015260405163619e69af60e11b815273f46d5fa9bfc964e8d06846c8739aec69bc06344d9063c33cd35e906117a090849060040161226d565b6020604051808303816000875af11580156117bf573d6000803e3d6000fd5b505050506040513d601f19601f820116820180604052508101906117e39190611e41565b604080518481526001600160a01b038881166020830152929550918616917fbe09a44412e01f231b75059b9d4b1d1ef6b9abe3db88e6afe794e0bf5fb49f8b9101611270565b6000546001600160a01b0316331461095f5760405162461bcd60e51b815260206004820181905260248201527f4f776e61626c653a2063616c6c6572206973206e6f7420746865206f776e6572604482015260640161052a565b600080546001600160a01b038381166001600160a01b0319831681178455604051919092169283917f8be0079c531659141344cd1fd0a4f28419497f9722a3daafe3b4186f6b6457e09190a35050565b828054828255906000526020600020908101928215611928579160200282015b8281111561192857825182546001600160a01b0319166001600160a01b039091161782556020909201916001909101906118f3565b50611934929150611a1b565b5090565b828054828255906000526020600020908101928215611928579160200282015b82811115611928578251825591602001919060010190611958565b604080516101008101825260008082526020808301829052828401829052606083018290526080830182905260a0830182905283518085019094528184528301529060c08201905b8152602001606081525090565b604080516101208101825260008082526020808301829052828401829052606083018290526080830182905260a0830182905260c0830182905283518085019094528184528301529060e08201906119bb565b5b808211156119345760008155600101611a1c565b80356001600160a01b0381168114611a4757600080fd5b919050565b600080600060608486031215611a6157600080fd5b611a6a84611a30565b9250611a7860208501611a30565b9150604084013590509250925092565b600060208284031215611a9a57600080fd5b5035919050565b6000815180845260005b81811015611ac757602081850181015186830182015201611aab565b506000602082860101526020601f19601f83011685010191505092915050565b848152836020820152608060408201526000611b066080830185611aa1565b905060018060a01b038316606083015295945050505050565b600080600060408486031215611b3457600080fd5b83359250602084013567ffffffffffffffff80821115611b5357600080fd5b818601915086601f830112611b6757600080fd5b813581811115611b7657600080fd5b8760208260051b8501011115611b8b57600080fd5b6020830194508093505050509250925092565b600060208284031215611bb057600080fd5b813563ffffffff81168114611bc457600080fd5b9392505050565b60008060408385031215611bde57600080fd5b611be783611a30565b946020939093013593505050565b600060208284031215611c0757600080fd5b611bc482611a30565b600080600060408486031215611c2557600080fd5b833567ffffffffffffffff80821115611c3d57600080fd5b818601915086601f830112611c5157600080fd5b813581811115611c6057600080fd5b876020828501011115611c7257600080fd5b602092830195509350611c889186019050611a30565b90509250925092565b600081518084526020808501945080840160005b83811015611cc157815187529582019590820190600101611ca5565b509495945050505050565b60006020808301818452808551808352604092508286019150828160051b8701018488016000805b84811015611db857603f198a8503018652825160c081518652898201518a87015288820151818a880152611d2a82880182611aa1565b6060848101516001600160a01b03908116918a01919091526080808601518a8403918b01919091528051808452908e019450918d01925086915b80831015611d8657845182168452938d0193928d019260019290920191611d64565b50505060a09283015187820388850152929150611da38184611c91565b988b0198965050509288019250600101611cf4565b50919998505050505050505050565b634e487b7160e01b600052601260045260246000fd5b600082611dec57611dec611dc7565b500690565b600181811c90821680611e0557607f821691505b602082108103611e2557634e487b7160e01b600052602260045260246000fd5b50919050565b634e487b7160e01b600052603260045260246000fd5b600060208284031215611e5357600080fd5b5051919050565b634e487b7160e01b600052601160045260246000fd5b600060018201611e8257611e82611e5a565b5060010190565b838152604060208201819052810182905260006001600160fb1b03831115611eb057600080fd5b8260051b8085606085013791909101606001949350505050565b600060208284031215611edc57600080fd5b81518015158114611bc457600080fd5b634e487b7160e01b600052604160045260246000fd5b601f821115611f4c57600081815260208120601f850160051c81016020861015611f295750805b601f850160051c820191505b81811015611f4857828155600101611f35565b5050505b505050565b815167ffffffffffffffff811115611f6b57611f6b611eec565b611f7f81611f798454611df1565b84611f02565b602080601f831160018114611fb45760008415611f9c5750858301515b600019600386901b1c1916600185901b178555611f48565b600085815260208120601f198616915b82811015611fe357888601518255948401946001909101908401611fc4565b50858210156120015787850151600019600388901b60f8161c191681555b5050505050600190811b01905550565b8181038181111561202457612024611e5a565b92915050565b6040815282604082015282846060830137600060608483018101919091526001600160a01b03929092166020820152601f909201601f191690910101919050565b81516001600160a01b0390811682526020808401518216908301526040808401516001600160801b031690830152606080840151909116908201526080808301516101408301916120bf9084018215159052565b5060a08301516120d360a084018215159052565b5060c08301516120fa60c0840182805164ffffffffff908116835260209182015116910152565b5060e0929092015180516001600160a01b0316610100830152602001516101209091015290565b600081518084526020808501945080840160005b83811015611cc157815180516001600160801b031688528381015167ffffffffffffffff168489015260409081015164ffffffffff169088015260609096019590820190600101612135565b602080825282516001600160a01b031682820152820151151560408083019190915282015180151560608301526000905060608301516001600160a01b03811660808401525060808301516001600160801b03811660a08401525060a08301516001600160a01b03811660c08401525060c083015180516001600160a01b031660e084015260208101516101008401525060e08301516101208381015261222c610140840182612121565b949350505050565b8082018082111561202457612024611e5a565b60006001600160801b038084168061226157612261611dc7565b92169190910492915050565b602081526122876020820183516001600160a01b03169052565b600060208301516122a1604084018264ffffffffff169052565b506040830151801515606084015250606083015180151560808401525060808301516001600160a01b03811660a08401525060a08301516001600160801b03811660c08401525060c08301516001600160a01b03811660e08401525060e08301516101006123248185018380516001600160a01b03168252602090810151910152565b84015161014084810152905061222c61016084018261212156fea26469706673582212200c730095e577dc1f27bba964e48903a5b0ad213517e0a5fc61cc6a0e3362aeaa64736f6c634300081300330000000000000000000000005a562294808c5470873831ff456e86369dc32dcb",
        "nonce": "0x138",
        "accessList": []
      },
      "additionalContracts": [],
      "isFixedGasLimit": false
    },
    {
      "hash": "0x4d2db3a3f7c582b8efcb914a693cffe0a33c5c14402749d01cde8994e399b64b",
      "transactionType": "CALL",
      "contractName": "contracts/FundingRound.sol:FundingRound",
      "contractAddress": "0xb5141c36cDC80A3d37d82067eAC2221FB08cBac0",
      "function": "createProject(string,address)",
      "arguments": [
        "\"Project 1\"",
        "0x5a562294808c5470873831ff456e86369dc32dcB"
      ],
      "transaction": {
        "type": "0x02",
        "from": "0x5a562294808c5470873831ff456e86369dc32dcb",
        "to": "0xb5141c36cdc80a3d37d82067eac2221fb08cbac0",
        "gas": "0x29c44",
        "value": "0x0",
        "data": "0xc65579ad00000000000000000000000000000000000000000000000000000000000000400000000000000000000000005a562294808c5470873831ff456e86369dc32dcb000000000000000000000000000000000000000000000000000000000000000950726f6a65637420310000000000000000000000000000000000000000000000",
        "nonce": "0x139",
        "accessList": []
      },
      "additionalContracts": [],
      "isFixedGasLimit": false
    },
    {
      "hash": "0x95f412424286ca2f30f0ef4f4a2fc2a9721dda163019acc126e984f33db77d31",
      "transactionType": "CALL",
      "contractName": "contracts/FundingRound.sol:FundingRound",
      "contractAddress": "0xb5141c36cDC80A3d37d82067eAC2221FB08cBac0",
      "function": "createProject(string,address)",
      "arguments": [
        "\"Project 2\"",
        "0x5a562294808c5470873831ff456e86369dc32dcB"
      ],
      "transaction": {
        "type": "0x02",
        "from": "0x5a562294808c5470873831ff456e86369dc32dcb",
        "to": "0xb5141c36cdc80a3d37d82067eac2221fb08cbac0",
        "gas": "0x24f1b",
        "value": "0x0",
        "data": "0xc65579ad00000000000000000000000000000000000000000000000000000000000000400000000000000000000000005a562294808c5470873831ff456e86369dc32dcb000000000000000000000000000000000000000000000000000000000000000950726f6a65637420320000000000000000000000000000000000000000000000",
        "nonce": "0x13a",
        "accessList": []
      },
      "additionalContracts": [],
      "isFixedGasLimit": false
    },
    {
      "hash": "0xeb7c530e6557288c847788030ed98b74a2d8d7832438d2b3cdd17e0575060050",
      "transactionType": "CALL",
      "contractName": "contracts/FundingRound.sol:FundingRound",
      "contractAddress": "0xb5141c36cDC80A3d37d82067eAC2221FB08cBac0",
      "function": "createProject(string,address)",
      "arguments": [
        "\"Project 3\"",
        "0x5a562294808c5470873831ff456e86369dc32dcB"
      ],
      "transaction": {
        "type": "0x02",
        "from": "0x5a562294808c5470873831ff456e86369dc32dcb",
        "to": "0xb5141c36cdc80a3d37d82067eac2221fb08cbac0",
        "gas": "0x24f1b",
        "value": "0x0",
        "data": "0xc65579ad00000000000000000000000000000000000000000000000000000000000000400000000000000000000000005a562294808c5470873831ff456e86369dc32dcb000000000000000000000000000000000000000000000000000000000000000950726f6a65637420330000000000000000000000000000000000000000000000",
        "nonce": "0x13b",
        "accessList": []
      },
      "additionalContracts": [],
      "isFixedGasLimit": false
    },
    {
      "hash": "0x2b1b082096499c7b68f6704672d7552c92e5e93960138f2362a11704954afe4f",
      "transactionType": "CALL",
      "contractName": "contracts/FundingRound.sol:FundingRound",
      "contractAddress": "0xb5141c36cDC80A3d37d82067eAC2221FB08cBac0",
      "function": "setShitCoin(address)",
      "arguments": [
        "0x07B8FF46Cc6e366Fe12e4d3D47825000d9948eCD"
      ],
      "transaction": {
        "type": "0x02",
        "from": "0x5a562294808c5470873831ff456e86369dc32dcb",
        "to": "0xb5141c36cdc80a3d37d82067eac2221fb08cbac0",
        "gas": "0x1e34c",
        "value": "0x0",
        "data": "0xb49521c400000000000000000000000007b8ff46cc6e366fe12e4d3d47825000d9948ecd",
        "nonce": "0x13c",
        "accessList": []
      },
      "additionalContracts": [],
      "isFixedGasLimit": false
    },
    {
      "hash": "0xd5e2fd7a7a91590d415ac78eaa039e158343295705041f34ef449e18419df72a",
      "transactionType": "CALL",
      "contractName": "contracts/FundingRound.sol:FundingRound",
      "contractAddress": "0xb5141c36cDC80A3d37d82067eAC2221FB08cBac0",
      "function": "setShitCoin(address)",
      "arguments": [
        "0x030996ec60617Fe293B4A51c97bE0973C9ECDF33"
      ],
      "transaction": {
        "type": "0x02",
        "from": "0x5a562294808c5470873831ff456e86369dc32dcb",
        "to": "0xb5141c36cdc80a3d37d82067eac2221fb08cbac0",
        "gas": "0x1871a",
        "value": "0x0",
        "data": "0xb49521c4000000000000000000000000030996ec60617fe293b4a51c97be0973c9ecdf33",
        "nonce": "0x13d",
        "accessList": []
      },
      "additionalContracts": [],
      "isFixedGasLimit": false
    },
    {
      "hash": "0x6741c8329c244da3fe4095ddde8ae0505bcd2f0613d633441dd19de13fecfc13",
      "transactionType": "CALL",
      "contractName": "contracts/FundingRound.sol:FundingRound",
      "contractAddress": "0xb5141c36cDC80A3d37d82067eAC2221FB08cBac0",
      "function": "setShitCoin(address)",
      "arguments": [
        "0x9080cFe04A99afeBF37EaA40441c4191B46c2cd1"
      ],
      "transaction": {
        "type": "0x02",
        "from": "0x5a562294808c5470873831ff456e86369dc32dcb",
        "to": "0xb5141c36cdc80a3d37d82067eac2221fb08cbac0",
        "gas": "0x1871a",
        "value": "0x0",
        "data": "0xb49521c40000000000000000000000009080cfe04a99afebf37eaa40441c4191b46c2cd1",
        "nonce": "0x13e",
        "accessList": []
      },
      "additionalContracts": [],
      "isFixedGasLimit": false
    },
    {
      "hash": "0x5512ce91b8a73e909cb82c2fe5e4d842149c0f45a22c10a1b11a0ae41a7dd40b",
      "transactionType": "CALL",
      "contractName": "contracts/FundingRound.sol:FundingRound",
      "contractAddress": "0xb5141c36cDC80A3d37d82067eAC2221FB08cBac0",
      "function": "setShitCoin(address)",
      "arguments": [
        "0xf45b4dE5C02A7FD2cb137145fb52e7D6d5a9a32e"
      ],
      "transaction": {
        "type": "0x02",
        "from": "0x5a562294808c5470873831ff456e86369dc32dcb",
        "to": "0xb5141c36cdc80a3d37d82067eac2221fb08cbac0",
        "gas": "0x1871a",
        "value": "0x0",
        "data": "0xb49521c4000000000000000000000000f45b4de5c02a7fd2cb137145fb52e7d6d5a9a32e",
        "nonce": "0x13f",
        "accessList": []
      },
      "additionalContracts": [],
      "isFixedGasLimit": false
    },
    {
      "hash": "0x296f5210e971b044c1fa7fd359f3f5009cbae29759e5f2eb3efa55313d350bdb",
      "transactionType": "CALL",
      "contractName": "contracts/FundingRound.sol:FundingRound",
      "contractAddress": "0xb5141c36cDC80A3d37d82067eAC2221FB08cBac0",
      "function": "setShitCoin(address)",
      "arguments": [
        "0xB77Ff06d00179F0811E9788B2cBA6A2b0011B165"
      ],
      "transaction": {
        "type": "0x02",
        "from": "0x5a562294808c5470873831ff456e86369dc32dcb",
        "to": "0xb5141c36cdc80a3d37d82067eac2221fb08cbac0",
        "gas": "0x186f8",
        "value": "0x0",
        "data": "0xb49521c4000000000000000000000000b77ff06d00179f0811e9788b2cba6a2b0011b165",
        "nonce": "0x140",
        "accessList": []
      },
      "additionalContracts": [],
      "isFixedGasLimit": false
    },
    {
      "hash": "0x0b8c51aec916fe66c6fd9f1e4cb8ffee97a5776a940d86df0d2672c0a44e25e7",
      "transactionType": "CALL",
      "contractName": "contracts/FundingRound.sol:FundingRound",
      "contractAddress": "0xb5141c36cDC80A3d37d82067eAC2221FB08cBac0",
      "function": "setGatewayAddress(address)",
      "arguments": [
        "0xfaFCfceC4e29e9b4ECc8C0a3f7df1011580EEEf2"
      ],
      "transaction": {
        "type": "0x02",
        "from": "0x5a562294808c5470873831ff456e86369dc32dcb",
        "to": "0xb5141c36cdc80a3d37d82067eac2221fb08cbac0",
        "gas": "0xf8ea",
        "value": "0x0",
        "data": "0xa35ff076000000000000000000000000fafcfcec4e29e9b4ecc8c0a3f7df1011580eeef2",
        "nonce": "0x141",
        "accessList": []
      },
      "additionalContracts": [],
      "isFixedGasLimit": false
    }
  ],
  "receipts": [
    {
      "transactionHash": "0x129fb02ab5de5ac43fdccfba7815a07779c09e907faebb56fd4176cd93635431",
      "transactionIndex": "0x1",
      "blockHash": "0x18a4843381e94cf5a6c2c9f0fe6d09c88f5bda39ede62b57b8532e04f7845ab8",
      "blockNumber": "0x7a25c3",
      "from": "0x5a562294808c5470873831ff456e86369dc32dcB",
      "to": null,
      "cumulativeGasUsed": "0x200b0a",
      "gasUsed": "0x1f340b",
      "contractAddress": "0xb5141c36cDC80A3d37d82067eAC2221FB08cBac0",
      "logs": [
        {
          "address": "0xb5141c36cDC80A3d37d82067eAC2221FB08cBac0",
          "topics": [
            "0x8be0079c531659141344cd1fd0a4f28419497f9722a3daafe3b4186f6b6457e0",
            "0x0000000000000000000000000000000000000000000000000000000000000000",
            "0x0000000000000000000000005a562294808c5470873831ff456e86369dc32dcb"
          ],
          "data": "0x",
          "blockHash": "0x18a4843381e94cf5a6c2c9f0fe6d09c88f5bda39ede62b57b8532e04f7845ab8",
          "blockNumber": "0x7a25c3",
          "transactionHash": "0x129fb02ab5de5ac43fdccfba7815a07779c09e907faebb56fd4176cd93635431",
          "transactionIndex": "0x1",
          "logIndex": "0x0",
          "removed": false
        },
        {
          "address": "0xb5141c36cDC80A3d37d82067eAC2221FB08cBac0",
          "topics": [
            "0x8be0079c531659141344cd1fd0a4f28419497f9722a3daafe3b4186f6b6457e0",
            "0x0000000000000000000000005a562294808c5470873831ff456e86369dc32dcb",
            "0x0000000000000000000000005a562294808c5470873831ff456e86369dc32dcb"
          ],
          "data": "0x",
          "blockHash": "0x18a4843381e94cf5a6c2c9f0fe6d09c88f5bda39ede62b57b8532e04f7845ab8",
          "blockNumber": "0x7a25c3",
          "transactionHash": "0x129fb02ab5de5ac43fdccfba7815a07779c09e907faebb56fd4176cd93635431",
          "transactionIndex": "0x1",
          "logIndex": "0x1",
          "removed": false
        }
      ],
      "status": "0x1",
      "logsBloom": "0x00000000000000000000000008000000000000000000000000800000000000000000000000000000000000000000000800000000000000000000000000001000000000000000000000000000000000000001000000000004000000000220000000000000020000000000000000000800000000000000000000000000000000400000000000000000000000000000000000000000000000000000000000000000000000000000000000000000000000000000000000000000000000000000000000000000000000000000000000000000000000000000000000000000000020000000000000000000000000000000000000000000000000000000000000000000",
      "type": "0x2",
      "effectiveGasPrice": "0xb2d05f90"
    },
    {
      "transactionHash": "0x4d2db3a3f7c582b8efcb914a693cffe0a33c5c14402749d01cde8994e399b64b",
      "transactionIndex": "0x2",
      "blockHash": "0x18a4843381e94cf5a6c2c9f0fe6d09c88f5bda39ede62b57b8532e04f7845ab8",
      "blockNumber": "0x7a25c3",
      "from": "0x5a562294808c5470873831ff456e86369dc32dcB",
      "to": "0xb5141c36cDC80A3d37d82067eAC2221FB08cBac0",
      "cumulativeGasUsed": "0x21eeda",
      "gasUsed": "0x1e3d0",
      "contractAddress": null,
      "logs": [
        {
          "address": "0xb5141c36cDC80A3d37d82067eAC2221FB08cBac0",
          "topics": [
            "0xc0c54fed07481d0998e1446b2c13759606bf4f26b78306307413ac4c4309aa82",
            "0x0000000000000000000000000000000000000000000000000000000000000000"
          ],
          "data": "0x00000000000000000000000000000000000000000000000000000000000000400000000000000000000000005a562294808c5470873831ff456e86369dc32dcb000000000000000000000000000000000000000000000000000000000000000950726f6a65637420310000000000000000000000000000000000000000000000",
          "blockHash": "0x18a4843381e94cf5a6c2c9f0fe6d09c88f5bda39ede62b57b8532e04f7845ab8",
          "blockNumber": "0x7a25c3",
          "transactionHash": "0x4d2db3a3f7c582b8efcb914a693cffe0a33c5c14402749d01cde8994e399b64b",
          "transactionIndex": "0x2",
          "logIndex": "0x2",
          "removed": false
        }
      ],
      "status": "0x1",
      "logsBloom": "0x00000000000000000000000008000000000000000000000000000000000000000000000000000000000000000000000800000000000000000000000000001000000000000000000000001000000000000000000000000000008000000000000000000000020000000000000000000800000000000000000000000000000000000000000000000000000000000000000000000000000000000000000000000000008000000000000000000000000000000000000000000000000000000000000000000000000000000000000000000000000000000000000000000000000020000000000000000000000000000000000000000000000000000000000000000000",
      "type": "0x2",
      "effectiveGasPrice": "0xb2d05f90"
    },
    {
      "transactionHash": "0x95f412424286ca2f30f0ef4f4a2fc2a9721dda163019acc126e984f33db77d31",
      "transactionIndex": "0x3",
      "blockHash": "0x18a4843381e94cf5a6c2c9f0fe6d09c88f5bda39ede62b57b8532e04f7845ab8",
      "blockNumber": "0x7a25c3",
      "from": "0x5a562294808c5470873831ff456e86369dc32dcB",
      "to": "0xb5141c36cDC80A3d37d82067eAC2221FB08cBac0",
      "cumulativeGasUsed": "0x239ace",
      "gasUsed": "0x1abf4",
      "contractAddress": null,
      "logs": [
        {
          "address": "0xb5141c36cDC80A3d37d82067eAC2221FB08cBac0",
          "topics": [
            "0xc0c54fed07481d0998e1446b2c13759606bf4f26b78306307413ac4c4309aa82",
            "0x0000000000000000000000000000000000000000000000000000000000000001"
          ],
          "data": "0x00000000000000000000000000000000000000000000000000000000000000400000000000000000000000005a562294808c5470873831ff456e86369dc32dcb000000000000000000000000000000000000000000000000000000000000000950726f6a65637420320000000000000000000000000000000000000000000000",
          "blockHash": "0x18a4843381e94cf5a6c2c9f0fe6d09c88f5bda39ede62b57b8532e04f7845ab8",
          "blockNumber": "0x7a25c3",
          "transactionHash": "0x95f412424286ca2f30f0ef4f4a2fc2a9721dda163019acc126e984f33db77d31",
          "transactionIndex": "0x3",
          "logIndex": "0x3",
          "removed": false
        }
      ],
      "status": "0x1",
      "logsBloom": "0x00000000000000000000000008000000000000000000000000000000000000000000000000000000000000000000000800000000000000000000000000041000000000000000000000001000000000000000000000040000008000000000000000000000000000000000000000000000000000000000000000000000000000000000000000000000000000000000000000000000000000000000000000000000008000000000000000000000000000000000000000000000000000000000000000000000000000000000000000000000000000000000000000000000000040000000000000000000000000000000000000000000000000000000000000000000",
      "type": "0x2",
      "effectiveGasPrice": "0xb2d05f90"
    },
    {
      "transactionHash": "0xeb7c530e6557288c847788030ed98b74a2d8d7832438d2b3cdd17e0575060050",
      "transactionIndex": "0x4",
      "blockHash": "0x18a4843381e94cf5a6c2c9f0fe6d09c88f5bda39ede62b57b8532e04f7845ab8",
      "blockNumber": "0x7a25c3",
      "from": "0x5a562294808c5470873831ff456e86369dc32dcB",
      "to": "0xb5141c36cDC80A3d37d82067eAC2221FB08cBac0",
      "cumulativeGasUsed": "0x2546c2",
      "gasUsed": "0x1abf4",
      "contractAddress": null,
      "logs": [
        {
          "address": "0xb5141c36cDC80A3d37d82067eAC2221FB08cBac0",
          "topics": [
            "0xc0c54fed07481d0998e1446b2c13759606bf4f26b78306307413ac4c4309aa82",
            "0x0000000000000000000000000000000000000000000000000000000000000002"
          ],
          "data": "0x00000000000000000000000000000000000000000000000000000000000000400000000000000000000000005a562294808c5470873831ff456e86369dc32dcb000000000000000000000000000000000000000000000000000000000000000950726f6a65637420330000000000000000000000000000000000000000000000",
          "blockHash": "0x18a4843381e94cf5a6c2c9f0fe6d09c88f5bda39ede62b57b8532e04f7845ab8",
          "blockNumber": "0x7a25c3",
          "transactionHash": "0xeb7c530e6557288c847788030ed98b74a2d8d7832438d2b3cdd17e0575060050",
          "transactionIndex": "0x4",
          "logIndex": "0x4",
          "removed": false
        }
      ],
      "status": "0x1",
      "logsBloom": "0x04000000000000000000000008000000000000000000000000000000000000000000000000000000000000000000000800000000000000000000000000001000000000000000000000001000000000000000000000000000008000000000000000000000000000000000000000000000000000000000000000000000000000000000000000000000000000000000000000000000000000000000000000000000008000000000000000000100000000000000000000000000000000000000000000000000000000000000000000000000000000000000000000000000000000000000000000000000000000000000000000000000008000000000000000000000",
      "type": "0x2",
      "effectiveGasPrice": "0xb2d05f90"
    },
    {
      "transactionHash": "0x2b1b082096499c7b68f6704672d7552c92e5e93960138f2362a11704954afe4f",
      "transactionIndex": "0x5",
      "blockHash": "0x18a4843381e94cf5a6c2c9f0fe6d09c88f5bda39ede62b57b8532e04f7845ab8",
      "blockNumber": "0x7a25c3",
      "from": "0x5a562294808c5470873831ff456e86369dc32dcB",
      "to": "0xb5141c36cDC80A3d37d82067eAC2221FB08cBac0",
      "cumulativeGasUsed": "0x26a4a9",
      "gasUsed": "0x15de7",
      "contractAddress": null,
      "logs": [
        {
          "address": "0xb5141c36cDC80A3d37d82067eAC2221FB08cBac0",
          "topics": [
            "0x2587a8aae32052dc3489cced391a070648eedad0b8670a76ce103ee5df587e4a"
          ],
          "data": "0x00000000000000000000000007b8ff46cc6e366fe12e4d3d47825000d9948ecd",
          "blockHash": "0x18a4843381e94cf5a6c2c9f0fe6d09c88f5bda39ede62b57b8532e04f7845ab8",
          "blockNumber": "0x7a25c3",
          "transactionHash": "0x2b1b082096499c7b68f6704672d7552c92e5e93960138f2362a11704954afe4f",
          "transactionIndex": "0x5",
          "logIndex": "0x5",
          "removed": false
        }
      ],
      "status": "0x1",
      "logsBloom": "0x00000000000000000000000008000000000000000000000000000000000000000000000000000000000000000000000800000000000000000000000000001000000000000000000000000001000000000000000000000000000000000000000000000000000000000000000000000000000000000000000000000200000100000000000000000000000000000000000000000000000000000000000000000000000000000000000000000000000000000000000000000000000000000000000000000000000000000000000000000000000000000000000000000000000000000000000000000000000000000000000000000000000000000000000000000000",
      "type": "0x2",
      "effectiveGasPrice": "0xb2d05f90"
    },
    {
      "transactionHash": "0xd5e2fd7a7a91590d415ac78eaa039e158343295705041f34ef449e18419df72a",
      "transactionIndex": "0x6",
      "blockHash": "0x18a4843381e94cf5a6c2c9f0fe6d09c88f5bda39ede62b57b8532e04f7845ab8",
      "blockNumber": "0x7a25c3",
      "from": "0x5a562294808c5470873831ff456e86369dc32dcB",
      "to": "0xb5141c36cDC80A3d37d82067eAC2221FB08cBac0",
      "cumulativeGasUsed": "0x27bfd0",
      "gasUsed": "0x11b27",
      "contractAddress": null,
      "logs": [
        {
          "address": "0xb5141c36cDC80A3d37d82067eAC2221FB08cBac0",
          "topics": [
            "0x2587a8aae32052dc3489cced391a070648eedad0b8670a76ce103ee5df587e4a"
          ],
          "data": "0x000000000000000000000000030996ec60617fe293b4a51c97be0973c9ecdf33",
          "blockHash": "0x18a4843381e94cf5a6c2c9f0fe6d09c88f5bda39ede62b57b8532e04f7845ab8",
          "blockNumber": "0x7a25c3",
          "transactionHash": "0xd5e2fd7a7a91590d415ac78eaa039e158343295705041f34ef449e18419df72a",
          "transactionIndex": "0x6",
          "logIndex": "0x6",
          "removed": false
        }
      ],
      "status": "0x1",
      "logsBloom": "0x00000000000000000000000008000000000000000000000000000000000000000000000000000000000000000000000800000000000000000000000000001000000000000000000000000001000000000000000000000000000000000000000000000000000000000000000000000000000000000000000000000200000100000000000000000000000000000000000000000000000000000000000000000000000000000000000000000000000000000000000000000000000000000000000000000000000000000000000000000000000000000000000000000000000000000000000000000000000000000000000000000000000000000000000000000000",
      "type": "0x2",
      "effectiveGasPrice": "0xb2d05f90"
    },
    {
      "transactionHash": "0x6741c8329c244da3fe4095ddde8ae0505bcd2f0613d633441dd19de13fecfc13",
      "transactionIndex": "0x7",
      "blockHash": "0x18a4843381e94cf5a6c2c9f0fe6d09c88f5bda39ede62b57b8532e04f7845ab8",
      "blockNumber": "0x7a25c3",
      "from": "0x5a562294808c5470873831ff456e86369dc32dcB",
      "to": "0xb5141c36cDC80A3d37d82067eAC2221FB08cBac0",
      "cumulativeGasUsed": "0x28daf7",
      "gasUsed": "0x11b27",
      "contractAddress": null,
      "logs": [
        {
          "address": "0xb5141c36cDC80A3d37d82067eAC2221FB08cBac0",
          "topics": [
            "0x2587a8aae32052dc3489cced391a070648eedad0b8670a76ce103ee5df587e4a"
          ],
          "data": "0x0000000000000000000000009080cfe04a99afebf37eaa40441c4191b46c2cd1",
          "blockHash": "0x18a4843381e94cf5a6c2c9f0fe6d09c88f5bda39ede62b57b8532e04f7845ab8",
          "blockNumber": "0x7a25c3",
          "transactionHash": "0x6741c8329c244da3fe4095ddde8ae0505bcd2f0613d633441dd19de13fecfc13",
          "transactionIndex": "0x7",
          "logIndex": "0x7",
          "removed": false
        }
      ],
      "status": "0x1",
      "logsBloom": "0x00000000000000000000000008000000000000000000000000000000000000000000000000000000000000000000000800000000000000000000000000001000000000000000000000000001000000000000000000000000000000000000000000000000000000000000000000000000000000000000000000000200000100000000000000000000000000000000000000000000000000000000000000000000000000000000000000000000000000000000000000000000000000000000000000000000000000000000000000000000000000000000000000000000000000000000000000000000000000000000000000000000000000000000000000000000",
      "type": "0x2",
      "effectiveGasPrice": "0xb2d05f90"
    },
    {
      "transactionHash": "0x5512ce91b8a73e909cb82c2fe5e4d842149c0f45a22c10a1b11a0ae41a7dd40b",
      "transactionIndex": "0x8",
      "blockHash": "0x18a4843381e94cf5a6c2c9f0fe6d09c88f5bda39ede62b57b8532e04f7845ab8",
      "blockNumber": "0x7a25c3",
      "from": "0x5a562294808c5470873831ff456e86369dc32dcB",
      "to": "0xb5141c36cDC80A3d37d82067eAC2221FB08cBac0",
      "cumulativeGasUsed": "0x29f61e",
      "gasUsed": "0x11b27",
      "contractAddress": null,
      "logs": [
        {
          "address": "0xb5141c36cDC80A3d37d82067eAC2221FB08cBac0",
          "topics": [
            "0x2587a8aae32052dc3489cced391a070648eedad0b8670a76ce103ee5df587e4a"
          ],
          "data": "0x000000000000000000000000f45b4de5c02a7fd2cb137145fb52e7d6d5a9a32e",
          "blockHash": "0x18a4843381e94cf5a6c2c9f0fe6d09c88f5bda39ede62b57b8532e04f7845ab8",
          "blockNumber": "0x7a25c3",
          "transactionHash": "0x5512ce91b8a73e909cb82c2fe5e4d842149c0f45a22c10a1b11a0ae41a7dd40b",
          "transactionIndex": "0x8",
          "logIndex": "0x8",
          "removed": false
        }
      ],
      "status": "0x1",
      "logsBloom": "0x00000000000000000000000008000000000000000000000000000000000000000000000000000000000000000000000800000000000000000000000000001000000000000000000000000001000000000000000000000000000000000000000000000000000000000000000000000000000000000000000000000200000100000000000000000000000000000000000000000000000000000000000000000000000000000000000000000000000000000000000000000000000000000000000000000000000000000000000000000000000000000000000000000000000000000000000000000000000000000000000000000000000000000000000000000000",
      "type": "0x2",
      "effectiveGasPrice": "0xb2d05f90"
    },
    {
      "transactionHash": "0x296f5210e971b044c1fa7fd359f3f5009cbae29759e5f2eb3efa55313d350bdb",
      "transactionIndex": "0x9",
      "blockHash": "0x18a4843381e94cf5a6c2c9f0fe6d09c88f5bda39ede62b57b8532e04f7845ab8",
      "blockNumber": "0x7a25c3",
      "from": "0x5a562294808c5470873831ff456e86369dc32dcB",
      "to": "0xb5141c36cDC80A3d37d82067eAC2221FB08cBac0",
      "cumulativeGasUsed": "0x2b112d",
      "gasUsed": "0x11b0f",
      "contractAddress": null,
      "logs": [
        {
          "address": "0xb5141c36cDC80A3d37d82067eAC2221FB08cBac0",
          "topics": [
            "0x2587a8aae32052dc3489cced391a070648eedad0b8670a76ce103ee5df587e4a"
          ],
          "data": "0x000000000000000000000000b77ff06d00179f0811e9788b2cba6a2b0011b165",
          "blockHash": "0x18a4843381e94cf5a6c2c9f0fe6d09c88f5bda39ede62b57b8532e04f7845ab8",
          "blockNumber": "0x7a25c3",
          "transactionHash": "0x296f5210e971b044c1fa7fd359f3f5009cbae29759e5f2eb3efa55313d350bdb",
          "transactionIndex": "0x9",
          "logIndex": "0x9",
          "removed": false
        }
      ],
      "status": "0x1",
      "logsBloom": "0x00000000000000000000000008000000000000000000000000000000000000000000000000000000000000000000000800000000000000000000000000001000000000000000000000000001000000000000000000000000000000000000000000000000000000000000000000000000000000000000000000000200000100000000000000000000000000000000000000000000000000000000000000000000000000000000000000000000000000000000000000000000000000000000000000000000000000000000000000000000000000000000000000000000000000000000000000000000000000000000000000000000000000000000000000000000",
      "type": "0x2",
      "effectiveGasPrice": "0xb2d05f90"
    },
    {
      "transactionHash": "0x0b8c51aec916fe66c6fd9f1e4cb8ffee97a5776a940d86df0d2672c0a44e25e7",
      "transactionIndex": "0xa",
      "blockHash": "0x18a4843381e94cf5a6c2c9f0fe6d09c88f5bda39ede62b57b8532e04f7845ab8",
      "blockNumber": "0x7a25c3",
      "from": "0x5a562294808c5470873831ff456e86369dc32dcB",
      "to": "0xb5141c36cDC80A3d37d82067eAC2221FB08cBac0",
      "cumulativeGasUsed": "0x2bc563",
      "gasUsed": "0xb436",
      "contractAddress": null,
      "logs": [],
      "status": "0x1",
      "logsBloom": "0x00000000000000000000000000000000000000000000000000000000000000000000000000000000000000000000000000000000000000000000000000000000000000000000000000000000000000000000000000000000000000000000000000000000000000000000000000000000000000000000000000000000000000000000000000000000000000000000000000000000000000000000000000000000000000000000000000000000000000000000000000000000000000000000000000000000000000000000000000000000000000000000000000000000000000000000000000000000000000000000000000000000000000000000000000000000",
      "type": "0x2",
      "effectiveGasPrice": "0xb2d05f90"
    }
  ],
  "libraries": [],
  "pending": [],
  "returns": {},
  "timestamp": 1711778411,
  "chain": 84532,
  "multi": false,
  "commit": "255cc20"
}